:100000000C9416030C945A030C945A030C945A0340
:100010000C945A030C945A030C945A030C945A03EC
:100020000C945A030C945A030C94460E0C94180F1B
:100030000C94761C0C945A030C945A030C945A0397
:100040000C945A030C945A030C945A030C945A03BC
:100050000C945A030C94DE1C0C945A030C945A030F
:100060000C945A030C945A030C945A030C945A039C
:100070000C945A030C945A030C945A030C945A038C
:100080000C945A030C945A030C945A030C945A037C
:100090000C945A030C945A030C945A030C945A036C
:1000A0000C945A030C945A030C945A03BD05100681
:1000B0001006100610061006100610061006100690
:1000C000C905D105D805DF05E605ED05FB050206E6
:1000D0000906F405850FA70F9510A70F9510EC0FD3
:1000E0000F1095106410771046134613751375138F
:1000F000AB13CB13FC14FC14D613FC148614861417
:10010000ED14FC14FC14F614931493149314931428
:1001100093149314931493149314931493149314A7
:100120009314931493149314A514B214B914C01413
:10013000CA1401E1012602260127022702E1012C4F
:10014000022C012E022E01E10137023702E1012CBF
:10015000022C01E1012F022F0130023002E10001E7
:10016000E10125022502E101380238000138023898
:1001700001E1012502250125022502E10001E1013D
:100180003602360137023702E100012F022F01301B
:1001900002300001E1012F022F0130023002E100A4
:1001A00001E1012602260127022702E100012E02B9
:1001B0002E01E10137023702E10001510251014AEB
:1001C000024A012802280152025200015202520141
:1001D0004D024D01280228000000F0A129002B004B
:1001E000E300E100E00000001E00140004001D71A7
:1001F000E20003521F001A0016001B00E3002C004F
:1002000020000800070006006C00015221001500C4
:10021000090019006D002800220017000A000500DF
:1002200000002A00350034000000340200004C00B9
:1002300025022E0200002E000000A90023001C0051
:100240000B00110000002800240018000D00100011
:100250005000AA0025000C000E0036005200025289
:10026000260012000F003700510003522700130030
:10027000334238714F0001522A0031002D00E50051
:100280002D0200000100010001000100010000003A
:100290001E024A0050084D00010001001F024B00E1
:1002A0005000010001000100200252005100010035
:1002B0000100010021024E004F0001000100010079
:1002C000220201004F0801000000010001000100AE
:1002D00000000100000001000100240200003102C2
:1002E00000000100230225022E0227000000010069
:1002F0002402240021001E00270001002502250001
:1003000022001F00220201002602260023002000F6
:100310003700010027020100330201000100010043
:1003200001000100010001000100000001000100C6
:1003300001000100010000003A004A02500A4D028B
:10034000010001003B004B025002010001000100CE
:100350003C00520251020100010001003D004E022A
:100360004F020100010001003E0001004F0A0100A0
:100370000000010001000100000001000000010078
:100380000100240200003102000001003F000100D2
:100390006A006B0000000100400001002A002802F2
:1003A0000100010041000A3028000B30010001006B
:1003B000420001004C00280201000100430001003E
:1003C000010001000100010044004500010001009E
:1003D0000100000000500100FD00010001000000CC
:1003E00001000100FD000100010001000100F40016
:1003F000F200F9000100FD000100F000F100F6003C
:100400000100FD000100F500F300FA000100010009
:100410000100F500F4000100000001000100F900F6
:100420000000FA00000001000100F4000000F500E7
:1004300000000100230225022E020100000001003D
:10044000240201000D300F3001000100250212309E
:100450000E3013300100010026022F022F00360259
:1004600001000100270230023000370201000100C4
:100470000100010001000100010000001603450019
:10048000720067006F0044006F0078002000450094
:100490005A00000016034500720067006F00440018
:1004A0006F007800200045005A0000000403090492
:1004B00009026D00040100A0FA0904000001030113
:1004C00001000921110100012240000705810308F4
:1004D000000A0904010001030102000921110100C1
:1004E00001224D000705820308000A0904020001E9
:1004F00003000000092111010001223600070583D5
:100500000308000A09040300010300000009211187
:1005100001000122390007058403100001120110B7
:100520000100000008EDFE071301000102000105B3
:10053000010906A101050719E029E7150025019524
:1005400008750181020508190129059505750191B4
:1005500002950175039101050719002977150025FA
:1005600001957875018102C005010980A10185020C
:1005700016010026B7001A01002AB7007510950170
:100580008100C0050C0901A1018503160100269C0C
:10059000021A01002A9C02751095018100C0050114
:1005A0000902A1010901A100050919012905150088
:1005B00025019505750181029501750381010501EC
:1005C000093009311581257F9502750881060938A2
:1005D0001581257F950175088106050C0A380215DD
:1005E00081257F950175088106C0C005010906A116
:1005F00001050719E029E715002501950875018116
:1006000002950175088101050819012905950575EF
:100610000191029501750391010507190029FF1544
:100620000026FF00950675088100C00011241FBE3A
:10063000CFEFDAE0DEBFCDBF04B603FE24C0809169
:10064000F9019091FA01A091FB01B091FC01873072
:10065000904BA740B04BB9F41092F9011092FA01F7
:100660001092FB011092FC0114BE84B7877F84BFF7
:1006700088E10FB6F89480936000109260000FBE7E
:10068000E0E0FFE3099511E0A0E0B1E0ECE4F9E47B
:1006900002C005900D92A433B107D9F711E0A4E38D
:1006A000B1E001C01D92A93FB107E1F70E94900B94
:1006B0000C94A4240C9400001092B9008AE080935A
:1006C000B800089594EA9093BC009091BC0097FF05
:1006D000FCCF9091B900987F983021F0903111F0C3
:1006E00081E008958093BB0084E88093BC008091F2
:1006F000BC0087FFFCCF8091B900887F883111F062
:10070000803471F780E0089584E98093BC00809183
:10071000BC0084FDFCCF08958093BB0084E88093E7
:10072000BC008091BC0087FFFCCF9091B900987FFE
:1007300081E0983209F480E0089584E88093BC0059
:100740008091BC0087FFFCCF8091BB000895809111
:100750000101811115C080E40E94620380930101B0
:1007600081110CC082E10E948C03809301018111F0
:1007700005C08FEF0E948C03809301010E948403C7
:1007800084B1807F84B985B1807F85B98AB1837F48
:100790008AB98BB1837F8BB93E98469808950E94A1
:1007A0006205809301010E94A70380B38C7080BB17
:1007B00081B3836F81BBA5E3B1E0E3E4F1E08EE0B8
:1007C0008E0F11921D928E13FCCF0C944C05BF928C
:1007D000CF92DF92EF92FF920F931F93CF93DF930D
:1007E00080910101882379F0809134018F5F80939B
:1007F0003401811108C00E946205809301018111BA
:1008000002C00E94F40405E311E0C0E0D0E0DD2462
:10081000D39482E0C82EEE24E394F12CC730D105A6
:1008200000F580910101811164C080E40E9462039F
:1008300080930101811112C082E10E948C03809398
:10084000010181110BC0C7010C2E01C0880F0A9451
:10085000EAF780950E948C03809301010E94840333
:1008600048C0CA30A1F028F4C83059F0C93061F04E
:1008700005C0CC3089F070F0CD3089F0209A2898EE
:1008800010C0219A29980DC0229A2A980AC0239A4A
:100890002B9807C0529A01C0539A5B9802C03E9AA7
:1008A000469890EA9A95F1F79FB1799902C082E053
:1008B00001C080E091709D25982B7C9902C084E056
:1008C00001C080E0892B7D9902C038E001C030E092
:1008D000832B7E9902C020E101C020E0822B9FB1D2
:1008E0009095991F9927991F9295990F907E892B22
:1008F0000FC080910101811149C080E40E94620310
:1009000080930101882379F1B12C0E9484038B2DFF
:10091000F8019081981719F08083C09200010E941D
:10092000A70321960F5F1F4FCE30D10509F076CF78
:1009300080910001882361F1815080930001882318
:1009400039F08FE99FE00197F1F700C0000020C067
:10095000A3E4B1E0E5E3F1E0CF01825F91919D93E3
:100960008E13FCCF15C083E10E948C03809301019C
:100970008111CACF81E40E94620380930101811139
:10098000C3CF0E949D03B82EB094BFCF80E0C0CFEC
:100990000E94F20481E0DF91CF911F910F91FF90AF
:1009A000EF90DF90CF90BF900895E82FF0E0ED5BDF
:1009B000FE4F8081089508950F931F93CF93DF9387
:1009C000C3E4D1E010E00C2F025F899190E00E9417
:1009D000DB1B180F0C13F9CF812FDF91CF911F91E3
:1009E0000F9108950C94140656985E9825982D98AA
:1009F00026982E9827982F988FEF90E09093890053
:100A00008093880090938B0080938A0090938D0050
:100A100080938C00259A2D9A2FEF80E792E0215049
:100A200080409040E1F700C00000269A2E9A2FEFF8
:100A300080E792E0215080409040E1F700C0000044
:100A4000279A2F9A2FEF80E792E021508040904024
:100A5000E1F700C0000025982D982FEF80E792E085
:100A6000215080409040E1F700C0000026982E9869
:100A70002FEF80E792E0215080409040E1F700C0E6
:100A8000000027982F9856985E9825982D982698BC
:100A90002E9827982F98089589EA8093800089E0FE
:100AA0008093810024982C983F988AB18F748AB9DA
:100AB0006E98479A8BB1806B8BB9769A0E94F4043A
:100AC0000C94130680E28093010180915101811101
:100AD0000EC00E945C0381E0809351012FEF83EDF3
:100AE00090E3215080409040E1F700C0000080E496
:100AF0000E9462038093010181112EC00E948C0329
:100B000080930101811128C00E948C038093010110
:100B1000811122C08FE30E948C0380930101811117
:100B20001BC00E94840380E40E9462038093010141
:100B3000811112C08CE00E948C038093010181110D
:100B40000BC00E948C0380930101811105C08FE3CB
:100B50000E948C03809301010E9484038091010113
:100B60000895DC01462F50E04431510508F058C08B
:100B7000FA01EA5AFF4F0C94542412968C91882360
:100B800021F085EE0E94EA114BC085EE0E94B21260
:100B900047C012968C91882309F442C08BEC91E0F7
:100BA000089512968C918823D9F18AEB91E00895EB
:100BB00012968C918823A1F18DEA91E00895129606
:100BC0008C91882369F180EA91E0089512968C91C6
:100BD000882331F183E991E0089512968C9188235E
:100BE000F9F08AE891E0089512968C918823C1F07B
:100BF0008DE791E0089512968C91882389F08CE618
:100C000091E0089512968C91882351F08FE591E040
:100C1000089512968C91882319F082E391E008954B
:100C200080E090E0089508956091BD017091BE014B
:100C30008091BF019091C0010E94E71B56985E9879
:100C400025982D9826982E9827982F98823039F03D
:100C5000833041F0813041F4259A2D9A0895269AE7
:100C60002E9A0895279A2F9A089581E0089581E099
:100C700008950C94370608950F931F93CF93DF9335
:100C80008C01FC01C081D181CE010E94601ABE019D
:100C90000E94E506EC01B8010E943906882309F498
:100CA0008DC0F8018281882309F44AC080915D01DA
:100CB00081111FC0C431F0E5DF0709F051C00E9467
:100CC0003B0681E080935D010E94A81C90935C012B
:100CD00080935B01109254011092560110925501BD
:100CE000109258011092570110925A011092590116
:100CF00065C080915B0190915C010E94B41C883CAE
:100D0000910570F480915401E82FF0E0EE0FFF1F81
:100D1000EB5AFE4FD183C0838F5F809354014EC046
:100D2000C43880E5D80721F0C538D04501F13AC074
:100D3000F8018281882341F01092520182E01EC0A6
:100D4000C438E0E5DE0759F580915201811106C0F3
:100D500086E20E94EA1186E20E94B21282E01CC082
:100D6000C438F0E5DF0741F3C538D045D9F4F801C0
:100D70008281882331F01092530180E20E94011396
:100D80001DC080915301811106C087E20E94EA11C3
:100D900087E20E94B21280E20E9408130FC0C53899
:100DA000D04529F381E08093520180935301C8011B
:100DB000DF91CF911F910F910C94350680E0DF9168
:100DC000CF911F910F910895089596E0799FF001BA
:100DD000112494E5899FE00DF11D1124E60FF11D0A
:100DE000EE0FFF1FE452FE4F859194910895880FF6
:100DF000991FFC01E85AFF4F859194910895880F3F
:100E0000991FFC01E852FE4F8591949108950F932C
:100E10001F93CF93DF93EC018115904350F5C115DB
:100E200080E2D80708F0C3C0CB3BD10590F4C83AA4
:100E3000D10508F06AC0C53AD10508F05BC0C430DE
:100E4000D10508F0D0C1219709F0CAC101E010E036
:100E50000AC2CF3FD10511F008F0C5C1C03FD1058E
:100E600008F0A2C0CE01805E9109089708F4BBC1CA
:100E7000B7C1C13090E5D90709F4A2C020F5C0314F
:100E80008FE4D80770F4C11590E4D90708F094C036
:100E9000C11521E3D20708F0A3C1DD278E01106C34
:100EA000E2C1C115D04509F09BC10E9467158FEFC3
:100EB00094E32CE0815090402040E1F700C0000016
:100EC0000E94031DD0C1C11597E5D90758F4C03160
:100ED00021E5D20708F01CC1C43180E5D80708F429
:100EE00075C07EC1CE0190578115904108F078C140
:100EF000DF7073C1C53AD10509F477C1C63AD1058F
:100F000009F076C102E810E4AEC1C83AD10509F48F
:100F100072C1C93AD10509F471C1CA3AD10509F4BF
:100F200070C1CB3AD10509F46FC1CC3AD10509F4AF
:100F30006EC1CD3AD10509F46DC1C03BD10509F4AC
:100F40006CC1CE3AD10509F46BC1CF3AD10509F491
:100F50006AC1C13BD10509F469C1C23BD10509F49D
:100F600068C1C33BD10509F467C1C43BD10509F48D
:100F700066C1C53BD10509F465C1C63BD10509F47D
:100F800064C1C73BD10509F463C1C83BD10509F46D
:100F900062C1C93BD10509F461C1CA3BD10509F45D
:100FA00060C100E014E45FC18E0110655CC1CE0138
:100FB0009F700E94FF0658C1DF708E01106A53C1F6
:100FC0008091DA0181608093DA014DC10E94A81EF0
:100FD000811102C00E948E1E0E94C51E90E0909357
:100FE000F9018093F801C23080E5D80721F480919F
:100FF000F801816086C0C43090E5D90721F4809162
:10100000F80182607EC0C63020E5D20721F48091CD
:10101000F801846076C0C83080E5D80719F4809163
:10102000F80127C0CA3090E5D90721F48091F80172
:10103000806167C0CC3020E5D20721F48091F801AF
:1010400080625FC0CE3080E5D80721F48091F8013E
:10105000806457C0C03190E5D90721F48091F80130
:1010600080684FC0C23120E5D20729F48091F80191
:101070008460886046C0C33080E5D80721F4809141
:10108000F8018E7F3EC0C53090E5D90721F48091EC
:10109000F8018D7F36C0C73020E5D20721F480915A
:1010A000F8018B7F2EC0C93080E5D80719F48091F4
:1010B000F80126C0CB3090E5D90721F48091F801E2
:1010C0008F7E1FC0CD3020E5D20721F48091F8013A
:1010D0008F7D17C0CF3080E5D80721F48091F801CB
:1010E0008F7B0FC0C13190E5D90721F48091F801C1
:1010F0008F7707C0C331D04531F48091F8018B7FE1
:10110000877F8093F8018091F8010E94C91EABC0CF
:101110008D2F99278F70992781309105D9F49E01E1
:101120002370332702C0880F991F2A95E2F79C6825
:101130008E0144E0000F111F4A95E1F7002713705C
:10114000802B912B53E0CC0FDD1F5A95E1F7C07631
:10115000DD272FC08230910531F4DC2FCC278E01A2
:10116000016F106A80C08330910569F4CE018370ED
:10117000992701E010E002C0000F111F8A95E2F7E5
:10118000C8019C680FC084309105B9F4CE0183700A
:10119000992701E010E002C0000F111F8A95E2F7C5
:1011A000C8019A6823E0CC0FDD1F2A95E1F7C07EC5
:1011B000D7708C010C2B1D2B56C08530910531F456
:1011C000DC2FCC278E01046F106A4DC0069709F002
:1011D0004AC0CF71DD27DC2FCC278E01106243C0BF
:1011E00000E010E040C08E013EC001E810E43BC0CA
:1011F00003E810E438C002EE14E435C009EE14E44C
:1012000032C00AEE14E42FC005EB14E42CC006EB48
:1012100014E429C007EB14E426C00CEC14E423C04A
:101220000DEC14E420C003E815E41DC00AE815E441
:101230001AC002E915E417C004E915E414C001E27C
:1012400016E411C003E216E40EC004E216E40BC07B
:1012500005E216E408C006E216E405C007E216E45B
:1012600002C00AE216E4C801DF91CF911F910F91ED
:10127000089596E0799FF001112494E5899FE00D8F
:10128000F11D1124E60FF11DEE0FFF1FE452FE4F7A
:1012900085919491803E9105E0F4803C910558F54C
:1012A0008133910509F46FC048F48932910509F43E
:1012B00063C08A32910509F46DC072C0893391050B
:1012C000E9F082389105D1F08533910509F44DC0DC
:1012D00067C0833E910581F138F4803E9105B9F0F5
:1012E000823E9105D9F05CC0863E910561F1873E52
:1012F0009105A1F155C00E94F70608952091F801CB
:1013000020FD02C021FF4CC080EE90E049C08091DA
:10131000F80180FFF9CF89E390E042C08091F801A5
:1013200082FF0EC08091F80184FF03C080E090E04E
:1013300037C083EE90E034C08091F80182FFF2CF95
:1013400082EE90E02DC08091F80183FF0BC0809168
:10135000F80184FDEBCF87EE90E022C08091F80188
:1013600083FFF5CF86EE90E01BC08091F80185FFEA
:1013700007C089E290E014C08091F80185FFF9CFA1
:1013800085E390E00DC08091F80186FF07C08AE2F6
:1013900090E006C08091F80186FFF9CF81E390E0EC
:1013A0000E940707089508950C94D30980916E0157
:1013B0000895CF93DF9300D01F92CDB7DEB79C0185
:1013C0008091EF01843019F593E099833B832A8360
:1013D0009093E9008FEF9091E800815095FD06C051
:1013E00095ED9A95F1F700008111F5CF8091E80015
:1013F00085FF0DC040E050E063E070E0CE01019653
:101400000E94360C8091E8008E778093E8000F9060
:101410000F900F90DF91CF910895CF93DF9300D07D
:101420001F92CDB7DEB72091EF01243021F522E0E5
:1014300029839B838A8383E08093E9008FEF9091D7
:10144000E800815095FD06C095ED9A95F1F70000F2
:101450008111F5CF8091E80085FF0DC040E050E09C
:1014600063E070E0CE0101960E94360C8091E800A6
:101470008E778093E8000F900F900F90DF91CF91BF
:1014800008952091EF012430F1F422E02093E90047
:101490002FEF3091E800215035FD06C035ED3A952B
:1014A000F1F700002111F5CF2091E80025FF0BC0D6
:1014B00040E050E065E070E00E94360C8091E8006A
:1014C0008E778093E8000895CF93DF93EC0190919D
:1014D000EF01943009F046C080910C018823D9F0C7
:1014E00080910D018823B9F09093E9008FEF9091DE
:1014F000E800815095FD06C095E19A95F1F700004E
:101500008111F5CF8091E80085FF2CC040E050E0CC
:1015100060E170E017C081E08093E9008FEF909167
:10152000E800815095FD06C095ED9A95F1F7000011
:101530008111F5CF8091E80085FF14C040E050E0B4
:1015400068E070E0CE010E94360C8091E8008E7752
:101550008093E80080E1FE01AEE5B1E001900D92DC
:101560008A95E1F7DF91CF9108958091EE01811185
:1015700009C00E94CB0D0E94280E8091E200846079
:101580008093E20008951092EE0108950895089561
:101590000C94701C42E061EC81E00E94450D42E039
:1015A00061EC82E00E94450D42E061EC83E00E9424
:1015B000450D42E161EC84E00C94450D8091F10110
:1015C000833009F455C030F4813071F0823009F471
:1015D0008EC008958A3009F47AC08B3009F460C057
:1015E000893009F09CC020C08091F001813A09F057
:1015F00096C08091E800877F8093E8008091F40195
:101600009091F501892B21F460E18EE591E003C012
:1016100060E080E090E070E00E94810C8091E80042
:101620008B778093E80008958091F001813209F072
:1016300076C08091F4019091F501009719F003971D
:1016400009F06DC08091E800877F8093E800809169
:10165000E80082FD05C08091EF018111F8CF5FC0E5
:101660008091F10080936E018091E8008B7753C0E8
:101670008091F001813A09F052C08091F40190917B
:10168000F501892B09F04BC08091E800877F80939A
:10169000E8008091E80080FFFCCF80910C0136C00B
:1016A0008091F0018132D9F58091F4019091F5019A
:1016B000892BA9F58091E800877F8093E8000E943C
:1016C0007A0D8091F20180930C010C946715809142
:1016D000F001813221F58091E800877F8093E80056
:1016E0000E947A0D8091F30180936F01089580919B
:1016F000F001813AA1F48091E800877F8093E800AF
:101700008091E80080FFFCCF80916F018093F10011
:101710008091E8008E778093E8000C947A0D08950C
:1017200084B7877F84BF88E10FB6F8948093600008
:10173000109260000FBE80E88093610010926100FB
:101740000E941D110E94CB0D0E94280E8091E20084
:1017500084608093E20078940E94AE100E941F1172
:1017600082E091E00E94C9108091EF01853069F418
:101770000E94371C8091ED018823B1F30E94621C06
:10178000882391F30E94200CEFCF0E942511ECCF0B
:10179000292F332723303105C9F064F42130310576
:1017A00081F02230310509F043C08DE690E020EB56
:1017B00034E042C021323105F1F02232310541F1ED
:1017C00037C082E190E02DE135E036C099278130C5
:1017D000910541F08230910541F0892B49F5ECEA01
:1017E000F4E005C0E4E9F4E002C0ECE7F4E0849141
:1017F00090E09F0121C06430D8F4E62FF0E0EE0FB6
:10180000FF1FEE5DFE4F2081318189E090E014C022
:10181000643070F470E0FB01EE0FFF1FE65EFE4FD8
:1018200020813181FB01EA5EFE4F808190E004C09F
:1018300080E090E020E030E0FA01318320830895D9
:1018400080E189BD82E189BD09B400FEFDCF8091B0
:10185000D8008F7D8093D8008091E00082608093D3
:10186000E0008091E00081FDFCCF0895CF92DF92EF
:10187000EF92FF920F931F93CF93DF93EC018B01B5
:101880006A010E94990D811133C0C114D10439F04D
:10189000F60180819181081B190BC80FD91FE12C1B
:1018A000F12C0115110519F18091E80085FD16C094
:1018B0008091E8008E778093E800C114D10449F04C
:1018C000F60180819181E80EF91EF182E08285E0C7
:1018D0000FC00E94990D882321F30AC0899180933B
:1018E000F10001501109FFEFEF1AFF0ADACF80E093
:1018F000DF91CF911F910F91FF90EF90DF90CF90EC
:1019000008952091F6013091F7012617370748F026
:101910006115710539F42091E8002E772093E800D5
:1019200001C0B90140E061157105A9F12091EF01F5
:10193000222309F443C0253009F442C02091E80075
:1019400023FD40C02091E80022FD32C02091E80034
:1019500020FFE9CF4091F3002091F20030E0342BDA
:10196000FC01CF016115710559F02830310540F4B3
:1019700081918093F100615071092F5F3F4FF1CF4A
:1019800041E02830310509F040E02091E8002E7751
:101990002093E800C8CF4111C9CF0AC08091EF0160
:1019A000882361F0853061F08091E80083FD0AC0F2
:1019B0008091E80082FFF2CF80E0089582E00895F0
:1019C00083E0089581E008952091F6013091F701B8
:1019D0002617370748F06115710539F42091E800A2
:1019E0002E772093E80001C0B901FC0120E06115C9
:1019F000710591F18091EF01882309F440C0853091
:101A000009F43FC08091E80083FD3DC08091E8006B
:101A100082FD2FC08091E80080FFE9CF2091F30084
:101A20008091F20090E0922B6115710559F0883099
:101A3000910540F424912093F10031966150710991
:101A40000196F2CF21E0089709F020E08091E800AC
:101A50008E778093E800CBCF2111CCCF0AC0809144
:101A6000EF01882361F0853061F08091E80083FD0B
:101A70000AC08091E80082FFF2CF80E0089582E002
:101A8000089583E0089581E00895982F973058F5E0
:101A90009093E900981739F07091EC002091ED00D7
:101AA0005091F00003C0242F762F50E021FF19C081
:101AB0003091EB003E7F3093EB003091ED003D7FA5
:101AC0003093ED003091EB0031603093EB00709378
:101AD000EC002093ED005093F0002091EE0027FFE2
:101AE00007C09F5FD3CF8F708093E90081E0089596
:101AF00080E008958091F00187FF11C08091E80097
:101B000082FD05C08091EF018111F8CF11C0809155
:101B1000E8008B770BC08091EF01882349F080911A
:101B2000E80080FFF8CF8091E8008E778093E8008E
:101B300008952091E4003091E50095E64091EC0095
:101B4000842F817040FF22C08091E80080FD1CC07E
:101B50008091EF01882391F0853091F08091EB0026
:101B600085FD10C04091E4005091E50042175307F5
:101B700029F39A01915011F784E0089582E00895C5
:101B800083E0089581E0089580E008954091E800A1
:101B900042FFDECF08950E94390E0E94410EE0EE12
:101BA000F0E0808181608083E8EDF0E080818F77D4
:101BB000808319BCA7EDB0E08C918E7F8C938081DF
:101BC0008F7E80831092EE0108950F931F93CF9321
:101BD000DF930E94390E0E94410EC8EDD0E088814B
:101BE0008F77888388818068888388818F7D8883C8
:101BF00019BC1092EF011092EB011092ED011092BE
:101C0000EC0100EE10E0F80180818B7F80838881F9
:101C10008160888342E060E080E00E94450DE1EE53
:101C2000F0E080818E7F8083E2EEF0E08081816051
:101C30008083808188608083F80180818E7F8083AB
:101C4000888180618883DF91CF911F910F910895E2
:101C5000E8EDF0E080818F7E8083E7EDF0E0808129
:101C60008160808384E082BF81E08093EE010C94E8
:101C7000E50DE8EDF0E080818E7F80831092E20038
:101C800008951092DA001092E10008951F920F92C9
:101C90000FB60F9211242F933F934F935F936F933F
:101CA0007F938F939F93AF93BF93EF93FF93809115
:101CB000E10082FF0BC08091E20082FF07C08091AB
:101CC000E1008B7F8093E1000E94AD108091DA00EB
:101CD00080FF1FC08091D80080FF1BC08091DA0078
:101CE0008E7F8093DA008091D90080FF0DC080E163
:101CF00089BD82E189BD09B400FEFDCF81E08093FA
:101D0000EF010E94B50A05C019BC1092EF010E94B4
:101D1000C30A8091E10080FF19C08091E20080FF3A
:101D200015C08091E2008E7F8093E2008091E200F6
:101D300080618093E2008091D80080628093D80017
:101D400019BC85E08093EF010E94C70A8091E100F1
:101D500084FF30C08091E20084FF2CC080E189BD07
:101D600082E189BD09B400FEFDCF8091D8008F7D4E
:101D70008093D8008091E1008F7E8093E100809174
:101D8000E2008F7E8093E2008091E2008160809388
:101D9000E2008091EB01882311F084E007C080917C
:101DA000E30087FD02C081E001C083E08093EF0182
:101DB0000E94C80A8091E10083FF29C08091E2005F
:101DC00083FF25C08091E100877F8093E10082E05E
:101DD0008093EF011092EB018091E1008E7F809360
:101DE000E1008091E2008E7F8093E2008091E2002A
:101DF00080618093E20042E060E080E00E94450D57
:101E00008091F00088608093F0000E94C60AFF91E4
:101E1000EF91BF91AF919F918F917F916F915F9162
:101E20004F913F912F910F900FBE0F901F901895DB
:101E30001F920F920FB60F9211242F933F934F933F
:101E40005F936F937F938F939F93AF93BF93CF9342
:101E5000DF93EF93FF93C091E900CF708091EC0086
:101E6000D82FD17080FDD0E81092E9008091F00069
:101E7000877F8093F00078940E945C0F1092E900B5
:101E80008091F00088608093F000CD2BCF70C093DC
:101E9000E900FF91EF91DF91CF91BF91AF919F91B9
:101EA0008F917F916F915F914F913F912F910F9003
:101EB0000FBE0F901F9018951F93CF93DF93CDB750
:101EC000DEB7AA970FB6F894DEBF0FBECDBFE0EF26
:101ED000F1E088E08E0F9091F10091938E13FBCF8B
:101EE0000E94DE0A8091E80083FF1FC18091F0010B
:101EF0009091F101492F50E04A30510508F015C189
:101F0000FA01E659FF4F0C945424803881F082384E
:101F100009F00BC18091F4018F708093E9008091EA
:101F2000EB0085FB882780F91092E90006C08091BC
:101F3000EC019091ED01911182609091E800977F02
:101F40009093E8008093F1001092F100C8C0282F10
:101F50002D7F09F0EAC0882319F0823061F0E5C0D6
:101F60008091F201813009F0E0C0933009F080E007
:101F70008093ED012BC08091F201811127C08091E7
:101F8000F4018F7009F4D1C08093E9002091EB0037
:101F900020FF1CC0933021F48091EB00806214C0BC
:101FA0009091EB0090619093EB0021E030E0A9016B
:101FB00002C0440F551F8A95E2F74093EA00109241
:101FC000EA008091EB0088608093EB001092E900BA
:101FD0008091E800877F86C08111A7C01091F2012F
:101FE0001F778091E3008078812B8093E3008091BC
:101FF000E800877F8093E8000E947A0D8091E800D6
:1020000080FFFCCF8091E30080688093E300111192
:1020100002C082E001C083E08093EF0186C0805857
:10202000823008F082C08091F2019091F3018C3DE2
:1020300053E0950779F583E08A838AE289834FB775
:10204000F894DE01139620E03EE051E2E32FF0E049
:1020500050935700E49120FF03C0E295EF703F5F7B
:10206000EF708E2F90E0EA3010F0C79601C0C09656
:102070008D939D932F5F243149F74FBF8091E800E6
:10208000877F8093E8006AE270E0CE0101960E94AB
:10209000810C14C0AE014F5F5F4F6091F4010E944C
:1020A000C80BBC01892B09F440C09091E800977FD0
:1020B0009093E80089819A810E94E40C8091E80065
:1020C0008B778093E80031C0803879F58091E80003
:1020D000877F8093E8008091EB018093F1008091ED
:1020E000E8008E778093E8000E947A0D1EC081116F
:1020F0001CC09091F2019230C0F48091E800877F7B
:102100008093E8009093EB010E947A0D8091EB019F
:10211000811106C08091E30087FD02C081E001C00B
:1021200084E08093EF010E94CA0A8091E80083FF57
:102130000AC08091E800877F8093E8008091EB00DF
:1021400080628093EB00AA960FB6F894DEBF0FBEB4
:10215000CDBFDF91CF911F9108950895CF938091C6
:10216000EF018823A1F0C091E900CF709091EC00BD
:10217000892F817090FD80E8C82B1092E900809132
:10218000E80083FD0E945C0FCF70C093E900CF91FF
:10219000089590937501809374010895E0917401FE
:1021A000F0917501309721F00190F081E02D0994B4
:1021B00080E00895E0917401F0917501309721F06D
:1021C0000280F381E02D09940895E0917401F0916B
:1021D0007501309721F00480F581E02D0994089570
:1021E00020917201309173018217930771F09093DF
:1021F000730180937201E0917401F0917501309741
:1022000021F00680F781E02D099408952091700156
:10221000309171018217930771F09093710180934F
:102220007001E0917401F0917501309721F0008404
:10223000F185E02D0994089508950C941C110E94D5
:102240009F1C0E94CF030C94611D9F92AF92BF927E
:10225000CF92DF92EF92FF920F931F93CF93DF9372
:1022600000D000D000D0CDB7DEB70E94E7030DE06C
:1022700010E0AA24A394B12C902E802F0E94D504A4
:10228000980129583E4F6901F901F080F826A1F420
:102290000150110988F78FEF89838A831B820E947E
:1022A000A81C8160782F9D838C8349815A816B8122
:1022B0008D810E94BC112FC09091DA0191FF04C062
:1022C0008E830E94DB048E8125E030E0A501022E82
:1022D00001C0440F0A94EAF7E42E4F21C1F029838C
:1022E0009A828E2191E009F490E09B830E94A81CC1
:1022F0008160782F9D838C8349815A816B818D8188
:102300000E94BC11F6018081E826E08204C02150C1
:102310003109E0F6BDCF0E944820109176010E945D
:10232000CE101817B9F00E94CE1080937601269631
:102330000FB6F894DEBF0FBECDBFDF91CF911F91D6
:102340000F91FF90EF90DF90CF90BF90AF909F9054
:102350000C94D40926960FB6F894DEBF0FBECDBFFD
:10236000DF91CF911F910F91FF90EF90DF90CF9071
:10237000BF90AF909F900895CF93DF93CDB7DEB716
:102380002B970FB6F894DEBF0FBECDBF4F83588793
:1023900069877A878B87DE01119686E0FD011192AD
:1023A0008A95E9F785E0FE01379601900D928A95AE
:1023B000E1F749815A816B817C818D819E810E94E8
:1023C00005182B960FB6F894DEBF0FBECDBFDF9178
:1023D000CF910895CF93882309F4C2C0C82F8238C3
:1023E00059F40E94CE1081FDBBC089E30E94DF1A20
:1023F0000E94AC1B89E30CC0833879F40E94CE1094
:1024000080FDAEC083E50E94DF1A0E94AC1B83E50D
:102410000E94211BCF910C94AC1B843859F40E946C
:10242000CE1082FD9DC087E40E94DF1A0E94AC1B83
:1024300087E4EECF8CEF8C0F813A48F48C2F0E940A
:10244000832281118DC08C2F0E94DF1AE3CF80E29E
:102450008C0F883048F4C77081E001C0880FCA959E
:10246000EAF70E94651BD6CF8BE58C0F833078F49A
:10247000C53A29F0C63A31F083E890E005C081E81A
:1024800090E002C082E890E0CF910C94F01088E5D3
:102490008C0F833108F064C0C83A39F1C93A41F170
:1024A000CA3A49F1CB3A51F1CC3A59F1CD3A61F1FE
:1024B000C03B69F1CE3A71F1CF3A79F1C13B81F17C
:1024C000C23B89F1C33B91F1C43B99F1C53BA1F1FA
:1024D000C63BA9F1C73BB1F1C83BB9F1C93BC1F15A
:1024E000CA3BC9F180E090E038C082EE90E035C090
:1024F00089EE90E032C08AEE90E02FC085EB90E04C
:102500002CC086EB90E029C087EB90E026C08CECD5
:1025100090E023C08DEC90E020C083E891E01DC0E6
:102520008AE891E01AC082E991E017C084E991E05D
:1025300014C081E292E011C083E292E00EC084E216
:1025400092E00BC085E292E008C086E292E005C00E
:1025500087E292E002C08AE292E0CF910C940611E9
:10256000CF910895882309F44BC0823859F40E9412
:10257000CE1081FF45C089E30E94DF1A0E94AC1B88
:1025800089E30CC0833871F40E94CE1080FF38C0FC
:1025900083E50E94DF1A0E94AC1B83E50E94211B89
:1025A0000C94AC1B843859F40E94CE1082FF28C0D2
:1025B00087E40E94DF1A0E94AC1B87E4EFCF9CEFF8
:1025C000980F913A58F390E2980F983050F4877032
:1025D00091E001C0990F8A95EAF7892F0E946B1B41
:1025E000DFCF9BE5980F933020F480E090E00C94CF
:1025F000F010885A833120F480E090E00C940611AA
:102600000895882321F00E94651B0C94AC1B08954B
:10261000882321F00E946B1B0C94AC1B08957F92C1
:102620008F929F92AF92BF92CF92DF92EF92FF92E2
:102630000F931F93CF93DF931F92CDB7DEB77C012B
:10264000C62E772EFC01058102950F7012811111A3
:102650000E94821B0E94D81A882379F0112369F006
:1026600080E28C0D883048F082E00E94C11A0E94FE
:10267000D81A91E0D82ED92601C0D12CE72DE295A9
:10268000EF70F0E0EC58FF4F0C945424872D807FBE
:10269000072D0F70882311F00295007F112389F018
:1026A000002309F490C180E28C0D883020F4802F43
:1026B0000E94651B03C0802F0E94751B0E94AC1BEB
:1026C00082C18C2D0E94B212002309F495C180E2D0
:1026D0008C0D883020F4802F0E946B1B03C0802F4C
:1026E0000E947B1B0E94AC1B87C1972D907F872D7A
:1026F0008F70903211F08295807FCC2021F0F1E034
:10270000CF16B1F01EC0112349F0002309F414C103
:10271000013009F011C10E94951B6EC1002319F010
:10272000013009F469C189830E94981B89810AC11B
:10273000112321F0023008F05FC1FEC001115CC11D
:1027400001C1112321F0002309F4F6C03CC100238C
:1027500009F4F8C03EC1872D86958695837090E078
:10276000009719F0019761F047C1112321F08C2DDA
:10277000972D937002C080E090E00E94F0103CC161
:10278000112321F08C2D972D937002C080E090E0F2
:102790000E94061131C18C2D112319F00E94501F87
:1027A00002C00E94B81F0E943D2026C1872D837061
:1027B00009F052C0111120C18C2D82958695877029
:1027C000880F880F9C2D9F70892E912CA12CB12CE5
:1027D000082E04C0880C991CAA1CBB1C0A94D2F7B2
:1027E000C4FE14C00FE010E020E030E0B901A80101
:1027F00004C0440F551F661F771F8A95D2F7CB017F
:10280000BA01609570958095909503C060E070E086
:10281000CB01272D26952695237030E022303105F7
:1028200069F02330310589F0682979298A299B29A3
:102830002130310571F00E944D19DEC068297929D7
:102840008A299B290E946919D7C00E944D19C50188
:10285000B4010E943119D0C0112319F0872D817065
:1028600001C08695882309F4C7C08C2D8295869572
:102870008770880F880F9C2D9F70892E912CA12C1A
:10288000B12C082E04C0880C991CAA1CBB1C0A94ED
:10289000D2F7C4FE14C00FE010E020E030E0B90130
:1028A000A80104C0440F551F661F771F8A95D2F7F1
:1028B000CB01BA01609570958095909503C060E05A
:1028C00070E0CB01272D269526952370422F50E0EE
:1028D0004230510569F04330510589F06829792962
:1028E0008A299B294130510571F00E94271A84C022
:1028F000682979298A299B290E94431A7DC00E9450
:10290000271AC501B4010E940B1A76C08C2D90E0E5
:10291000FC01E05EF109E531F10508F050C0EC572B
:10292000FF4F0C9454240C2D0F70872D8F711123A1
:1029300031F00E94A419802F0E9401135DC00E94F3
:10294000C519802F0E94081357C0112339F00111B7
:1029500053C0872D8F710E94EA194EC0023008F0D3
:102960004BC0F7CF112339F0872D8F710E94A41926
:1029700043C01123C9F3872D8F710E94C5193CC034
:10298000112329F0872D8F710E948F1935C00E9465
:10299000851932C0112351F0172D1F71812F0E940C
:1029A000A41963E0812F0E94B81A26C081E00E941A
:1029B000C11A023008F182E00E94C11A1DC0112321
:1029C00031F0002389F28C2D0E94EA1115C00023FA
:1029D00091F28C2D0E94B2120FC0472D4F706C2DBA
:1029E000C7010E94B1050E94A91806C0472D4F706B
:1029F0006C2DC7010E94E406DD20F9F00E94B41A94
:102A000080FD1BC0F70112820E94AE1A0E94A41919
:102A1000C7010E942C150E94AE1A0F90DF91CF9132
:102A20001F910F91FF90EF90DF90CF90BF90AF90EC
:102A30009F908F907F900C94C5190F90DF91CF914C
:102A40001F910F91FF90EF90DF90CF90BF90AF90CC
:102A50009F908F907F9008950F931F93CF93DF9354
:102A6000EC01888199812B813C81232BB9F09F3F18
:102A700011F48F3F99F0CE010E943C06882371F03B
:102A8000688179818A810E94AA1A8C010E945F1A4A
:102A90000E942619B801CE010E940F13DF91CF9139
:102AA0001F910F9108950E94821B0E94921B0E9409
:102AB000571B0E94AC1B0E94EE200E943D2080E02C
:102AC00090E00E94F01080E090E00C9406110E94CB
:102AD000721B0C9453150E949F1A292F22952F7058
:102AE00030E02C3031054CF42A3031056CF42250A2
:102AF000310922303105A8F407C02C30310569F0C6
:102B00002F30310551F00DC0803F69F018F4803E40
:102B100040F409C0843F29F406C093FB882780F95C
:102B2000089580E0089581E00895CF93DF9300D069
:102B300000D01F92CDB7DEB70F900F900F900F907F
:102B40000F90DF91CF910895CF93DF9300D000D005
:102B500000D0CDB7DEB726960FB6F894DEBF0FBE15
:102B6000CDBFDF91CF9108951F93CF93DF93C09195
:102B7000850116E080918601C81799F0D0E01C9F6E
:102B8000F0011D9FF00D1124E957FE4F4081518146
:102B900062817381848195810E94A4152196C770FA
:102BA000E9CFDF91CF911F9108954091B7015091E6
:102BB000B8016091B9017091BA018091BB01909107
:102BC000BC010C94A4158091BC0182958F7009F012
:102BD00054C08091B901882309F44FC080918501C8
:102BE000A09186016091B7017091B8014091BA013E
:102BF0005091BB01B6E08A1709F43FC090E041153F
:102C00005105C1F17F3F11F46F3FA1F1B89FF00171
:102C1000B99FF00D1124E957FE4F218172132AC08C
:102C20002081621327C02281211124C02381348195
:102C30002417350710F421503109241B350B283C8B
:102C40003105C0F42091BC012F7020612093BC019C
:102C500026E0289FF001299FF00D1124E457FE4F34
:102C600080818F708061808387EB91E00E942C15BA
:102C70000C94B41501968770BECF0895CF92DF9261
:102C8000EF92FF920F931F93CF93DF93CDB7DEB7F1
:102C900062970FB6F894DEBF0FBECDBF8C0185E002
:102CA000F801DE011D9601900D928A95E1F7D80199
:102CB0004C9111965C91119712966C911297139604
:102CC000CD90DC9014973091B7017091B80180914C
:102CD000BA019091BB01009709F46BC17F3F19F4D1
:102CE0003F3F09F466C1E090B901EE2009F4C0C08D
:102CF0002091BC01C816D90628F0F601E81BF90B93
:102D0000CF0104C0809590958C0D9D1DFF24F394F8
:102D1000883C910578F0F12C207F09F0C6C07C2D0D
:102D2000D98AC88A89890E94951587EB91E00E940B
:102D30002C15B1C0822F807F09F046C0751314C0D6
:102D4000341312C0611110C02F7020612093BC0198
:102D50000E94D51587EB91E00E942C158091BC0153
:102D6000D80115968C932EC0CD2819F15F3F11F430
:102D70004F3FF9F0F62E61111CC080918501209122
:102D8000860136E0821709F45AC090E0389FF001BE
:102D9000399FF00D1124E957FE4F7181571306C07A
:102DA0007081471303C07281711103C0019687704F
:102DB000E9CFF62E662309F418C18091BC01816029
:102DC0008093BC01F12C11C1751308C0341306C0E7
:102DD000611104C08091BC01D801C3C04D875E87DA
:102DE0008D859E856A8B0E946B156A898823E1F127
:102DF0006623D1F12091BC01822F82958F7090E0E3
:102E0000029774F08091B7019091B80198878F83F1
:102E10001986DB86CA862C87CE0107960E942C1560
:102E200086E0F801A7EBB1E001900D928A95E1F7F9
:102E30000E94E3150E94D515FF24F394D6C04D8758
:102E40005E878D859E850E949F1A292F22952F705F
:102E500030E0223031050CF0BCC09F7009F0B6C0E4
:102E6000805E883008F4C1C0C8010E942C15E4CFF0
:102E7000C816D90608F453C0F601E81BF90BCF01B8
:102E8000883C910508F450C0F12C7C2DD98AC88A61
:102E900089890E949515E7EBF1E086E0DF011D923C
:102EA0008A95E9F70E94D515A0C0751314C0341394
:102EB00012C0611110C08091BC01F8018583C80166
:102EC0000E942C1586E0E7EBF1E0DF011D928A9568
:102ED000E9F7FE2C8AC04D875E878D859E856A8BBB
:102EE0000E946B156A89882309F4BECF662309F412
:102EF000BBCF2091BC01822F82958F7090E002970A
:102F00000CF48ECF8091B7019091B8019A83898398
:102F10001B82DD82CC822E83CE0101967FCF8095ED
:102F200090958C0D9D1DACCFF62E662309F49CCF99
:102F300075132EC034132CC02091BC0120FD1FC07E
:102F4000822F82958F70D9F0D80115962C93159702
:102F50008F3049F08F5F982F9295907F822F8F70DE
:102F6000892B15968C93C8010E942C1586E0F801D8
:102F7000A7EBB1E001900D928A95E1F793CF86E03F
:102F8000F801A7EBB1E001900D928A95E1F72DC011
:102F90004D875E878D859E850E946B15811140CF80
:102FA0008091BC0181608093BC01C8010E942C15F6
:102FB0001CC0662309F458CF4D875E878D859E859A
:102FC0000E946B15882309F44FCF2ACF811148CF77
:102FD0000CC0243031050CF047CF9F7009F440CF6E
:102FE000F8019581907F09F03BCF8F2D62960FB647
:102FF000F894DEBF0FBECDBFDF91CF911F910F912F
:10300000FF90EF90DF90CF9008951F93CF93DF93C1
:10301000CDB7DEB72C970FB6F894DEBF0FBECDBF8D
:103020004F83588769877A878B879C87CE0107965D
:103030000E943E16882369F08F8198852A853B85FA
:10304000232BF1F19F3F09F063C08F3F09F060C06F
:1030500037C086E0FE013796DE01119601900D9291
:103060008A95E1F76F817885EA85FB85309741F194
:103070007F3F11F46F3F21F12091860130E0C901BB
:103080000196877099274091850150E08417950734
:1030900009F447C069837A83FD83EC8396E0929FAD
:1030A000D001939FB00D1124A957BE4FFE01319658
:1030B00001900D929A95E1F7809386010E94B415D4
:1030C00016E080918501909186018917C1F1189FC2
:1030D000C001112489579E4F0E943E16882379F122
:1030E000E09185011E9FF0011124E957FE4F4081B8
:1030F000518162817381848195810E94A4158091A0
:10310000850190E001968770992780938501D9CF3A
:103110004F81588569857A858B859C850E94A41589
:10312000CFCF0E9467151092860110928501E7EBC0
:10313000F1E086E0DF011D928A95E9F7C1CF2C9678
:103140000FB6F894DEBF0FBECDBFDF91CF911F91B8
:103150000895EF92FF920F931F93CF93DF938C010B
:10316000892B09F46CC0F12CEE24E394E80121963C
:10317000F8018491843740F4843008F051C08130E4
:1031800081F0823019F15BC0853709F444C0A8F1A1
:103190009CE7980F903708F052C08F770E94B212C8
:1031A00041C00E5F1F4FFE01C49180E28C0F88303A
:1031B00048F4C7708E2D01C0880FCA95EAF70E94A7
:1031C000851B14C08C2F0E94EA112DC00E5F1F4F6B
:1031D000FE01C49180E28C0F883058F4C7708E2DA8
:1031E00001C0880FCA95EAF70E948B1B0E94AC1B96
:1031F0001AC08C2F0E94B21216C00E5F1F4FFE0124
:10320000C491CC2381F08FE99FE00197F1F700C0D2
:103210000000C150F6CF0E5F1F4FFE01F49003C0B7
:103220000E94EA118E018F2D882309F49FCFEFE9C8
:10323000FFE03197F1F700C000008150F5CFDF913A
:10324000CF911F910F91FF90EF9008950895609393
:10325000C1017093C2018093C3019093C4010C9487
:1032600053150F931F930091C1011091C20120913A
:10327000C3013091C401DC01CB01802B912BA22B27
:10328000B32B8093C1019093C201A093C301B0936B
:10329000C4011F910F910C9453150F931F9300912C
:1032A000C1011091C2012091C3013091C401DC0120
:1032B000CB0180239123A223B3238093C101909358
:1032C000C201A093C301B093C4011F910F910C944C
:1032D00053150F931F930091C1011091C2012091CA
:1032E000C3013091C401DC01CB0180279127A227C3
:1032F000B3278093C1019093C201A093C301B093FF
:10330000C4011F910F910C9453151092BD0110929E
:10331000BE011092BF011092C0010C94531541E000
:1033200050E060E070E004C0440F551F661F771F37
:103330008A95D2F74093BD015093BE016093BF01BF
:103340007093C0010C94531541E050E060E070E0D0
:1033500004C0440F551F661F771F8A95D2F78091CE
:10336000BD019091BE01A091BF01B091C001482B59
:10337000592B6A2B7B2B4093BD015093BE01609368
:10338000BF017093C0010C94531541E050E060E020
:1033900070E004C0440F551F661F771F8A95D2F74F
:1033A00040955095609570958091BD019091BE01BA
:1033B000A091BF01B091C001482359236A237B2308
:1033C0004093BD015093BE016093BF017093C00153
:1033D0000C94531541E050E060E070E004C0440FED
:1033E000551F661F771F8A95D2F78091BD01909176
:1033F000BE01A091BF01B091C001482759276A279B
:103400007B274093BD015093BE016093BF01709331
:10341000C0010C9453150F931F930091BD0110919F
:10342000BE012091BF013091C001DC01CB01802B96
:10343000912BA22BB32B8093BD019093BE01A0933F
:10344000BF01B093C0011F910F910C9453150F93BE
:103450001F930091BD011091BE012091BF013091D9
:10346000C001DC01CB0180239123A223B3238093ED
:10347000BD019093BE01A093BF01B093C0011F9105
:103480000F910C9453150F931F930091BD01109150
:10349000BE012091BF013091C001DC01CB0180272A
:1034A0009127A227B3278093BD019093BE01A093DB
:1034B000BF01B093C0011F910F910C945315089553
:1034C000CF92DF92EF92FF920F931F93CF93DF93F0
:1034D0008C01C090C101D090C201E090C301F09076
:1034E000C4018091BD019091BE01A091BF01B09136
:1034F000C001C82AD92AEA2AFB2ACFE1D0E0D701A5
:10350000C6010C2E04C0B695A795979587950A9489
:10351000D2F780FF06C0B8018C2F0E9439090197AD
:1035200021F4219760F780E001C08C2FDF91CF91CB
:103530001F910F91FF90EF90DF90CF900895CF9360
:10354000DF93EC010E94601ABE010E943909DF91ED
:10355000CF910895CB010E949F1A08958091C501D3
:1035600085958595859508958091C5018770089505
:1035700098E0899F90011124262B2093C5010C947B
:10358000A4192091C501809582238093C501982FAD
:10359000977069F430E0482F552747FD5095241760
:1035A000350729F08595859585950C94C51908955D
:1035B0009091C501977081E009F480E008959091A1
:1035C0000C01992321F090910D01911109C02091D6
:1035D0000E0130910F01F90132969FEF40E01FC0BC
:1035E000982F9695969596959F3050F5E0910E01FF
:1035F000F0910F01E90FF11D877021E030E0A90182
:1036000002C0440F551F8A95E2F7CA019181892BA8
:10361000818308959F3F39F04F5F4E3041F05191C3
:103620005813F8CF0DC05111F7CF942FF5CF9F3F0E
:1036300039F0F901E90FF11D97FDFA95828308959C
:10364000089590910C01992321F090910D01911111
:1036500009C020910E0130910F01F9013296205FCF
:103660003F4F1FC0982F9695969596959F30F0F4F2
:10367000E0910E01F0910F01E90FF11D877021E03B
:1036800030E0A90102C0440F551F8A95E2F7CA0134
:10369000809591818923818308953196E217F307FC
:1036A00029F090819813F9CF1082F7CF089581E027
:1036B00090E0E0910E01F0910F01E80FF91F1082E8
:1036C000019680319105A9F708959091D901892B30
:1036D0008093D901089580959091D9018923809391
:1036E000D90108951092D90108959091D801892B9C
:1036F0008093D801089580959091D8018923809373
:10370000D80108951092D80108959091D701892B7E
:103710008093D701089580959091D7018923809354
:10372000D70108951092D70108958093C601089596
:103730001092C601089580910E0190910F01FC0135
:1037400031969C01205F3F4F80E0919191118F5FF6
:10375000E217F307D1F70895E0910E01F0910F0100
:103760008091D9018083E0910E01F0910F01908149
:103770008091D801892B8083E0910E01F0910F0197
:1037800090818091D701892B80838091C601882305
:1037900061F0E0910E01F0910F019081892B8083FF
:1037A0000E949B1B81111092C60180910E01909185
:1037B0000F010C94DA1020E0009739F0AC01415071
:1037C0005109842395232F5FF7CF822F0895CF923D
:1037D000DF92EF92FF926C01EE24FF24C114D1041A
:1037E000E104F10421F0C701B60120E101C020E0AD
:1037F000C72ED82EE92EFF24C114D104E104F10410
:1038000019F0285FC701B6016B017C0154E0F69402
:10381000E794D794C7945A95D1F7C114D104E10421
:10382000F10419F02C5FC701B6016B017C0142E085
:10383000F694E794D794C7944A95D1F7C114D1046C
:10384000E104F10419F02E5FC701B601DC01CB01E0
:10385000B695A79597958795892B8A2B8B2B09F081
:103860002F5F822FFF90EF90DF90CF90089580918F
:10387000EF01843021F11092DB0120E488E190E037
:103880000FB6F894A895809360000FBE2093600057
:1038900080E00E94D40983B7817F846083BF83B7AF
:1038A000816083BF7894889583B78E7F83BF88E1DA
:1038B0000FB6F89480936000109260000FBE0895D8
:1038C000089508950E94601C0E94E7030E94611CF5
:1038D0000E94DC0491E0811101C090E0892F0895DD
:1038E0000E9467150E94CE100C94D4091F920F926B
:1038F0000FB60F9211248F939F93AF93BF93809134
:10390000DB01811113C08091DC019091DD01A09158
:10391000DE01B091DF014196A11DB11D8093DC0154
:103920009093DD01A093DE01B093DF01BF91AF91D1
:103930009F918F910F900FBE0F901F90189582E06E
:1039400084BD93E095BD9AEF97BD80936E00089576
:103950002FB7F8948091DC019091DD01A091DE01F8
:10396000B091DF012FBF0895CF92DF92EF92FF92C7
:103970000F931F932FB7F8944091DC015091DD0114
:103980006091DE017091DF012FBF6A017B01EE249F
:10399000FF248C0120E030E0C016D106E206F306D9
:1039A00010F4415051099A01281B390BC9011F918C
:1039B0000F91FF90EF90DF90CF9008951F920F929C
:1039C0000FB60F9211248F939F93AF93BF93809163
:1039D000DC019091DD01A091DE01B091DF01019643
:1039E000A11DB11D8093DC019093DD01A093DE0148
:1039F000B093DF01BF91AF919F918F910F900FBE58
:103A00000F901F9018950E94CB0DF8942FEF87EA26
:103A100091E6215080409040E1F700C0000087E02F
:103A200090EBDC018093F9019093FA01A093FB01E4
:103A3000B093FC019CE088E10FB6F894A8958093C0
:103A400060000FBE90936000FFCFEF92FF920F9344
:103A50001F93CF93DF93D82FCDE08C2F0E94D504F6
:103A600005E010E0E82EF12CC701002E02C095956C
:103A700087950A94E2F780FF09C0602F7C2F80E0D1
:103A80000E94E506D81302C081E006C0015011096A
:103A900058F7C15010F780E0DF91CF911F910F913F
:103AA000FF90EF900895CF93C82F8CE20E94251DC0
:103AB000882321F08C2FCF910C94251D80E0CF918D
:103AC0000895CF930E94A81E811102C00E948E1EED
:103AD000C5E6C15049F00E94E7038FE39CE90197D6
:103AE000F1F700C00000F5CF89E20E94531D81115B
:103AF00013C18AE20E94531D81110E948E1E85E02F
:103B00000E94531D81110E94031D0E94B31E8093C9
:103B1000DA0187E00E94531D8823A9F18BE10E94FE
:103B2000531D882351F08091DA0181FB222720F96F
:103B300091E0922790FB81F90EC08EE00E94531D08
:103B4000882361F08091DA0182FB222720F991E03D
:103B5000922790FB82F98093DA0115C080E10E94E0
:103B6000531D9091DA01882341F093FB222720F91D
:103B700081E0822780FB93F904C0892F809580FB28
:103B800090F99093DA018091DA010E94B71E0E94A9
:103B9000C51E8093F80180EE0E94531D882341F0DA
:103BA0008091F801982F909590FB80F98093F8010F
:103BB00089E30E94531D882359F08091F80181FB0D
:103BC000222720F991E0922790FB81F98093F80158
:103BD00082EE0E94531D882359F08091F80182FBE8
:103BE000222720F991E0922790FB82F98093F80137
:103BF00086EE0E94531D882359F08091F80183FBC3
:103C0000222720F991E0922790FB83F98093F80115
:103C100083EE0E94531D882359F08091F80184FBA4
:103C2000222720F991E0922790FB84F98093F801F4
:103C300085E30E94531D882359F08091F80185FB8C
:103C4000222720F991E0922790FB85F98093F801D3
:103C500081E30E94531D882359F08091F80186FB6F
:103C6000222720F991E0922790FB86F98093F801B2
:103C700081E10E94531D882359F08091F80187FB50
:103C8000222720F991E0922790FB87F98093F80191
:103C90008091F8010E94C91E8091F80187FB882756
:103CA00080F980930D0187E20E94531DC82F8EE199
:103CB0000E94531D8111C2608FE10E94531D81112A
:103CC000C46080E20E94531D8111C86081E20E949D
:103CD000531D8111C06182E20E94531D8111C06297
:103CE00083E20E94531D8111C06484E20E94531D2F
:103CF000882311F0C06802C0CC2329F08C2F0E94C9
:103D0000C01E6C2F03C00E94BC1E682F70E080E0B4
:103D100090E0CF910C942719CF9108956DEE7EEF2E
:103D200080E090E00E948E2460E082E090E00E94BB
:103D30007C2460E083E090E00E947C2460E084E0EA
:103D400090E00E947C2460E085E090E00C947C246C
:103D500080E090E00E94762421E08D3E9E4F09F0A5
:103D600020E0822F089582E090E00C946E24682F6A
:103D700082E090E00C947C2483E090E00C946E242C
:103D8000682F83E090E00C947C2484E090E00C9415
:103D90006E24682F84E090E00C947C248091E201F2
:103DA00080FF0BC06091130185E0689FB001112472
:103DB00075956795759567952BC081FF09C06091D2
:103DC000130185E0689FB00111247595679520C0A7
:103DD00082FF07C06091130185E0689FB001112444
:103DE00017C09091E3019923D1F0609112019617C9
:103DF00088F72091130185E0289F90011124929F5C
:103E0000A001939F500D112470E0CA010E9440242C
:103E10006038710540F46115710539F002C065E044
:103E200070E0862F08958FE7089581E008958091CE
:103E3000E20180FF08C06091110170E075956795FF
:103E40007595679521C081FF06C06091110170E0F2
:103E50007595679519C082FF04C06091110170E0EB
:103E600010C09091E3019923C1F060911001961761
:103E7000A0F780911101899FC001112470E00E9478
:103E800040246038710528F46115710521F0862FF2
:103E900008958FE7089581E0089561E070E0F4CF20
:103EA000803F21F40E94CE1E819504C0813F29F4F9
:103EB0000E94CE1E8093E6010895823F21F40E9465
:103EC000CE1E819504C0833F29F40E94CE1E8093AC
:103ED000E5010895893F19F40E94171F05C08A3F24
:103EE00031F40E94171F81958093E70108958B3F5D
:103EF00021F40E94171F819504C08C3F29F40E9471
:103F0000171F8093E8010895843F21F48091E40114
:103F1000816017C0853F21F48091E401826011C067
:103F2000863F21F48091E40184600BC0873F21F437
:103F30008091E401886005C0883F31F48091E401FC
:103F400080618093E40108958D3F21F48091E20126
:103F500081600BC08E3F21F48091E201826005C038
:103F60008F3F29F48091E20184608093E2010895FB
:103F7000803F39F48091E60187FF6CC01092E60122
:103F800069C0813F29F48091E6011816BCF362C034
:103F90009091E501823F29F497FF5CC01092E50102
:103FA00059C0833F19F41916CCF354C0893F41F42A
:103FB0008091E70118160CF04DC01092E7014AC03D
:103FC0008A3F29F48091E70187FF44C0F6CF8B3FF9
:103FD00039F48091E80187FF3DC01092E8013AC0B2
:103FE0008C3F29F48091E8011816BCF333C0843F5C
:103FF00021F48091E4018E7F17C0853F21F48091E8
:10400000E4018D7F11C0863F21F48091E4018B7F14
:104010000BC0873F21F48091E401877F05C0883F72
:1040200031F48091E4018F7E8093E40113C08D3FD1
:1040300021F48091E2018E7F0BC08E3F21F48091AC
:10404000E2018D7F05C08F3F29F48091E2018B7FD3
:104050008093E2018091E50181110EC08091E6011B
:1040600081110AC08091E701811106C08091E801A9
:10407000811102C01092E301089584EE91E00E9444
:10408000E5100E94A81C9093E1018093E00108953F
:104090001F93CF93DF938091E0019091E1010E9403
:1040A000B41CAC019091E301992321F020911401FB
:1040B00030E006C0209115018AE0289F900111246C
:1040C0004217530708F486C08091E501C091E601CC
:1040D000D091E7011091E801811107C0C11176C0AC
:1040E000D11174C0111172C075C09F3F19F09F5F4C
:1040F0009093E301181624F40E94CE1E8093E501EC
:104100008091E50187FF05C00E94CE1E81958093B6
:10411000E5011C1624F40E94CE1E8093E6018091D6
:10412000E60187FF05C00E94CE1E81958093E601BF
:104130006091E501662339F1C091E601CC2319F1C4
:10414000772767FD7095872F972F0E94512323E3D0
:1041500033E343E35FE30E94B5230E941E23609391
:10416000E5016C2F772767FD7095872F972F0E94A9
:10417000512323E333E343E35FE30E94B5230E942B
:104180001E236093E6011D1624F40E94171F8093DE
:10419000E7018091E70187FF05C00E94171F819505
:1041A0008093E701111624F40E94171F8093E80101
:1041B0008091E80187FF05C00E94171F81958093B9
:1041C000E801DF91CF911F910C943D209F3F09F0B2
:1041D0008ECF96CFDF91CF911F910895E4EEF1E05D
:1041E00085E0DF011D928A95E9F71092E3011092B4
:1041F000E2010895833081F128F4813059F0823052
:10420000D1F00895853009F449C0B8F1863009F439
:1042100056C0089580911501262F30E0280F311DDA
:104220002F3F310524F4680F6093150108958FEF37
:1042300080931501089580911401262F30E0280FF6
:10424000311D2F3F310524F4680F60931401089548
:104250008FEF80931401089580911301262F30E091
:10426000280F311D2F3F310524F4680F609313018F
:1042700008958FEF80931301089580911201262FE6
:1042800030E0280F311D2F3F310524F4680F609373
:10429000120108958FEF809312010895809111010A
:1042A000262F30E0280F311D2F3F310524F4680FF1
:1042B0006093110108958FEF80931101089580910B
:1042C0001001262F30E0280F311D2F3F310524F437
:1042D000680F6093100108958FEF80931001089587
:1042E000833011F128F4813049F0823091F0089543
:1042F000853081F120F18630C1F10895809115015A
:10430000681720F4861B80931501089510921501FB
:10431000089580911401681720F4861B809314017E
:10432000089510921401089580911301681720F4E4
:10433000861B8093130108951092130108958091B4
:104340001201681720F4861B8093120108951092C1
:104350001201089580911101681720F4861B809343
:1043600011010895109211010895809110016817AC
:1043700020F4861B80931001089510921001089577
:104380000F931F938B3109F475C0A0F58E3009F49B
:1043900084C0C0F4873009F45BC068F4863009F04B
:1043A000AAC08091DA01817F8E7F8093DA0181E05B
:1043B0008093EA01A1C0883009F496C08B3009F4DB
:1043C00093C099C0813109F472C068F4803109F05A
:1043D00092C08091DA0183FB222720F991E0922795
:1043E00090FB83F950C0863109F47EC0893109F40D
:1043F0007BC081C0853309F479C068F4873209F441
:1044000075C028F48E3108F476C08D515AC08932B7
:1044100009F46CC070C0833438F48A3308F050C09B
:10442000883309F461C067C0833409F45FC08834FD
:1044300009F061C00E9467150FEF13ED20E30150F2
:1044400010402040E1F700C000000E94031D4CC056
:104450009091DA01892F8095817080FB90F929F085
:10446000966098609093DA0147C0997F977F909308
:10447000DA013AC08091DA0181FB222720F991E02C
:10448000922790FB81F98093DA01992369F1809159
:10449000DA0181608093DA0127C08091DA0182FB22
:1044A000222720F991E0922790FB82F9ECCF0E941D
:1044B000671590910D0181E0892780930D0114C04B
:1044C000895341E050E060E070E08A019B0104C044
:1044D000000F111F221F331F8A95D2F7C901B8019F
:1044E0000E9427190E94671581E006C061E070E014
:1044F00080E090E0F5CF80E01F910F91089580E07B
:10450000089580E00895CF93C82F8091EA0181300B
:1045100079F018F08230E9F187C0E0910E01F09156
:104520000F018081813169F0823209F07FC009C0BA
:10453000E0910E01F0910F018081813111F0823202
:1045400061F48C2F0E947F22811104C08C2F0E9465
:10455000C0211DC081E090E01AC08C2F0E948122F2
:10456000811114C0C43179F048F4CB3079F0C031F6
:1045700009F060C082E08093EA0108C0C93219F0F6
:10458000C83321F057C01092EA0154C081E0817015
:1045900053C0C93289F118F5C43171F1A8F4C7309C
:1045A00009F046C08AE08093150194E190931401CC
:1045B00093E0909313018093120188E0809311019E
:1045C00088E28093100134C0CE51C63088F5EC2FBC
:1045D000F0E0E65DFE4F80818093E90129C0CE3492
:1045E000E9F020F4CB3421F56AE013C0C13579F04D
:1045F000C235F1F461E00DC08091E901882319F022
:104600001092E90115C081E08093EA0115C061E0D4
:1046100006C08091E9010E94FA200AC06AE08091F8
:10462000E9010E94702104C01092EA0180E004C0F8
:1046300081E002C080E0ABCFCF91089504D06894B0
:10464000B1118DC0089570D088F09F5790F0B92FA8
:104650009927B751A0F0D1F0660F771F881F991FD7
:104660001AF0BA95C9F712C0B13081F077D0B1E035
:10467000089574C0672F782F8827B85F39F0B93F45
:10468000CCF3869577956795B395D9F73EF49095D9
:104690008095709561957F4F8F4F9F4F0895E89457
:1046A00009C097FB3EF490958095709561957F4F7A
:1046B0008F4F9F4F9923A9F0F92F96E9BB27939528
:1046C000F695879577956795B795F111F8CFFAF438
:1046D000BB0F11F460FF1BC06F5F7F4F8F4F9F4F69
:1046E00016C0882311F096E911C0772321F09EE8C7
:1046F000872F762F05C0662371F096E8862F70E02D
:1047000060E02AF09A95660F771F881FDAF7880F06
:104710009695879597F9089557FD9058440F551F22
:1047200059F05F3F71F04795880F97FB991F61F033
:104730009F3F79F087950895121613061406551FAA
:10474000F2CF4695F1DF08C0161617061806991F16
:10475000F1CF86957105610508940895E894BB270B
:1047600066277727CB0197F908950BD078C069D0D9
:1047700028F06ED018F0952309F05AC05FC01124BC
:10478000EECFCADFA0F3959FD1F3950F50E0551FF0
:10479000629FF001729FBB27F00DB11D639FAA2796
:1047A000F00DB11DAA1F649F6627B00DA11D661FE5
:1047B000829F2227B00DA11D621F739FB00DA11D06
:1047C000621F839FA00D611D221F749F3327A00DC0
:1047D000611D231F849F600D211D822F762F6A2F5C
:1047E00011249F5750408AF0E1F088234AF0EE0FE1
:1047F000FF1FBB1F661F771F881F91505040A9F7EE
:104800009E3F510570F014C0AACF5F3FECF3983E75
:10481000DCF3869577956795B795F795E7959F5F54
:10482000C1F7FE2B880F911D9695879597F90895EE
:1048300097F99F6780E870E060E008959FEF80EC53
:10484000089500240A9416161706180609060895F6
:1048500000240A9412161306140605060895092E5C
:104860000394000C11F4882352F0BB0F40F4BF2BCB
:1048700011F460FF04C06F5F7F4F8F4F9F4F08950B
:1048800097FB072E16F4009407D077FD09D00E94FD
:104890005A2407FC05D03EF4909581959F4F0895CA
:1048A000709561957F4F0895EE0FFF1F0590F4916D
:1048B000E02D0994AA1BBB1B51E107C0AA1FBB1F17
:1048C000A617B70710F0A61BB70B881F991F5A959C
:1048D000A9F780959095BC01CD010895F999FECF77
:1048E00092BD81BDF89A992780B50895A8E1B0E0FE
:1048F00042E050E00C949624262FF999FECF92BD09
:1049000081BDF89A019700B4021639F01FBA20BD94
:104910000FB6F894FA9AF99A0FBE08950196272FC8
:104920000E947D240C947C24DC01CB01FC01F999CC
:10493000FECF06C0F2BDE1BDF89A319600B40D92EB
:0C49400041505040B8F70895F894FFCFA4
:10494C000220D609640A410A0D0AD9090101C701DE
:10495C0028080A03140A404D3639EB059E056805F4
:10496C002F05C204DB04F4040D0501020304050643
:04497C00070809001F
:00000001FF
