:100000000C9434030C9478030C9478030C947803C8
:100010000C9478030C9478030C9478030C94780374
:100020000C9478030C9478030C94920E0C94640F47
:100030000C94C21C0C9478030C9478030C947803F1
:100040000C9478030C9478030C9478030C94780344
:100050000C9478030C942A1D0C9478030C94780368
:100060000C9478030C9478030C9478030C94780324
:100070000C9478030C9478030C9478030C94780314
:100080000C9478030C9478030C9478030C94780304
:100090000C9478030C9478030C9478030C947803F4
:1000A0000C9478030C9478030C947803DB054106D8
:1000B0004106410641064106410641064106410608
:1000C000E705EF05F705FF0506060D061B062206E8
:1000D0002906140630063706D10FF30FE110F30F8F
:1000E000E11038105B10E110B010C310921392139E
:1000F000C113C113F71317144815481522144815D6
:10010000D214D2143915481548154215DF14DF14DE
:10011000DF14DF14DF14DF14DF14DF14DF14DF1447
:10012000DF14DF14DF14DF14DF14DF14F114FE1406
:1001300005150C15161501E30106020602E3000180
:10014000E3011B021B02E30001E30119021902E3B0
:100150000001E1012602260127022702E1012C020B
:100160002C01E1012F022F0130023002E10001E1F8
:10017000012602260127022702E1012C022C012E72
:10018000022E01E10137023702E1012C022C01E1CC
:10019000012F022F0130023002E10001E1012502AE
:1001A0002502E101380238000138023801E1012559
:1001B00002250125022502E10001E1013602360196
:1001C00037023702E100012F022F01300230000117
:1001D000E1012F022F0130023002E10001E101268E
:1001E00002260127022702E100012E022E01E10171
:1001F00037023702E10001510251014A024A012847
:100200000228015202520001520252014D024D01D8
:10021000280228000000F0A129002B00E300E100E3
:10022000E00000001E00140004001D71E2000352F3
:100230001F001A0016001B00E3002C00200008001D
:10024000070006006C00015221001500090019008A
:100250006D000D0C220017000A000500000015308B
:10026000350034000000340200000F0C25022E027D
:1002700000002E000000A90023001C000B0011004C
:1002800000002800240018000D0010005000AA00F3
:1002900025000C000E00360052000252260012000B
:1002A0000F0037005100035227001300334238710A
:1002B0004F0001522A0031002D00E5002D02000000
:1002C0000100010001000100010000001E024A00BF
:1002D00050084D00010001001F024B0050000100BA
:1002E0000100010020025200510001000100010044
:1002F00021024E004F000100010001002202010016
:100300004F08010000000100010001000000010091
:100310000000010001003102000024020000010081
:10032000230225022E0227000000010024022400DF
:1003300021001E00270001002502250022001F00C9
:1003400022020100260226002300200037000100BF
:100350002702010033020100010001000100010039
:100360000100010001000000010001000100010086
:10037000010000003A004A02500A4D02010001004B
:100380003B004B0250020100010001003C00520200
:1003900051020100010001003D004E024F02010028
:1003A000010001003E0001004F0A010000000100B1
:1003B0000100010000000100000001000100310205
:1003C00000002402000001003F0001006A006B00F1
:1003D00000000100400001002A0028020100010085
:1003E00041000A3028000B300100010042000100EA
:1003F0004C0028020100010043000100010001003F
:10040000010001004400450001000100010000005E
:1004100000500100FD00010001000000010001008A
:10042000FD000100010001000100F400F200F900EC
:100430000100FD000100F000F100F6000100FD00E8
:100440000100F500F300FA00010001000100F500D1
:10045000F4000100000001000100F9000000FA00B2
:100460000000010001003102000024020000010030
:10047000230225026A006B000000010024020C30F8
:100480000D300F3001000100250212300E30133004
:100490000100010026022F022F0036020100010098
:1004A0002702300230003702010001000100010084
:1004B0000100010001000000160345007200670002
:1004C0006F0044006F007800200045005A000000D3
:1004D00016034500720067006F0044006F0078004B
:1004E000200045005A0000000403090409026D00C1
:1004F000040100A0FA090400000103010100092120
:10050000110100012240000705810308000A0904C7
:1005100001000103010200092111010001224D0027
:100520000705820308000A09040200010300000015
:100530000921110100012236000705830308000A82
:100540000904030001030000000921110100012238
:10055000390007058403100001120110010000009A
:1005600008EDFE071301000102000105010906A1C3
:1005700001050719E029E715002501950875018196
:100580000205081901290595057501910295017566
:100590000391010507190029771500250195787544
:1005A000018102C005010980A10185021601002612
:1005B000B7001A01002AB700751095018100C00527
:1005C0000C0901A1018503160100269C021A0100F5
:1005D0002A9C02751095018100C005010902A10144
:1005E0000901A10005091901290515002501950535
:1005F00075018102950175038101050109300931F9
:100600001581257F95027508810609381581257F9A
:10061000950175088106050C0A38021581257F951C
:100620000175088106C0C005010906A10105071969
:10063000E029E715002501950875018102950175EE
:100640000881010508190129059505750191029593
:1006500001750391010507190029FF150026FF0008
:10066000950675088100C00011241FBECFEFDAE0A7
:10067000DEBFCDBF04B603FE24C08091FB01909184
:10068000FC01A091FD01B091FE018730904BA74085
:10069000B04BB9F41092FB011092FC011092FD01D5
:1006A0001092FE0114BE84B7877F84BF88E10FB625
:1006B000F89480936000109260000FBEE0E0FFE3CA
:1006C000099511E0A0E0B1E0E4EEF9E402C0059084
:1006D0000D92A433B107D9F711E0A4E3B1E001C052
:1006E0001D92AB3FB107E1F70E94DC0B0C94F024A4
:1006F0000C9400001092B9008AE08093B80008952D
:1007000094EA9093BC009091BC0097FFFCCF90912D
:10071000B900987F983021F0903111F081E0089570
:100720008093BB0084E88093BC008091BC0087FF6D
:10073000FCCF8091B900887F883111F0803471F747
:1007400080E0089584E98093BC008091BC0084FD22
:10075000FCCF08958093BB0084E88093BC00809117
:10076000BC0087FFFCCF9091B900987F81E0983260
:1007700009F480E0089584E88093BC008091BC0077
:1007800087FFFCCF8091BB0008958091010181110A
:1007900015C080E40E9480038093010181110CC088
:1007A00082E10E94AA0380930101811105C08FEFAD
:1007B0000E94AA03809301010E94A20384B1807F5A
:1007C00084B985B1807F85B98AB1837F8AB98BB1BD
:1007D000837F8BB93E98469808950E948005809348
:1007E00001010E94C50380B38C7080BB81B3836F0D
:1007F00081BBA5E3B1E0E3E4F1E08EE08E0F11925E
:100800001D928E13FCCF0C946A05BF92CF92DF929B
:10081000EF92FF920F931F93CF93DF93809101018B
:10082000882379F0809134018F5F809334018111A6
:1008300008C00E94800580930101811102C00E94BE
:10084000120505E311E0C0E0D0E0DD24D39482E09E
:10085000C82EEE24E394F12CC730D10500F5809129
:100860000101811164C080E40E9480038093010132
:10087000811112C082E10E94AA03809301018111BB
:100880000BC0C7010C2E01C0880F0A94EAF78095AF
:100890000E94AA03809301010E94A20348C0CA30AB
:1008A000A1F028F4C83059F0C93061F005C0CC304F
:1008B00089F070F0CD3089F0209A289810C0219AE4
:1008C00029980DC0229A2A980AC0239A2B9807C00B
:1008D000529A01C0539A5B9802C03E9A469890EA99
:1008E0009A95F1F79FB1799902C082E001C080E04A
:1008F00091709D25982B7C9902C084E001C080E016
:10090000892B7D9902C038E001C030E0832B7E99AD
:1009100002C020E101C020E0822B9FB19095991F79
:100920009927991F9295990F907E892B0FC08091DE
:100930000101811149C080E40E948003809301017C
:10094000882379F1B12C0E94A2038B2DF8019081AC
:10095000981719F08083C09200010E94C503219668
:100960000F5F1F4FCE30D10509F076CF8091000187
:10097000882361F1815080930001882339F08FE949
:100980009FE00197F1F700C0000020C0A3E4B1E0B0
:10099000E5E3F1E0CF01825F91919D938E13FCCF4F
:1009A00015C083E10E94AA03809301018111CACF7F
:1009B00081E40E948003809301018111C3CF0E94D2
:1009C000BB03B82EB094BFCF80E0C0CF0E9410050B
:1009D00081E0DF91CF911F910F91FF90EF90DF9019
:1009E000CF90BF900895E82FF0E0ED5BFE4F80813F
:1009F000089508950F931F93CF93DF93C3E4D1E03D
:100A000010E00C2F025F899190E00E94271C180FC4
:100A10000C13F9CF812FDF91CF911F910F91089582
:100A20000C94600656985E9825982D9826982E98D6
:100A300027982F988FEF90E09093890080938800FB
:100A400090938B0080938A0090938D0080938C000C
:100A5000259A2D9A2FEF80E792E021508040904018
:100A6000E1F700C00000269A2E9A2FEF80E792E06F
:100A7000215080409040E1F700C00000279A2F9A53
:100A80002FEF80E792E0215080409040E1F700C0D6
:100A9000000025982D982FEF80E792E021508040AC
:100AA0009040E1F700C0000026982E982FEF80E7D5
:100AB00092E0215080409040E1F700C0000027986C
:100AC0002F9856985E9825982D9826982E982798B6
:100AD0002F98089589EA8093800089E080938100AF
:100AE00024982C983F988AB18F748AB96E98479A47
:100AF0008BB1806B8BB9769A0E9412050C945F06BD
:100B000080E2809301018091510181110EC00E9409
:100B10007A0381E0809351012FEF83ED90E3215020
:100B200080409040E1F700C0000080E40E94800314
:100B30008093010181112EC00E94AA0380930101BC
:100B4000811128C00E94AA0380930101811122C053
:100B50008FE30E94AA038093010181111BC00E94B0
:100B6000A20380E40E94800380930101811112C0DE
:100B70008CE00E94AA038093010181110BC00E94A6
:100B8000AA0380930101811105C08FE30E94AA038B
:100B9000809301010E94A203809101010895462FD4
:100BA00050E04631510508F06CC0DC01FA01EA5A08
:100BB000FF4F0C94A02412968C91882321F085EE8F
:100BC0000E9436125EC085EE0E94FE125AC0129636
:100BD0008C91882309F455C087E092E0089512961D
:100BE0008C91882309F44DC086EF91E00895129608
:100BF0008C91882309F445C089EE91E008951296FE
:100C00008C918823F1F18CED91E0089512968C91EE
:100C10008823B9F18FEC91E0089512968C91882386
:100C200081F186EC91E0089512968C91882349F128
:100C300089EB91E0089512968C91882311F188EA4E
:100C400091E0089512968C918823D9F08BE991E078
:100C5000089512968C918823A1F08EE691E0089574
:100C600012968C91882369F081E591E0089512969F
:100C70008C91882349F00E94F41C90935301809337
:100C8000520180E090E008958091520190915301CB
:100C90000E94001D8639910564F080915201909167
:100CA00053010E94001D8139914034F486E391E0A4
:100CB000089588E491E008958FE391E00895089500
:100CC0006091BF017091C0018091C1019091C201FA
:100CD0000E94331C56985E9825982D9826982E9839
:100CE00027982F98823039F0833041F0813041F4D9
:100CF000259A2D9A0895269A2E9A0895279A2F9A22
:100D0000089581E0089581E008950C948306089584
:100D10000F931F93CF93DF938C01FC01C081D1818E
:100D2000CE010E94AC1ABE010E943107EC01B8014D
:100D30000E948506882309F48DC0F80182818823EA
:100D400009F44AC080915F0181111FC0C431F0E5F0
:100D5000DF0709F051C00E94870681E080935F01A0
:100D60000E94F41C90935E0180935D0110925601E5
:100D7000109258011092570110925A011092590185
:100D800010925C0110925B0165C080915D019091B1
:100D90005E010E94001D883C910570F4809156010F
:100DA000E82FF0E0EE0FFF1FE95AFE4FD183C0831A
:100DB0008F5F809356014EC0C43880E5D80721F07C
:100DC000C538D04501F13AC0F8018281882341F04D
:100DD0001092540182E01EC0C438E0E5DE0759F5E8
:100DE00080915401811106C086E20E94361286E28B
:100DF0000E94FE1282E01CC0C438F0E5DF0741F318
:100E0000C538D045D9F4F8018281882331F0109299
:100E1000550180E20E944D131DC080915501811142
:100E200006C087E20E94361287E20E94FE1280E22C
:100E30000E9454130FC0C538D04529F381E0809338
:100E4000540180935501C801DF91CF911F910F91FB
:100E50000C94810680E0DF91CF911F910F9108954E
:100E6000089596E0799FF001112494E5899FE00DA3
:100E7000F11D1124E60FF11DEE0FFF1FE85EFD4F7F
:100E8000859194910895880F991FFC01EC56FF4FAE
:100E9000859194910895880F991FFC01EC5EFD4F98
:100EA0008591949108950F931F93CF93DF93EC0155
:100EB0008115904350F5C11580E2D80708F0C3C0F2
:100EC000CB3BD10590F4C83AD10508F06AC0C53AC9
:100ED000D10508F05BC0C430D10508F0D0C121971E
:100EE00009F0CAC101E010E00AC2CF3FD10511F0FC
:100EF00008F0C5C1C03FD10508F0A2C0CE01805E98
:100F00009109089708F4BBC1B7C1C13090E5D90772
:100F100009F4A2C020F5C0318FE4D80770F4C115E0
:100F200090E4D90708F094C0C11521E3D20708F076
:100F3000A3C1DD278E01106CE2C1C115D04509F0B7
:100F40009BC10E94B3158FEF94E32CE08150904039
:100F50002040E1F700C000000E944F1DD0C1C11524
:100F600097E5D90758F4C03121E5D20708F01CC134
:100F7000C43180E5D80708F475C07EC1CE01905712
:100F80008115904108F078C1DF7073C1C53AD10571
:100F900009F477C1C63AD10509F076C102E810E438
:100FA000AEC1C83AD10509F472C1C93AD10509F4F4
:100FB00071C1CA3AD10509F470C1CB3AD10509F41F
:100FC0006FC1CC3AD10509F46EC1CD3AD10509F40F
:100FD0006DC1C03BD10509F46CC1CE3AD10509F40D
:100FE0006BC1CF3AD10509F46AC1C13BD10509F4FF
:100FF00069C1C23BD10509F468C1C33BD10509F4FD
:1010000067C1C43BD10509F466C1C53BD10509F4EC
:1010100065C1C63BD10509F464C1C73BD10509F4DC
:1010200063C1C83BD10509F462C1C93BD10509F4CC
:1010300061C1CA3BD10509F460C100E014E45FC19D
:101040008E0110655CC1CE019F700E944B0758C194
:10105000DF708E01106A53C18091DC018160809342
:10106000DC014DC10E94F41E811102C00E94DA1EF3
:101070000E94111F90E09093FB018093FA01C2300F
:1010800080E5D80721F48091FA01816086C0C430E0
:1010900090E5D90721F48091FA0182607EC0C630C4
:1010A00020E5D20721F48091FA01846076C0C8302F
:1010B00080E5D80719F48091FA0127C0CA3090E57D
:1010C000D90721F48091FA01806167C0CC3020E516
:1010D000D20721F48091FA0180625FC0CE3080E5B2
:1010E000D80721F48091FA01806457C0C03190E59F
:1010F000D90721F48091FA0180684FC0C23120E500
:10110000D20729F48091FA018460886046C0C33018
:1011100080E5D80721F48091FA018E7F3EC0C5306A
:1011200090E5D90721F48091FA018D7F36C0C73050
:1011300020E5D20721F48091FA018B7F2EC0C930BF
:1011400080E5D80719F48091FA0126C0CB3090E5EC
:10115000D90721F48091FA018F7E1FC0CD3020E5A0
:10116000D20721F48091FA018F7D17C0CF3080E53E
:10117000D80721F48091FA018F7B0FC0C13190E52F
:10118000D90721F48091FA018F7707C0C331D04588
:1011900031F48091FA018B7F877F8093FA018091EF
:1011A000FA010E94151FABC08D2F99278F709927C8
:1011B00081309105D9F49E012370332702C0880F36
:1011C000991F2A95E2F79C688E0144E0000F111FD9
:1011D0004A95E1F700271370802B912B53E0CC0F39
:1011E000DD1F5A95E1F7C076DD272FC082309105CB
:1011F00031F4DC2FCC278E01016F106A80C0833060
:10120000910569F4CE018370992701E010E002C0D6
:10121000000F111F8A95E2F7C8019C680FC0843047
:101220009105B9F4CE018370992701E010E002C066
:10123000000F111F8A95E2F7C8019A6823E0CC0FCE
:10124000DD1F2A95E1F7C07ED7708C010C2B1D2B7A
:1012500056C08530910531F4DC2FCC278E01046F08
:10126000106A4DC0069709F04AC0CF71DD27DC2F08
:10127000CC278E01106243C000E010E040C08E0118
:101280003EC001E810E43BC003E810E438C002EEC1
:1012900014E435C009EE14E432C00AEE14E42FC0A1
:1012A00005EB14E42CC006EB14E429C007EB14E4AE
:1012B00026C00CEC14E423C00DEC14E420C003E8B9
:1012C00015E41DC00AE815E41AC002E915E417C0C8
:1012D00004E915E414C001E216E411C003E216E4C7
:1012E0000EC004E216E40BC005E216E408C006E2F4
:1012F00016E405C007E216E402C00AE216E4C801DB
:10130000DF91CF911F910F91089596E0799FF001A1
:10131000112494E5899FE00DF11D1124E60FF11DC4
:10132000EE0FFF1FE85EFD4F85919491803E910581
:10133000E0F4803C910558F58133910509F46FC0C4
:1013400048F48932910509F463C08A32910509F4A1
:101350006DC072C089339105E9F082389105D1F0F2
:101360008533910509F44DC067C0833E910581F135
:1013700038F4803E9105B9F0823E9105D9F05CC009
:10138000863E910561F1873E9105A1F155C00E940D
:10139000430708952091FA0120FD02C021FF4CC0AF
:1013A00080EE90E049C08091FA0180FFF9CF89E397
:1013B00090E042C08091FA0182FF0EC08091FA0154
:1013C00084FF03C080E090E037C083EE90E034C03B
:1013D0008091FA0182FFF2CF82EE90E02DC08091E1
:1013E000FA0183FF0BC08091FA0184FDEBCF87EEF9
:1013F00090E022C08091FA0183FFF5CF86EE90E065
:101400001BC08091FA0185FF07C089E290E014C0FB
:101410008091FA0185FFF9CF85E390E00DC08091BE
:10142000FA0186FF07C08AE290E006C08091FA01C7
:1014300086FFF9CF81E390E00E9453070895089555
:101440000C941F0A809170010895CF93DF9300D010
:101450001F92CDB7DEB79C018091F101843019F560
:1014600093E099833B832A839093E9008FEF9091D7
:10147000E800815095FD06C095ED9A95F1F70000C2
:101480008111F5CF8091E80085FF0DC040E050E06C
:1014900063E070E0CE0101960E94820C8091E8002A
:1014A0008E778093E8000F900F900F90DF91CF918F
:1014B0000895CF93DF9300D01F92CDB7DEB7209170
:1014C000F101243021F522E029839B838A8383E084
:1014D0008093E9008FEF9091E800815095FD06C060
:1014E00095ED9A95F1F700008111F5CF8091E80014
:1014F00085FF0DC040E050E063E070E0CE01019652
:101500000E94820C8091E8008E778093E8000F9013
:101510000F900F90DF91CF9108952091F101243029
:10152000F1F422E02093E9002FEF3091E800215000
:1015300035FD06C035ED3A95F1F700002111F5CFE4
:101540002091E80025FF0BC040E050E065E070E02E
:101550000E94820C8091E8008E778093E8000895C5
:10156000CF93DF93EC019091F101943009F046C0E4
:1015700080910C018823D9F080910D018823B9F066
:101580009093E9008FEF9091E800815095FD06C09F
:1015900095E19A95F1F700008111F5CF8091E8006F
:1015A00085FF2CC040E050E060E170E017C081E0B2
:1015B0008093E9008FEF9091E800815095FD06C07F
:1015C00095ED9A95F1F700008111F5CF8091E80033
:1015D00085FF14C040E050E068E070E0CE010E945A
:1015E000820C8091E8008E778093E80080E1FE0114
:1015F000A0E6B1E001900D928A95E1F7DF91CF91DD
:1016000008958091F001811109C00E94170E0E9477
:10161000740E8091E20084608093E200089510923D
:10162000F0010895089508950C94BC1C42E061EC0B
:1016300081E00E94910D42E061EC82E00E94910DF8
:1016400042E061EC83E00E94910D42E161EC84E0B4
:101650000C94910D8091F301833009F455C030F45E
:10166000813071F0823009F48EC008958A3009F417
:101670007AC08B3009F460C0893009F09CC020C06A
:101680008091F201813A09F096C08091E800877F4D
:101690008093E8008091F6019091F701892B21F465
:1016A00060E180E691E003C060E080E090E070E0FF
:1016B0000E94CD0C8091E8008B778093E80008951C
:1016C0008091F201813209F076C08091F60190910B
:1016D000F701009719F0039709F06DC08091E800B9
:1016E000877F8093E8008091E80082FD05C08091AB
:1016F000F1018111F8CF5FC08091F10080937001FA
:101700008091E8008B7753C08091F201813A09F013
:1017100052C08091F6019091F701892B09F04BC0DE
:101720008091E800877F8093E8008091E80080FF47
:10173000FCCF80910C0136C08091F2018132D9F545
:101740008091F6019091F701892BA9F58091E8002D
:10175000877F8093E8000E94C60D8091F4018093FA
:101760000C010C94B3158091F201813221F5809126
:10177000E800877F8093E8000E94C60D8091F50104
:101780008093710108958091F201813AA1F48091D2
:10179000E800877F8093E8008091E80080FFFCCF1D
:1017A000809171018093F1008091E8008E778093A1
:1017B000E8000C94C60D089584B7877F84BF88E144
:1017C0000FB6F89480936000109260000FBE80E81E
:1017D00080936100109261000E9469110E94170EAF
:1017E0000E94740E8091E20084608093E2007894FD
:1017F0000E94FA100E946B1182E091E00E94151184
:101800008091F101853069F40E94831C8091EF0181
:101810008823B1F30E94AE1C882391F30E946C0CC4
:10182000EFCF0E947111ECCF292F332723303105E0
:10183000C9F064F42130310581F02230310509F01E
:1018400043C08DE690E02CEE34E042C021323105F9
:10185000F1F02232310541F137C082E190E029E513
:1018600035E036C099278130910541F082309105ED
:1018700041F0892B49F5E8EEF4E005C0E0EDF4E035
:1018800002C0E8EBF4E0849190E09F0121C0643055
:10189000D8F4E62FF0E0EE0FFF1FEE5DFE4F208143
:1018A000318189E090E014C0643070F470E0FB0195
:1018B000EE0FFF1FE65EFE4F20813181FB01EA5EE5
:1018C000FE4F808190E004C080E090E020E030E0B6
:1018D000FA0131832083089580E189BD82E189BDC9
:1018E00009B400FEFDCF8091D8008F7D8093D80091
:1018F0008091E00082608093E0008091E00081FDB3
:10190000FCCF0895CF92DF92EF92FF920F931F9337
:10191000CF93DF93EC018B016A010E94E50D8111E9
:1019200033C0C114D10439F0F60180819181081BC4
:10193000190BC80FD91FE12CF12C0115110519F154
:101940008091E80085FD16C08091E8008E77809335
:10195000E800C114D10449F0F60180819181E80EBC
:10196000F91EF182E08285E00FC00E94E50D882318
:1019700021F30AC089918093F10001501109FFEF12
:10198000EF1AFF0ADACF80E0DF91CF911F910F911C
:10199000FF90EF90DF90CF9008952091F801309163
:1019A000F9012617370748F06115710539F42091C0
:1019B000E8002E772093E80001C0B90140E06115EE
:1019C0007105A9F12091F101222309F443C02530CA
:1019D00009F442C02091E80023FD40C02091E800B6
:1019E00022FD32C02091E80020FFE9CF4091F300B2
:1019F0002091F20030E0342BFC01CF01611571051C
:101A000059F02830310540F481918093F100615004
:101A100071092F5F3F4FF1CF41E02830310509F0C8
:101A200040E02091E8002E772093E800C8CF4111D4
:101A3000C9CF0AC08091F101882361F0853061F03F
:101A40008091E80083FD0AC08091E80082FFF2CF18
:101A500080E0089582E0089583E0089581E008958C
:101A60002091F8013091F9012617370748F06115E8
:101A7000710539F42091E8002E772093E80001C029
:101A8000B901FC0120E06115710591F18091F1012E
:101A9000882309F440C0853009F43FC08091E800F4
:101AA00083FD3DC08091E80082FD2FC08091E80059
:101AB00080FFE9CF2091F3008091F20090E0922B1B
:101AC0006115710559F08830910540F424912093F7
:101AD000F1003196615071090196F2CF21E008972B
:101AE00009F020E08091E8008E778093E800CBCF6A
:101AF0002111CCCF0AC08091F101882361F085309B
:101B000061F08091E80083FD0AC08091E80082FFC7
:101B1000F2CF80E0089582E0089583E0089581E0A7
:101B20000895982F973058F59093E900981739F059
:101B30007091EC002091ED005091F00003C0242F33
:101B4000762F50E021FF19C03091EB003E7F30939B
:101B5000EB003091ED003D7F3093ED003091EB00D4
:101B600031603093EB007093EC002093ED005093C4
:101B7000F0002091EE0027FF07C09F5FD3CF8F704A
:101B80008093E90081E0089580E008958091F2015A
:101B900087FF11C08091E80082FD05C08091F101AE
:101BA0008111F8CF11C08091E8008B770BC0809134
:101BB000F101882349F08091E80080FFF8CF8091FF
:101BC000E8008E778093E80008952091E40030913A
:101BD000E50095E64091EC00842F817040FF22C023
:101BE0008091E80080FD1CC08091F101882391F074
:101BF000853091F08091EB0085FD10C04091E400AC
:101C00005091E5004217530729F39A01915011F7BB
:101C100084E0089582E0089583E0089581E00895C6
:101C200080E008954091E80042FFDECF08950E94D1
:101C3000850E0E948D0EE0EEF0E080818160808351
:101C4000E8EDF0E080818F77808319BCA7EDB0E0EC
:101C50008C918E7F8C9380818F7E80831092F00197
:101C600008950F931F93CF93DF930E94850E0E94D8
:101C70008D0EC8EDD0E088818F7788838881806859
:101C8000888388818F7D888319BC1092F10110921E
:101C9000ED011092EF011092EE0100EE10E0F8015C
:101CA00080818B7F808388818160888342E060E0CF
:101CB00080E00E94910DE1EEF0E080818E7F8083D4
:101CC000E2EEF0E0808181608083808188608083A3
:101CD000F80180818E7F8083888180618883DF9195
:101CE000CF911F910F910895E8EDF0E080818F7EF4
:101CF0008083E7EDF0E080818160808384E082BFB3
:101D000081E08093F0010C94310EE8EDF0E08081E9
:101D10008E7F80831092E20008951092DA00109274
:101D2000E10008951F920F920FB60F9211242F9386
:101D30003F934F935F936F937F938F939F93AF9353
:101D4000BF93EF93FF938091E10082FF0BC08091DE
:101D5000E20082FF07C08091E1008B7F8093E10069
:101D60000E94F9108091DA0080FF1FC08091D80096
:101D700080FF1BC08091DA008E7F8093DA00809113
:101D8000D90080FF0DC080E189BD82E189BD09B421
:101D900000FEFDCF81E08093F1010E94010B05C0A0
:101DA00019BC1092F1010E940F0B8091E10080FF9D
:101DB00019C08091E20080FF15C08091E2008E7F03
:101DC0008093E2008091E20080618093E200809144
:101DD000D80080628093D80019BC85E08093F1011F
:101DE0000E94130B8091E10084FF30C08091E200DB
:101DF00084FF2CC080E189BD82E189BD09B400FE69
:101E0000FDCF8091D8008F7D8093D8008091E10034
:101E10008F7E8093E1008091E2008F7E8093E200CC
:101E20008091E20081608093E2008091ED0188233F
:101E300011F084E007C08091E30087FD02C081E0DB
:101E400001C083E08093F1010E94140B8091E100B6
:101E500083FF29C08091E20083FF25C08091E100CB
:101E6000877F8093E10082E08093F1011092ED0181
:101E70008091E1008E7F8093E1008091E2008E7F6F
:101E80008093E2008091E20080618093E20042E072
:101E900060E080E00E94910D8091F0008860809366
:101EA000F0000E94120BFF91EF91BF91AF919F91B3
:101EB0008F917F916F915F914F913F912F910F90F3
:101EC0000FBE0F901F9018951F920F920FB60F9292
:101ED00011242F933F934F935F936F937F938F932F
:101EE0009F93AF93BF93CF93DF93EF93FF93C091F3
:101EF000E900CF708091EC00D82FD17080FDD0E840
:101F00001092E9008091F000877F8093F000789430
:101F10000E94A80F1092E9008091F00088608093E1
:101F2000F000CD2BCF70C093E900FF91EF91DF91CE
:101F3000CF91BF91AF919F918F917F916F915F9161
:101F40004F913F912F910F900FBE0F901F901895BA
:101F50001F93CF93DF93CDB7DEB7AA970FB6F89450
:101F6000DEBF0FBECDBFE2EFF1E088E08E0F9091B3
:101F7000F10091938E13FBCF0E942A0B8091E80011
:101F800083FF1FC18091F2019091F301492F50E02E
:101F90004A30510508F015C1FA01E459FF4F0C947D
:101FA000A024803881F0823809F00BC18091F601BD
:101FB0008F708093E9008091EB0085FB882780F982
:101FC0001092E90006C08091EE019091EF0191110D
:101FD00082609091E800977F9093E8008093F100F1
:101FE0001092F100C8C0282F2D7F09F0EAC0882385
:101FF00019F0823061F0E5C08091F401813009F080
:10200000E0C0933009F080E08093EF012BC0809115
:10201000F401811127C08091F6018F7009F4D1C0BD
:102020008093E9002091EB0020FF1CC0933021F445
:102030008091EB00806214C09091EB0090619093CE
:10204000EB0021E030E0A90102C0440F551F8A9542
:10205000E2F74093EA001092EA008091EB0088607A
:102060008093EB001092E9008091E800877F86C0A2
:102070008111A7C01091F4011F778091E30080784F
:10208000812B8093E3008091E800877F8093E800B4
:102090000E94C60D8091E80080FFFCCF8091E30094
:1020A00080688093E300111102C082E001C083E0E8
:1020B0008093F10186C08058823008F082C0809100
:1020C000F4019091F5018C3D53E0950779F583E09B
:1020D0008A838AE289834FB7F894DE01139620E061
:1020E0003EE051E2E32FF0E050935700E49120FFEF
:1020F00003C0E295EF703F5FEF708E2F90E0EA3003
:1021000010F0C79601C0C0968D939D932F5F243128
:1021100049F74FBF8091E800877F8093E8006AE22B
:1021200070E0CE0101960E94CD0C14C0AE014F5F4D
:102130005F4F6091F6010E94140CBC01892B09F4D9
:1021400040C09091E800977F9093E80089819A8140
:102150000E94300D8091E8008B778093E80031C0B9
:10216000803879F58091E800877F8093E80080913E
:10217000ED018093F1008091E8008E778093E80074
:102180000E94C60D1EC081111CC09091F4019230B6
:10219000C0F48091E800877F8093E8009093ED0180
:1021A0000E94C60D8091ED01811106C08091E3006F
:1021B00087FD02C081E001C084E08093F1010E94AC
:1021C000160B8091E80083FF0AC08091E800877FAA
:1021D0008093E8008091EB0080628093EB00AA96E8
:1021E0000FB6F894DEBF0FBECDBFDF91CF911F9128
:1021F00008950895CF938091F1018823A1F0C091B3
:10220000E900CF709091EC00892F817090FD80E8FB
:10221000C82B1092E9008091E80083FD0E94A80F6E
:10222000CF70C093E900CF91089590937701809388
:1022300076010895E0917601F0917701309721F0D1
:102240000190F081E02D099480E00895E0917601FD
:10225000F0917701309721F00280F381E02D09940D
:102260000895E0917601F0917701309721F0048094
:10227000F581E02D09940895209174013091750144
:102280008217930771F09093750180937401E09128
:102290007601F0917701309721F00680F781E02DEB
:1022A0000994089520917201309173018217930768
:1022B00071F09093730180937201E0917601F09137
:1022C0007701309721F00084F185E02D099408957D
:1022D00008950C9468110E94EB1C0E94ED030C946D
:1022E000AD1D9F92AF92BF92CF92DF92EF92FF927D
:1022F0000F931F93CF93DF9300D000D000D0CDB7C2
:10230000DEB70E9405040DE010E0AA24A394B12CCE
:10231000902E802F0E94F304980127583E4F6901A8
:10232000F901F080F826A1F40150110988F78FEF28
:1023300089838A831B820E94F41C8160782F9D838D
:102340008C8349815A816B818D810E9408122FC034
:102350009091DC0191FF04C08E830E94F9048E816C
:1023600025E030E0A501022E01C0440F0A94EAF7EF
:10237000E42E4F21C1F029839A828E2191E009F445
:1023800090E09B830E94F41C8160782F9D838C8356
:1023900049815A816B818D810E940812F6018081EA
:1023A000E826E08204C021503109E0F6BDCF0E944A
:1023B0009420109178010E941A111817B9F00E9408
:1023C0001A118093780126960FB6F894DEBF0FBEDF
:1023D000CDBFDF91CF911F910F91FF90EF90DF90D4
:1023E000CF90BF90AF909F900C94200A26960FB686
:1023F000F894DEBF0FBECDBFDF91CF911F910F913B
:10240000FF90EF90DF90CF90BF90AF909F90089596
:10241000CF93DF93CDB7DEB72B970FB6F894DEBF1F
:102420000FBECDBF4F83588769877A878B87DE01C0
:10243000119686E0FD0111928A95E9F785E0FE018B
:10244000379601900D928A95E1F749815A816B8107
:102450007C818D819E810E9451182B960FB6F89435
:10246000DEBF0FBECDBFDF91CF910895CF938823FC
:1024700009F4C2C0C82F823859F40E941A1181FD94
:10248000BBC089E30E942B1B0E94F81B89E30CC090
:10249000833879F40E941A1180FDAEC083E50E9452
:1024A0002B1B0E94F81B83E50E946D1BCF910C949F
:1024B000F81B843859F40E941A1182FD9DC087E4EC
:1024C0000E942B1B0E94F81B87E4EECF8CEF8C0F31
:1024D000813A48F48C2F0E94CF2281118DC08C2F1D
:1024E0000E942B1BE3CF80E28C0F883048F4C7702A
:1024F00081E001C0880FCA95EAF70E94B11BD6CFD0
:102500008BE58C0F833078F4C53A29F0C63A31F068
:1025100083E890E005C081E890E002C082E890E0A6
:10252000CF910C943C1188E58C0F833108F064C086
:10253000C83A39F1C93A41F1CA3A49F1CB3A51F1B5
:10254000CC3A59F1CD3A61F1C03B69F1CE3A71F123
:10255000CF3A79F1C13B81F1C23B89F1C33B91F1A3
:10256000C43B99F1C53BA1F1C63BA9F1C73BB1F111
:10257000C83BB9F1C93BC1F1CA3BC9F180E090E069
:1025800038C082EE90E035C089EE90E032C08AEE2D
:1025900090E02FC085EB90E02CC086EB90E029C046
:1025A00087EB90E026C08CEC90E023C08DEC90E0AF
:1025B00020C083E891E01DC08AE891E01AC082E95A
:1025C00091E017C084E991E014C081E292E011C06B
:1025D00083E292E00EC084E292E00BC085E292E0DA
:1025E00008C086E292E005C087E292E002C08AE27B
:1025F00092E0CF910C945211CF910895882309F461
:102600004BC0823859F40E941A1181FF45C089E3FA
:102610000E942B1B0E94F81B89E30CC0833871F4C5
:102620000E941A1180FF38C083E50E942B1B0E9474
:10263000F81B83E50E946D1B0C94F81B843859F439
:102640000E941A1182FF28C087E40E942B1B0E945F
:10265000F81B87E4EFCF9CEF980F913A58F390E284
:10266000980F983050F4877091E001C0990F8A95C7
:10267000EAF7892F0E94B71BDFCF9BE5980F9330B5
:1026800020F480E090E00C943C11885A833120F4CF
:1026900080E090E00C9452110895882321F00E946C
:1026A000B11B0C94F81B0895882321F00E94B71BDE
:1026B0000C94F81B08957F928F929F92AF92BF92D5
:1026C000CF92DF92EF92FF920F931F93CF93DF93FE
:1026D0001F92CDB7DEB77C01C62E772EFC01058197
:1026E00002950F70128111110E94CE1B0E94241BB3
:1026F000882379F0112369F080E28C0D883048F04E
:1027000082E00E940D1B0E94241B91E0D82ED92646
:1027100001C0D12CE72DE295EF70F0E0EA58FF4FB1
:102720000C94A024872D807F072D0F70882311F033
:102730000295007F112389F0002309F490C180E203
:102740008C0D883020F4802F0E94B11B03C0802F95
:102750000E94C11B0E94F81B82C18C2D0E94FE1298
:10276000002309F495C180E28C0D883020F4802F7D
:102770000E94B71B03C0802F0E94C71B0E94F81B3A
:1027800087C1972D907F872D8F70903211F08295A1
:10279000807FCC2021F0F1E0CF16B1F01EC01123D4
:1027A00049F0002309F414C1013009F011C10E945D
:1027B000E11B6EC1002319F0013009F469C189835E
:1027C0000E94E41B89810AC1112321F0023008F024
:1027D0005FC1FEC001115CC101C1112321F00023C2
:1027E00009F4F6C03CC1002309F4F8C03EC1872DAE
:1027F00086958695837090E0009719F0019761F0B7
:1028000047C1112321F08C2D972D937002C080E0D9
:1028100090E00E943C113CC1112321F08C2D972D9A
:10282000937002C080E090E00E94521131C18C2D63
:10283000112319F00E949C1F02C00E9404200E94D4
:10284000892026C1872D837009F052C0111120C143
:102850008C2D829586958770880F880F9C2D9F7090
:10286000892E912CA12CB12C082E04C0880C991C07
:10287000AA1CBB1C0A94D2F7C4FE14C00FE010E0DF
:1028800020E030E0B901A80104C0440F551F661FC5
:10289000771F8A95D2F7CB01BA0160957095809524
:1028A000909503C060E070E0CB01272D269526951A
:1028B000237030E02230310569F02330310589F092
:1028C000682979298A299B292130310571F00E94D4
:1028D0009919DEC0682979298A299B290E94B5198E
:1028E000D7C00E949919C501B4010E947D19D0C0BA
:1028F000112319F0872D817001C08695882309F472
:10290000C7C08C2D829586958770880F880F9C2D67
:102910009F70892E912CA12CB12C082E04C0880CFC
:10292000991CAA1CBB1C0A94D2F7C4FE14C00FE069
:1029300010E020E030E0B901A80104C0440F551FA9
:10294000661F771F8A95D2F7CB01BA016095709503
:102950008095909503C060E070E0CB01272D26950F
:1029600026952370422F50E04230510569F04330E4
:10297000510589F0682979298A299B294130510517
:1029800071F00E94731A84C0682979298A299B29C9
:102990000E948F1A7DC00E94731AC501B4010E9463
:1029A000571A76C08C2D90E0FC01E05EF109E5310C
:1029B000F10508F050C0EA57FF4F0C94A0240C2DED
:1029C0000F70872D8F71112331F00E94F019802F25
:1029D0000E944D135DC00E94111A802F0E94541353
:1029E00057C0112339F0011153C0872D8F710E94F8
:1029F000361A4EC0023008F04BC0F7CF112339F021
:102A0000872D8F710E94F01943C01123C9F3872DC0
:102A10008F710E94111A3CC0112329F0872D8F71EC
:102A20000E94DB1935C00E94D11932C0112351F028
:102A3000172D1F71812F0E94F01963E0812F0E94D2
:102A4000041B26C081E00E940D1B023008F182E0C9
:102A50000E940D1B1DC0112331F0002389F28C2D23
:102A60000E94361215C0002391F28C2D0E94FE1296
:102A70000FC0472D4F706C2DC7010E94CF050E94DB
:102A8000F51806C0472D4F706C2DC7010E94300706
:102A9000DD20F9F00E94001B80FD1BC0F7011282AF
:102AA0000E94FA1A0E94F019C7010E9478150E942C
:102AB000FA1A0F90DF91CF911F910F91FF90EF9035
:102AC000DF90CF90BF90AF909F908F907F900C94AD
:102AD000111A0F90DF91CF911F910F91FF90EF90FE
:102AE000DF90CF90BF90AF909F908F907F90089590
:102AF0000F931F93CF93DF93EC01888199812B81F2
:102B00003C81232BB9F09F3F11F48F3F99F0CE0108
:102B10000E948806882371F0688179818A810E94E9
:102B2000F61A8C010E94AB1A0E947219B801CE01EC
:102B30000E945B13DF91CF911F910F9108950E9426
:102B4000CE1B0E94DE1B0E94A31B0E94F81B0E944A
:102B50003A210E94892080E090E00E943C1180E0B0
:102B600090E00C9452110E94BE1B0C949F150E9481
:102B7000EB1A292F22952F7030E02C3031054CF4C0
:102B80002A3031056CF42250310922303105A8F485
:102B900007C02C30310569F02F30310551F00DC0E0
:102BA000803F69F018F4803E40F409C0843F29F466
:102BB00006C093FB882780F9089580E0089581E09E
:102BC0000895CF93DF9300D000D01F92CDB7DEB72A
:102BD0000F900F900F900F900F90DF91CF9108956D
:102BE000CF93DF9300D000D000D0CDB7DEB72696CC
:102BF0000FB6F894DEBF0FBECDBFDF91CF91089521
:102C00001F93CF93DF93C091870116E080918801D5
:102C1000C81799F0D0E01C9FF0011D9FF00D112402
:102C2000E757FE4F40815181628173818481958194
:102C30000E94F0152196C770E9CFDF91CF911F91C7
:102C400008954091B9015091BA016091BB01709112
:102C5000BC018091BD019091BE010C94F015809152
:102C6000BE0182958F7009F054C08091BB0188230A
:102C700009F44FC080918701A09188016091B9014A
:102C80007091BA014091BC015091BD01B6E08A1724
:102C900009F43FC090E041155105C1F17F3F11F4A7
:102CA0006F3FA1F1B89FF001B99FF00D1124E757D4
:102CB000FE4F218172132AC02081621327C0228116
:102CC000211124C0238134812417350710F42150A9
:102CD0003109241B350B283C3105C0F42091BE017D
:102CE0002F7020612093BE0126E0289FF001299FCC
:102CF000F00D1124E257FE4F80818F708061808338
:102D000089EB91E00E9478150C940016019687706B
:102D1000BECF0895CF92DF92EF92FF920F931F9351
:102D2000CF93DF93CDB7DEB762970FB6F894DEBFCF
:102D30000FBECDBF8C0185E0F801DE011D9601902C
:102D40000D928A95E1F7D8014C9111965C911197FB
:102D500012966C9112971396CD90DC901497309147
:102D6000B9017091BA018091BC019091BD010097A9
:102D700009F46BC17F3F19F43F3F09F466C1E0904D
:102D8000BB01EE2009F4C0C02091BE01C816D906CF
:102D900028F0F601E81BF90BCF0104C0809590954F
:102DA0008C0D9D1DFF24F394883C910578F0F12C47
:102DB000207F09F0C6C07C2DD98AC88A89890E94E3
:102DC000E11589EB91E00E947815B1C0822F807FD8
:102DD00009F046C0751314C0341312C0611110C03D
:102DE0002F7020612093BE010E94211689EB91E093
:102DF0000E9478158091BE01D80115968C932EC043
:102E0000CD2819F15F3F11F44F3FF9F0F62E611113
:102E10001CC0809187012091880136E0821709F457
:102E20005AC090E0389FF001399FF00D1124E75708
:102E3000FE4F7181571306C07081471303C0728122
:102E4000711103C001968770E9CFF62E662309F44D
:102E500018C18091BE0181608093BE01F12C11C127
:102E6000751308C0341306C0611104C08091BE01FF
:102E7000D801C3C04D875E878D859E856A8B0E9471
:102E8000B7156A898823E1F16623D1F12091BE014B
:102E9000822F82958F7090E0029774F08091B90133
:102EA0009091BA0198878F831986DB86CA862C8712
:102EB000CE0107960E94781586E0F801A9EBB1E0F3
:102EC00001900D928A95E1F70E942F160E9421161B
:102ED000FF24F394D6C04D875E878D859E850E9422
:102EE000EB1A292F22952F7030E0223031050CF09B
:102EF000BCC09F7009F0B6C0805E883008F4C1C0C5
:102F0000C8010E947815E4CFC816D90608F453C04A
:102F1000F601E81BF90BCF01883C910508F450C07D
:102F2000F12C7C2DD98AC88A89890E94E115E9EBA8
:102F3000F1E086E0DF011D928A95E9F70E942116F3
:102F4000A0C0751314C0341312C0611110C0809159
:102F5000BE01F8018583C8010E94781586E0E9EB7F
:102F6000F1E0DF011D928A95E9F7FE2C8AC04D87BA
:102F70005E878D859E856A8B0E94B7156A89882336
:102F800009F4BECF662309F4BBCF2091BE01822F86
:102F900082958F7090E002970CF48ECF8091B901EA
:102FA0009091BA019A8389831B82DD82CC822E8321
:102FB000CE0101967FCF809590958C0D9D1DACCF55
:102FC000F62E662309F49CCF75132EC034132CC043
:102FD0002091BE0120FD1FC0822F82958F70D9F0F5
:102FE000D80115962C9315978F3049F08F5F982F45
:102FF0009295907F822F8F70892B15968C93C801A4
:103000000E94781586E0F801A9EBB1E001900D92DD
:103010008A95E1F793CF86E0F801A9EBB1E0019042
:103020000D928A95E1F72DC04D875E878D859E852F
:103030000E94B715811140CF8091BE0181608093BD
:10304000BE01C8010E9478151CC0662309F458CF40
:103050004D875E878D859E850E94B715882309F46C
:103060004FCF2ACF811148CF0CC0243031050CF04E
:1030700047CF9F7009F440CFF8019581907F09F008
:103080003BCF8F2D62960FB6F894DEBF0FBECDBF3B
:10309000DF91CF911F910F91FF90EF90DF90CF9034
:1030A00008951F93CF93DF93CDB7DEB72C970FB65C
:1030B000F894DEBF0FBECDBF4F83588769877A87EC
:1030C0008B879C87CE0107960E948A16882369F019
:1030D0008F8198852A853B85232BF1F19F3F09F04D
:1030E00063C08F3F09F060C037C086E0FE013796AD
:1030F000DE01119601900D928A95E1F76F81788536
:10310000EA85FB85309741F17F3F11F46F3F21F154
:103110002091880130E0C90101968770992740917C
:10312000870150E08417950709F447C069837A83C3
:10313000FD83EC8396E0929FD001939FB00D112404
:10314000A757BE4FFE01319601900D929A95E1F777
:10315000809388010E94001616E08091870190916B
:1031600088018917C1F1189FC001112487579E4F0C
:103170000E948A16882379F1E09187011E9FF00151
:103180001124E757FE4F4081518162817381848110
:1031900095810E94F0158091870190E001968770DB
:1031A000992780938701D9CF4F81588569857A8582
:1031B0008B859C850E94F015CFCF0E94B31510928D
:1031C000880110928701E9EBF1E086E0DF011D92B2
:1031D0008A95E9F7C1CF2C960FB6F894DEBF0FBEE3
:1031E000CDBFDF91CF911F910895EF92FF920F9382
:1031F0001F93CF93DF938C01892B09F46CC0F12CC2
:10320000EE24E394E8012196F8018491843740F498
:10321000843008F051C0813081F0823019F15BC0F8
:10322000853709F444C0A8F19CE7980F903708F05F
:1032300052C08F770E94FE1241C00E5F1F4FFE01E9
:10324000C49180E28C0F883048F4C7708E2D01C085
:10325000880FCA95EAF70E94D11B14C08C2F0E94D8
:1032600036122DC00E5F1F4FFE01C49180E28C0FFD
:10327000883058F4C7708E2D01C0880FCA95EAF7C0
:103280000E94D71B0E94F81B1AC08C2F0E94FE12AE
:1032900016C00E5F1F4FFE01C491CC2381F08FE951
:1032A0009FE00197F1F700C00000C150F6CF0E5F1C
:1032B0001F4FFE01F49003C00E9436128E018F2D25
:1032C000882309F49FCFEFE9FFE03197F1F700C0C1
:1032D00000008150F5CFDF91CF911F910F91FF90AA
:1032E000EF90089508956093C3017093C401809393
:1032F000C5019093C6010C949F150F931F930091E5
:10330000C3011091C4012091C5013091C601DC01B7
:10331000CB01802B912BA22BB32B8093C3019093D5
:10332000C401A093C501B093C6011F910F910C94E5
:103330009F150F931F930091C3011091C401209119
:10334000C5013091C601DC01CB0180239123A2236A
:10335000B3238093C3019093C401A093C501B0939C
:10336000C6011F910F910C949F150F931F9300910D
:10337000C3011091C4012091C5013091C601DC0147
:10338000CB0180279127A227B3278093C301909375
:10339000C401A093C501B093C6011F910F910C9475
:1033A0009F151092BF011092C0011092C10110929E
:1033B000C2010C949F1541E050E060E070E004C051
:1033C000440F551F661F771F8A95D2F74093BF01A0
:1033D0005093C0016093C1017093C2010C949F157A
:1033E00041E050E060E070E004C0440F551F661FEC
:1033F000771F8A95D2F78091BF019091C001A0916B
:10340000C101B091C201482B592B6A2B7B2B4093F1
:10341000BF015093C0016093C1017093C2010C942D
:103420009F1541E050E060E070E004C0440F551F7C
:10343000661F771F8A95D2F74095509560957095D5
:103440008091BF019091C001A091C101B091C201D2
:10345000482359236A237B234093BF015093C00123
:103460006093C1017093C2010C949F1541E050E03C
:1034700060E070E004C0440F551F661F771F8A95F7
:10348000D2F78091BF019091C001A091C101B0918C
:10349000C201482759276A277B274093BF015093D1
:1034A000C0016093C1017093C2010C949F150F93EA
:1034B0001F930091BF011091C0012091C101309173
:1034C000C201DC01CB01802B912BA22BB32B80936B
:1034D000BF019093C001A093C101B093C2011F919D
:1034E0000F910C949F150F931F930091BF011091A2
:1034F000C0012091C1013091C201DC01CB018023C8
:103500009123A223B3238093BF019093C001A09382
:10351000C101B093C2011F910F910C949F150F939D
:103520001F930091BF011091C0012091C101309102
:10353000C201DC01CB0180279127A227B32780930A
:10354000BF019093C001A093C101B093C2011F912C
:103550000F910C949F150895CF92DF92EF92FF92F6
:103560000F931F93CF93DF938C01C090C301D09032
:10357000C401E090C501F090C6018091BF01909117
:10358000C001A091C101B091C201C82AD92AEA2A7A
:10359000FB2ACFE1D0E0D701C6010C2E04C0B695BE
:1035A000A795979587950A94D2F780FF06C0B80132
:1035B0008C2F0E948509019721F4219760F780E004
:1035C00001C08C2FDF91CF911F910F91FF90EF9051
:1035D000DF90CF900895CF93DF93EC010E94AC1A57
:1035E000BE010E948509DF91CF910895CB010E9411
:1035F000EB1A08958091C701859585958595089565
:103600008091C7018770089598E0899F90011124E7
:10361000262B2093C7010C94F0192091C7018095A7
:1036200082238093C701982F977069F430E0482F68
:10363000552747FD50952417350729F08595859521
:1036400085950C94111A08959091C701977081E0A7
:1036500009F480E0089590910C01992321F0909154
:103660000D01911109C020910E0130910F01F90156
:1036700032969FEF40E01FC0982F969596959695AD
:103680009F3050F5E0910E01F0910F01E90FF11D0F
:10369000877021E030E0A90102C0440F551F8A95D0
:1036A000E2F7CA019181892B818308959F3F39F008
:1036B0004F5F4E3041F051915813F8CF0DC051116A
:1036C000F7CF942FF5CF9F3F39F0F901E90FF11DA6
:1036D00097FDFA9582830895089590910C0199239E
:1036E00021F090910D01911109C020910E013091AE
:1036F0000F01F9013296205F3F4F1FC0982F96951A
:10370000969596959F30F0F4E0910E01F0910F019F
:10371000E90FF11D877021E030E0A90102C0440FDC
:10372000551F8A95E2F7CA0180959181892381838B
:1037300008953196E217F30729F090819813F9CF95
:103740001082F7CF089581E090E0E0910E01F091B2
:103750000F01E80FF91F1082019680319105A9F73A
:1037600008959091DB01892B8093DB01089580956A
:103770009091DB0189238093DB0108951092DB0196
:1037800008959091DA01892B8093DA01089580954C
:103790009091DA0189238093DA0108951092DA0179
:1037A00008959091D901892B8093D901089580952E
:1037B0009091D90189238093D90108951092D9015C
:1037C00008958093C80108951092C80108958091CA
:1037D0000E0190910F01FC0131969C01205F3F4F3B
:1037E00080E0919191118F5FE217F307D1F708956F
:1037F000E0910E01F0910F018091DB018083E09157
:103800000E01F0910F0190818091DA01892B808364
:10381000E0910E01F0910F0190818091D901892BE7
:1038200080838091C801882361F0E0910E01F091BE
:103830000F019081892B80830E94E71B81111092D8
:10384000C80180910E0190910F010C94261120E087
:10385000009739F0AC0141505109842395232F5F23
:10386000F7CF822F0895CF92DF92EF92FF926C01F3
:10387000EE24FF24C114D104E104F10421F0C701B6
:10388000B60120E101C020E0C72ED82EE92EFF248A
:10389000C114D104E104F10419F0285FC701B60195
:1038A0006B017C0154E0F694E794D794C7945A9541
:1038B000D1F7C114D104E104F10419F02C5FC70160
:1038C000B6016B017C0142E0F694E794D794C7946B
:1038D0004A95D1F7C114D104E104F10419F02E5F27
:1038E000C701B601DC01CB01B695A79597958795E1
:1038F000892B8A2B8B2B09F02F5F822FFF90EF9063
:10390000DF90CF9008958091F101843021F11092E1
:10391000DD0120E488E190E00FB6F894A89580934B
:1039200060000FBE2093600080E00E94200A83B7F1
:10393000817F846083BF83B7816083BF78948895DB
:1039400083B78E7F83BF88E10FB6F89480936000C1
:10395000109260000FBE0895089508950E94AC1C57
:103960000E9405040E94AD1C0E94FA0491E081119E
:1039700001C090E0892F08950E94B3150E941A118A
:103980000C94200A1F920F920FB60F9211248F935E
:103990009F93AF93BF938091DD01811113C08091FC
:1039A000DE019091DF01A091E001B091E10141962B
:1039B000A11DB11D8093DE019093DF01A093E00172
:1039C000B093E101BF91AF919F918F910F900FBE86
:1039D0000F901F90189582E084BD93E095BD9AEFFB
:1039E00097BD80936E0008952FB7F8948091DE0103
:1039F0009091DF01A091E001B091E1012FBF089506
:103A0000CF92DF92EF92FF920F931F932FB7F8940C
:103A10004091DE015091DF016091E0017091E10180
:103A20002FBF6A017B01EE24FF248C0120E030E0EF
:103A3000C016D106E206F30610F4415051099A016E
:103A4000281B390BC9011F910F91FF90EF90DF9058
:103A5000CF9008951F920F920FB60F9211248F935B
:103A60009F93AF93BF938091DE019091DF01A0916E
:103A7000E001B091E1010196A11DB11D8093DE012D
:103A80009093DF01A093E001B093E101BF91AF916A
:103A90009F918F910F900FBE0F901F9018950E94CD
:103AA000170EF8942FEF87EA91E62150804090405E
:103AB000E1F700C0000087E090EBDC018093FB01A0
:103AC0009093FC01A093FD01B093FE019CE088E17E
:103AD0000FB6F894A895809360000FBE9093600095
:103AE000FFCFEF92FF920F931F93CF93DF93D82FC7
:103AF000CDE08C2F0E94F30405E010E0E82EF12CBD
:103B0000C701002E02C0959587950A94E2F780FFC1
:103B100009C0602F7C2F80E00E943107D81302C0BB
:103B200081E006C00150110958F7C15010F780E03C
:103B3000DF91CF911F910F91FF90EF900895CF9358
:103B4000C82F8CE20E94711D882321F08C2FCF9109
:103B50000C94711D80E0CF910895CF930E94F41EC4
:103B6000811102C00E94DA1EC5E6C15049F00E94D0
:103B700005048FE39CE90197F1F700C00000F5CF41
:103B800089E20E949F1D811113C18AE20E949F1D3C
:103B900081110E94DA1E85E00E949F1D81110E9402
:103BA0004F1D0E94FF1E8093DC0187E00E949F1D35
:103BB0008823A9F18BE10E949F1D882351F08091F9
:103BC000DC0181FB222720F991E0922790FB81F90B
:103BD0000EC08EE00E949F1D882361F08091DC0161
:103BE00082FB222720F991E0922790FB82F98093B3
:103BF000DC0115C080E10E949F1D9091DC018823AB
:103C000041F093FB222720F981E0822780FB93F982
:103C100004C0892F809580FB90F99093DC018091FE
:103C2000DC010E94031F0E94111F8093FA0180EEA5
:103C30000E949F1D882341F08091FA01982F909552
:103C400090FB80F98093FA0189E30E949F1D8823ED
:103C500059F08091FA0181FB222720F991E0922707
:103C600090FB81F98093FA0182EE0E949F1D8823C8
:103C700059F08091FA0182FB222720F991E09227E6
:103C800090FB82F98093FA0186EE0E949F1D8823A3
:103C900059F08091FA0183FB222720F991E09227C5
:103CA00090FB83F98093FA0183EE0E949F1D882385
:103CB00059F08091FA0184FB222720F991E09227A4
:103CC00090FB84F98093FA0185E30E949F1D88236D
:103CD00059F08091FA0185FB222720F991E0922783
:103CE00090FB85F98093FA0181E30E949F1D882350
:103CF00059F08091FA0186FB222720F991E0922762
:103D000090FB86F98093FA0181E10E949F1D882330
:103D100059F08091FA0187FB222720F991E0922740
:103D200090FB87F98093FA018091FA010E94151F98
:103D30008091FA0187FB882780F980930D0187E243
:103D40000E949F1DC82F8EE10E949F1D8111C2609D
:103D50008FE10E949F1D8111C46080E20E949F1D1F
:103D60008111C86081E20E949F1D8111C06182E2C1
:103D70000E949F1D8111C06283E20E949F1D8111DC
:103D8000C06484E20E949F1D882311F0C06802C0B5
:103D9000CC2329F08C2F0E940C1F6C2F03C00E9493
:103DA000081F682F70E080E090E0CF910C947319A9
:103DB000CF9108956DEE7EEF80E090E00E94DA24CE
:103DC00060E082E090E00E94C82460E083E090E040
:103DD0000E94C82460E084E090E00E94C82460E073
:103DE00085E090E00C94C82480E090E00E94C2241A
:103DF00021E08D3E9E4F09F020E0822F089582E061
:103E000090E00C94BA24682F82E090E00C94C824CF
:103E100083E090E00C94BA24682F83E090E00C9447
:103E2000C82484E090E00C94BA24682F84E090E0E9
:103E30000C94C8248091E40180FF0BC060911301B1
:103E400085E0689FB0011124759567957595679514
:103E50002BC081FF09C06091130185E0689FB0010C
:103E600011247595679520C082FF07C060911301EA
:103E700085E0689FB001112417C09091E501992356
:103E8000D1F060911201961788F72091130185E017
:103E9000289F90011124929FA001939F500D1124FF
:103EA00070E0CA010E948C246038710540F46115ED
:103EB000710539F002C065E070E0862F08958FE744
:103EC000089581E008958091E40180FF08C0609129
:103ED000110170E0759567957595679521C081FF13
:103EE00006C06091110170E07595679519C082FF59
:103EF00004C06091110170E010C09091E501992318
:103F0000C1F0609110019617A0F780911101899F6F
:103F1000C001112470E00E948C246038710528F4DF
:103F20006115710521F0862F08958FE7089581E0CE
:103F3000089561E070E0F4CF803F21F40E941A1FE1
:103F4000819504C0813F29F40E941A1F8093E801E3
:103F50000895823F21F40E941A1F819504C0833F77
:103F600029F40E941A1F8093E7010895893F19F4EC
:103F70000E94631F05C08A3F31F40E94631F819530
:103F80008093E90108958B3F21F40E94631F81957E
:103F900004C08C3F29F40E94631F8093EA010895B6
:103FA000843F21F48091E601816017C0853F21F4B0
:103FB0008091E601826011C0863F21F48091E60184
:103FC00084600BC0873F21F48091E601886005C0C2
:103FD000883F31F48091E60180618093E601089585
:103FE0008D3F21F48091E40181600BC08E3F21F46C
:103FF0008091E401826005C08F3F29F48091E40143
:1040000084608093E4010895803F39F48091E80151
:1040100087FF6CC01092E80169C0813F29F480914C
:10402000E8011816BCF362C09091E701823F29F4C1
:1040300097FF5CC01092E70159C0833F19F419162D
:10404000CCF354C0893F41F48091E90118160CF07B
:104050004DC01092E9014AC08A3F29F48091E901DC
:1040600087FF44C0F6CF8B3F39F48091EA0187FF88
:104070003DC01092EA013AC08C3F29F48091EA01D8
:104080001816BCF333C0843F21F48091E6018E7F83
:1040900017C0853F21F48091E6018D7F11C0863FD6
:1040A00021F48091E6018B7F0BC0873F21F4809142
:1040B000E601877F05C0883F31F48091E6018F7E5D
:1040C0008093E60113C08D3F21F48091E4018E7F3F
:1040D0000BC08E3F21F48091E4018D7F05C08F3F9E
:1040E00029F48091E4018B7F8093E4018091E701C2
:1040F00081110EC08091E80181110AC08091E9010F
:10410000811106C08091EA01811102C01092E5017F
:10411000089586EE91E00E9431110E94F41C909364
:10412000E3018093E20108951F93CF93DF93809181
:10413000E2019091E3010E94001DAC019091E50124
:10414000992321F02091140130E006C0209115013F
:104150008AE0289F900111244217530708F486C073
:104160008091E701C091E801D091E9011091EA0145
:10417000811107C0C11176C0D11174C0111172C074
:1041800075C09F3F19F09F5F9093E501181624F4C6
:104190000E941A1F8093E7018091E70187FF05C005
:1041A0000E941A1F81958093E7011C1624F40E9437
:1041B0001A1F8093E8018091E80187FF05C00E94E3
:1041C0001A1F81958093E8016091E701662339F118
:1041D000C091E801CC2319F1772767FD7095872FEF
:1041E000972F0E949D2323E333E343E35FE30E9481
:1041F00001240E946A236093E7016C2F772767FDF3
:104200007095872F972F0E949D2323E333E343E389
:104210005FE30E9401240E946A236093E8011D1657
:1042200024F40E94631F8093E9018091E90187FFD4
:1042300005C00E94631F81958093E901111624F443
:104240000E94631F8093EA018091EA0187FF05C005
:104250000E94631F81958093EA01DF91CF911F91A6
:104260000C9489209F3F09F08ECF96CFDF91CF919C
:104270001F910895E6EEF1E085E0DF011D928A9539
:10428000E9F71092E5011092E4010895833081F17D
:1042900028F4813059F08230D1F00895853009F446
:1042A00049C0B8F1863009F456C0089580911501CF
:1042B000262F30E0280F311D2F3F310524F4680FE1
:1042C0006093150108958FEF8093150108958091F3
:1042D0001401262F30E0280F311D2F3F310524F423
:1042E000680F6093140108958FEF8093140108956F
:1042F00080911301262F30E0280F311D2F3F31050B
:1043000024F4680F6093130108958FEF80931301D5
:10431000089580911201262F30E0280F311D2F3F84
:10432000310524F4680F6093120108958FEF809394
:104330001201089580911101262F30E0280F311DC0
:104340002F3F310524F4680F6093110108958FEF1A
:1043500080931101089580911001262F30E0280FDD
:10436000311D2F3F310524F4680F6093100108952B
:104370008FEF809310010895833011F128F481307C
:1043800049F0823091F00895853081F120F1863036
:10439000C1F1089580911501681720F4861B809360
:1043A0001501089510921501089580911401681760
:1043B00020F4861B8093140108951092140108952F
:1043C00080911301681720F4861B809313010895D0
:1043D00010921301089580911201681720F4861B32
:1043E0008093120108951092120108958091110195
:1043F000681720F4861B8093110108951092110113
:10440000089580911001681720F4861B8093100195
:1044100008951092100108950F931F938B3109F4A2
:1044200075C0A0F58E3009F484C0C0F4873009F45B
:104430005BC068F4863009F0AAC08091DC01817FFE
:104440008E7F8093DC0181E08093EC01A1C08830F5
:1044500009F496C08B3009F493C099C0813109F4F6
:1044600072C068F4803109F092C08091DC0183FB56
:10447000222720F991E0922790FB83F950C08631E2
:1044800009F47EC0893109F47BC081C0853309F409
:1044900079C068F4873209F475C028F48E3108F4C5
:1044A00076C08D515AC0893209F46CC070C0833413
:1044B00038F48A3308F050C0883309F461C067C00B
:1044C000833409F45FC0883409F061C00E94B315D9
:1044D0000FEF13ED20E3015010402040E1F700C042
:1044E00000000E944F1D4CC09091DC01892F8095E7
:1044F000817080FB90F929F0966098609093DC01C0
:1045000047C0997F977F9093DC013AC08091DC018E
:1045100081FB222720F991E0922790FB81F980937B
:10452000DC01992369F18091DC0181608093DC01D9
:1045300027C08091DC0182FB222720F991E092279D
:1045400090FB82F9ECCF0E94B31590910D0181E0B0
:10455000892780930D0114C0895341E050E060E049
:1045600070E08A019B0104C0000F111F221F331F3E
:104570008A95D2F7C901B8010E9473190E94B31538
:1045800081E006C061E070E080E090E0F5CF80E07F
:104590001F910F91089580E0089580E00895CF93D2
:1045A000C82F8091EC01813079F018F08230E9F168
:1045B00087C0E0910E01F0910F018081813169F097
:1045C000823209F07FC009C0E0910E01F0910F0125
:1045D0008081813111F0823261F48C2F0E94CB22D4
:1045E000811104C08C2F0E940C221DC081E090E03C
:1045F0001AC08C2F0E94CD22811114C0C43179F0D1
:1046000048F4CB3079F0C03109F060C082E080938B
:10461000EC0108C0C93219F0C83321F057C010921C
:10462000EC0154C081E0817053C0C93289F118F5A2
:10463000C43171F1A8F4C73009F046C08AE0809314
:10464000150194E19093140193E0909313018093EA
:10465000120188E08093110188E28093100134C038
:10466000CE51C63088F5EC2FF0E0E65DFE4F80813C
:104670008093EB0129C0CE34E9F020F4CB3421F54E
:104680006AE013C0C13579F0C235F1F461E00DC0C4
:104690008091EB01882319F01092EB0115C081E0A5
:1046A0008093EC0115C061E006C08091EB010E948F
:1046B00046210AC06AE08091EB010E94BC2104C03F
:1046C0001092EC0180E004C081E002C080E0ABCF3A
:1046D000CF91089504D06894B1118DC0089570D021
:1046E00088F09F5790F0B92F9927B751A0F0D1F0DB
:1046F000660F771F881F991F1AF0BA95C9F712C065
:10470000B13081F077D0B1E0089574C0672F782F71
:104710008827B85F39F0B93FCCF3869577956795D0
:10472000B395D9F73EF490958095709561957F4F3C
:104730008F4F9F4F0895E89409C097FB3EF49095E2
:104740008095709561957F4F8F4F9F4F9923A9F06A
:10475000F92F96E9BB279395F695879577956795F9
:10476000B795F111F8CFFAF4BB0F11F460FF1BC03D
:104770006F5F7F4F8F4F9F4F16C0882311F096E9D0
:1047800011C0772321F09EE8872F762F05C066237E
:1047900071F096E8862F70E060E02AF09A95660F37
:1047A000771F881FDAF7880F9695879597F90895F0
:1047B00057FD9058440F551F59F05F3F71F04795D2
:1047C000880F97FB991F61F09F3F79F087950895B7
:1047D000121613061406551FF2CF4695F1DF08C0D6
:1047E000161617061806991FF1CF869571056105F3
:1047F00008940895E894BB2766277727CB0197F99B
:1048000008950BD078C069D028F06ED018F09523A9
:1048100009F05AC05FC01124EECFCADFA0F3959F04
:10482000D1F3950F50E0551F629FF001729FBB2797
:10483000F00DB11D639FAA27F00DB11DAA1F649F43
:104840006627B00DA11D661F829F2227B00DA11DF6
:10485000621F739FB00DA11D621F839FA00D611D7C
:10486000221F749F3327A00D611D231F849F600D9D
:10487000211D822F762F6A2F11249F5750408AF0D6
:10488000E1F088234AF0EE0FFF1FBB1F661F771F62
:10489000881F91505040A9F79E3F510570F014C0F9
:1048A000AACF5F3FECF3983EDCF38695779567954A
:1048B000B795F795E7959F5FC1F7FE2B880F911D80
:1048C0009695879597F9089597F99F6780E870E026
:1048D00060E008959FEF80EC089500240A94161676
:1048E000170618060906089500240A9412161306DE
:1048F000140605060895092E0394000C11F488236C
:1049000052F0BB0F40F4BF2B11F460FF04C06F5F87
:104910007F4F8F4F9F4F089597FB072E16F40094FB
:1049200007D077FD09D00E94A62407FC05D03EF4ED
:10493000909581959F4F0895709561957F4F08954B
:10494000EE0FFF1F0590F491E02D0994AA1BBB1BED
:1049500051E107C0AA1FBB1FA617B70710F0A61B7F
:10496000B70B881F991F5A95A9F780959095BC01A0
:10497000CD010895F999FECF92BD81BDF89A99278E
:1049800080B50895A8E1B0E042E050E00C94E22444
:10499000262FF999FECF92BD81BDF89A019700B4F8
:1049A000021639F01FBA20BD0FB6F894FA9AF99A98
:1049B0000FBE08950196272F0E94C9240C94C82485
:1049C000DC01CB01FC01F999FECF06C0F2BDE1BDCF
:1049D000F89A319600B40D9241505040B8F70895BE
:0449E000F894FFCF79
:1049E4000220220AB00A8D0A590A250A0101C901C6
:1049F40028080A03140A404D36392706DA05A405A7
:104A04006B05FE041705300549050102030405067C
:044A14000708090086
:00000001FF
