:100000000C940F040C942C040C942C040C942C04CD
:100010000C942C040C942C040C942C040C942C04A0
:100020000C942C040C942C040C94A72D0C94792E75
:100030000C94E0230C942C040C942C040C942C04AD
:100040000C942C040C942C040C942C040C942C0470
:100050000C942C040C9448240C942C040C942C0424
:100060000C942C040C942C040C942C040C942C0450
:100070000C942C040C942C040C942C040C942C0440
:100080000C942C040C942C040C942C040C942C0430
:100090000C942C040C942C040C942C040C942C0420
:1000A0000C942C040C942C040C942C0484048704CD
:1000B0008A048D049004920495049E0704080408A1
:1000C0000408040804080408040804080408AA072B
:1000D000B207BA07C207C907D007DE07E507EC0772
:1000E000D707F307FA071709190924091B091D097E
:1000F0001F0921092309260928092A0935092C097C
:100100002E09300932093409370983198319B519C1
:10011000B519EC190C1A751BD31B4E1AD31BFB1AFD
:10012000FB1A6C1BD31BD31BCD1B081B081B081B06
:10013000081B081B081B081B081B081B081B081BA7
:10014000081B081B081B081B081B191B261B2D1B43
:10015000341B3E1B5E1C5E1C701C701C671C701CDC
:10016000701C701C5E1C5E1C6C1C701C701C6C1C5B
:10017000E62E0D2FFF2F0D2FFF2F592F7C2FFF2F36
:10018000D22FE12F07634236B79BD8A71A3968569A
:1001900018AEBAAB558C1D3CB7CC5763BD6DEDFDA9
:1001A000753EF6177231BF000000803F05A84CCDA8
:1001B000B2D44EB93836A9020C50B9918688083CA1
:1001C000A6AAAA2ABE000000803F01E3010602069B
:1001D00002E30001E3011B021B02E30001E301193A
:1001E000021902E30001E10126022601270227028B
:1001F000E1012C022C01E1012F022F01300230021B
:10020000E10001E1012602260127022702E1012C7B
:10021000022C012E022E01E10137023702E1012CEE
:10022000022C01E1012F022F0130023002E1000116
:10023000E10125022502E1013802380001380238C7
:1002400001E1012502250125022502E10001E1016C
:100250003602360137023702E100012F022F01304A
:1002600002300001E1012F022F0130023002E100D3
:1002700001E1012602260127022702E100012E02E8
:100280002E01E10137023702E10001510251014A1A
:10029000024A012802280152025200015202520170
:1002A0004D024D01280228000000F0A129002B007A
:1002B000E300E100E00000001E00140004001D61E6
:1002C000E20003511F001A0016001B00E3002C007F
:1002D00020000800070006006C00015121001500F5
:1002E000090019006D000D0C220017000A0005001E
:1002F00000001530350034000000340200000F0CFF
:1003000025022E0200002E000000A90023001C0080
:100310000B00110000002800240018000D00100040
:100320005000AA0025000C000E00360052000251B9
:10033000260012000F003700510003512700130060
:10034000334238614F0001512A0031002D00E50091
:100350002D02000001000100010001000100000069
:1003600001004A0050084D000100010001004B004F
:100370005000010001000100010052005100010085
:100380000100010001004E004F00010001000100CA
:10039000010001004F080100000001000100010000
:1003A00000000100000001000100310200002402F1
:1003B00000000100010025022E022E0000000100B5
:1003C00001001E00210024003600010001001F0072
:1003D0002200250027000100010020002300260044
:1003E00037000100010001000100010022020100AC
:1003F00001000100010001000100000001000100F6
:10040000010001000100000001004A02500A4D02F3
:100410000100010001004B02500201000100010037
:1004200001005202510201000100010001004E02D0
:100430004F02010001000100010001004F0A01000C
:1004400000000100010001000000010000000100A7
:10045000010031020000240200000100010001003F
:100460006A006B0000000100010001002A00280260
:100470000100010001000A3028000B3001000100DA
:10048000010001004C0028020100010001000100F0
:100490000100010001000100010001000100010054
:1004A00001000000005C0100FD0001003A000000B6
:1004B00001000100FD0001003B0001000100F4000B
:1004C000F200F9003C00FD000100F000F100F60030
:1004D0003D00FD000100F500F300FA003E000100C0
:1004E0000100F500F4000100000001000100F90026
:1004F0000000FA00000001000100310200002402A7
:1005000000000100230225026A006B0000000100C8
:1005100024020C300D300F303F0001002502123054
:100520000E3013304000010026022F022F00360249
:100530004100010027023002300037024200010072
:1005400001000100010001004300000000046801F7
:10055000F000B40078005A007F3F1F643214643208
:1005600014783C1E1E140A05000000000001010161
:100570000101010101010202020202020202020360
:10058000030303030303030404040404040505052F
:1005900005050606060606070707070808080809EE
:1005A00009090A0A0A0A0B0B0B0C0C0C0D0D0D0E97
:1005B0000E0F0F0F10101111111212131314141526
:1005C0001516161717181819191A1A1B1C1C1D1D99
:1005D0001E1F1F20202122222324252526272728ED
:1005E000292A2B2B2C2D2E2F2F3031323334353618
:1005F000363738393A3B3C3D3E3F40414243444622
:100600004748494A4B4C4D4F5051525355565758F5
:100610005A5B5C5E5F606263646667696A6C6D6E9C
:10062000707173747678797B7C7E80818384868810
:100630008A8B8D8F91929496989A9B9D9FA1A3A54A
:10064000A7A9ABADAFB1B3B5B7B9BBBDBFC1C4C648
:10065000C8CACCCFD1D3D6D8DADCDFE1E4E6E8EB08
:10066000EDF0F2F5F7FAFCFF04033000000016038A
:100670004500720067006F0044006F0078002000A2
:1006800045005A00000016034500720067006F0025
:1006900044006F007800200045005A000000040369
:1006A000090409026D00040100A0FA090400000118
:1006B0000301010009211101000122400007058109
:1006C0000308000A090401000103010200092111C5
:1006D000010001224D000705820308000A090402F7
:1006E000000103000000092111010001223600076A
:1006F00005830308000A0904030001030000000940
:100700002111010001223900070584032000011294
:1007100001100100000008EDFE07130100010203B3
:100720000105010906A101050719E029E7150025C2
:1007300001950875018102050819012905950575BE
:100740000191029501750391010507190029F7151B
:1007500000250195F875018102C005010980A101FC
:1007600085021601002603001A81002A83007510F5
:1007700095018100C0050C0901A101850316010046
:10078000269C021A01002A9C02751095018100C066
:1007900005010902A1010901A100050919012905A5
:1007A00015002501950575018102950175038101EB
:1007B0000501093009311581257F950275088106EB
:1007C00009381581257F950175088106050C0A38C1
:1007D000021581257F950175088106C0C0050109B4
:1007E00006A101050719E029E715002501950875FF
:1007F00001810295017508810105081901290595F6
:1008000005750191029501750391010507190029EC
:10081000FF150026FF00950675088100C000112411
:100820001FBECFEFDAE0DEBFCDBF11E0A0E0B1E048
:10083000E2E7F7E602C005900D92AC3DB107D9F7AB
:1008400013E0ACEDB1E001C01D92A13CB107E1F7AE
:100850000E94CF2A0C94B7330C94000080B38C70A4
:1008600080BB81B3836F81BB089584B1807F84B9DD
:1008700085B1807F85B98AB1837F8AB98BB1837F47
:100880008BB93E9846980895CF93E82F873090F51E
:100890008091000190910101892B09F048C0CE2F71
:1008A00064E670E080E40E94D90590930101809392
:1008B0000001892BD1F464E670E082E10E943006E9
:1008C0009093010180930001892B79F481E090E0FD
:1008D00001C0880FCA95EAF764E670E080950E942F
:1008E0003006909301018093000184E690E0CF915F
:1008F0000C94850690E0FC013797E730F105B8F4D9
:10090000EA5AFF4F0C946933209A289810C0219A14
:1009100029980DC0229A2A980AC0239A2B9807C0BA
:10092000529A01C0539A5B9802C03E9A4698CF9162
:100930000895CF93873008F041C0809100019091D5
:100940000101892B09F043C064E670E080E40E9455
:10095000D9059093010180930001892B11F0C0E02B
:1009600027C064E670E083E10E94300690930101A5
:1009700080930001892B99F764E670E081E40E947E
:10098000D9059093010180930001892B41F784E6FA
:1009900090E00E94600697FF05C09093010180934C
:1009A0000001DDCFC82FC095109201011092000107
:1009B00084E690E00E9485068C2F0AC09FB18FB11B
:1009C000807F869586959370892B809501C080E005
:1009D000CF9108950C9423080E94170790E09093FC
:1009E0000101809300010E9435040E942E042DED28
:1009F00031E0E1E3F2E04EE04E0F119280E090E052
:100A0000D901A80FB91F1C92019686309105C1F734
:100A10002A5F3F4F4E13F1CF0C944A080E941707EC
:100A200090E090930101809300010E9435040E94A0
:100A30002E04E1E3F2E08EE08E0F11928E13FDCFD3
:100A4000089526E0829FC0011124FC01E352FE4F6D
:100A500020E030E080E041E050E09081992319F0FF
:100A60009150908307C0BA01022E01C0660F0A940C
:100A7000EAF7862B2F5F3F4F31962630310569F715
:100A8000089596E0699FB001112420E030E090E0E5
:100A90004FE0FC01022E02C0F595E7950A94E2F7BB
:100AA000E0FF06C0F901E60FF71FE352FE4F408357
:100AB0002F5F3F4F2630310561F70895CF92DF92C7
:100AC000EF92FF920F931F93CF93DF9380910001DA
:100AD00090910101892B91F08091DC018F5F8093CF
:100AE000DC0181110BC00E94170790E09093010177
:100AF00080930001892B11F40E94A90681E3C82E7E
:100B000082E0D82E98E3E92E92E0F92EC0E08C2FF7
:100B10000E94440407E00C0F802F0E9444048C2F95
:100B20000E942105182F8C2F0E949904F6019081B4
:100B3000D12FD095D9238123D82B6C2F8D2F8927A6
:100B40000E944105F601D1936F01802F0E9421057B
:100B5000182F802F0E949904F7019081D12FD095F2
:100B6000D9238123D82B602F8D2F89270E944105FF
:100B7000F701D1937F010E943504CF5FC73039F66A
:100B80000E944C0881E0DF91CF911F910F91FF905F
:100B9000EF90DF90CF900895E82FF0E0EF5CFD4FED
:100BA0008081089508951092B9008CE08093B80078
:100BB0000895EF92FF920F931F93CF93DF93182F17
:100BC000EB011092BC0084EA8093BC000E941224C6
:100BD0007C019091BC0097FD0EC0CF3F8FEFD807EE
:100BE000C1F30E9412248E199F098C179D0788F368
:100BF0008EEF9FEF2EC09091B900987F983041F012
:100C00009091B900987F903119F08FEF9FEF21C03C
:100C10001093BB0084E88093BC000E9412248C01D6
:100C20009091BC0097FD0CC0CF3F8FEFD807C1F368
:100C30000E941224801B910B8C179D0788F3D8CF3C
:100C40008091B900887F883111F08034F1F680E01E
:100C500090E0DF91CF911F910F91FF90EF90089559
:100C60000F931F93CF93DF93EB018093BB0084E836
:100C70008093BC000E9412248C019091BC0097FDCF
:100C80000EC0CF3F8FEFD807C1F30E941224801B04
:100C9000910B8C179D0788F38EEF9FEF0CC020916E
:100CA000B900287F81E090E0283211F480E090E0E4
:100CB000919581959109DF91CF911F910F910895A1
:100CC0000F931F93CF93DF93EC0184E88093BC00D4
:100CD0000E9412248C019091BC0097FD0EC0CF3F62
:100CE0008FEFD807C1F30E941224801B910B8C1741
:100CF0009D0788F38EEF9FEF03C08091BB0090E0CB
:100D0000DF91CF911F910F9108950F931F93CF9370
:100D1000DF93EC0184E98093BC000E9412248C01D3
:100D20009091BC0094FF0EC0CF3F8FEFD807C1F366
:100D30000E941224801B910B8C179D0788F38EEF65
:100D40009FEF02C080E090E0DF91CF911F910F9163
:100D5000089556985E9825982D9826982E9827984D
:100D60002F988FEF90E09093890080938800909364
:100D70008B0080938A0090938D0080938C00259A3D
:100D80002D9A2FEF80E792E0215080409040E1F7CC
:100D900000C00000269A2E9A2FEF80E792E02150A3
:100DA00080409040E1F700C00000279A2F9A2FEF73
:100DB00080E792E0215080409040E1F700C00000C1
:100DC00025982D982FEF80E792E0215080409040A9
:100DD000E1F700C0000026982E982FEF80E792E000
:100DE000215080409040E1F700C0000027982F98E4
:100DF00056985E9825982D9826982E9827982F9883
:100E0000089589EA8093800089E080938100249886
:100E10002C983F988AB18F7C8AB96E98479A8BB18B
:100E200080638BB9769A0E94A9060C94220880E20E
:100E300090E0909301018093000180913F02811125
:100E40000EC00E94D30581E080933F022FEF83ED17
:100E500090E3215080409040E1F700C0000064E63C
:100E600070E080E40E94D905909301018093000115
:100E7000892B09F050C064E670E080E00E943006E3
:100E80009093010180930001892B09F044C064E62E
:100E900070E080E00E943006909301018093000191
:100EA000892BC9F564E670E08FE30E9430069093C9
:100EB000010180930001892B71F584E690E00E9486
:100EC000850664E670E080E40E94D90590930101F4
:100ED00080930001892BF9F464E670E08CE00E94B5
:100EE00030069093010180930001892BA1F464E600
:100EF00070E080E00E943006909301018093000131
:100F0000892B49F464E670E08FE30E9430069093E9
:100F100001018093000184E690E00E9485068091A3
:100F200000010895462F50E04631510508F06CC08D
:100F3000DC01FA01E35AFF4F0C94693312968C914D
:100F4000882321F085EE0E94D3175EC085EE0E94B3
:100F5000E2185AC012968C91882309F455C08BE987
:100F600092E0089512968C91882309F44DC08AE886
:100F700092E0089512968C91882309F445C08DE77C
:100F800092E0089512968C918823F1F180E792E027
:100F9000089512968C918823B9F183E692E0089522
:100FA00012968C91882381F18AE592E00895129639
:100FB0008C91882349F18DE492E0089512968C91EA
:100FC000882311F18CE392E0089512968C91882386
:100FD000D9F08FE292E0089512968C918823A1F0C7
:100FE00082E092E0089512968C91882369F085EE54
:100FF00091E0089512968C91882349F00E94122462
:10100000909341028093400280E090E008958091A7
:101010004002909141020E941E248639910560F0A1
:1010200080914002909141020E941E24813991409A
:1010300030F48AEC91E008958CED91E0089583ED11
:1010400091E00895089560910C0370910D038091D3
:101050000E0390910F030E948B2256985E9825985C
:101060002D9826982E9827982F98823039F0833023
:1010700041F0813041F4259A2D9A0895269A2E9AAE
:101080000895279A2F9A089581E0089581E00895A0
:101090000C9446080C9401070C94EA04282F2F7036
:1010A00041F0822F90E02A3010F44D960895069773
:1010B000089587E290E0089508950C945C080C94DC
:1010C0005D0808950E944C1C0E9461082FEF84E384
:1010D0009CE0215080409040E1F700C000000C945B
:1010E0006E24FF920F931F93CF93DF938C01FC012B
:1010F000C081D18180919A02811113C0828188239D
:1011000049F0CE010E947E21F82E682FCE010E9468
:10111000212104C0CE010E945121F82EBE018F2D45
:1011200004C0CE010E947E21BE010E942B0BEC0167
:10113000B8010E944808882309F485C2B801CE018D
:101140000E94950D882309F47EC2B801CE010E9449
:10115000E40D882309F477C2C93CFCE5DF0741F4BC
:10116000F8018281882309F46EC20E94990F6BC234
:10117000CA3C8CE5D80708F013C1C13C9CE5D907EF
:1011800061F4F8018281882309F45DC20E944F2234
:101190008272F1F00E94B51156C2C23CECE5DE0746
:1011A000D0F0F8018281C53CFCE5DF0709F4CDC031
:1011B00008F0DDC0C33CECE5DE0709F4CCC008F064
:1011C000D0C0882309F43FC20E944F22827211F3DB
:1011D0000E94AB1138C2C531FCE5DF0708F07EC0C4
:1011E000C2308CE5D80708F452C0F8018281882308
:1011F00009F459C00E94FC22811102C00E94DB2226
:101200000E940F2390E09093B3038093B203FE01FA
:10121000E350FC45E231F10530F4ED58FF4F809189
:10122000B2030C9469338091B203816027C082605D
:1012300025C0846023C0806121C080621FC080649B
:101240001DC080681BC08460886018C08E7F16C077
:101250008D7F14C08B7F12C08F7E10C08F7D0EC01B
:101260008F7B0CC08F770AC08B7F877F07C087FB7F
:10127000222720F991E0922790FB87F98093B2030F
:101280008091B2030E9413230E944C1CDCC1C11543
:101290009CE5D90781F0C130DC45A9F081E080935D
:1012A000470280934802C801DF91CF911F910F91AF
:1012B000FF900C944408F8018281882309F4C3C18B
:1012C0000E946208C0C1F8018281882309F4BBC171
:1012D00080913903816080933903B5C1C531FCE544
:1012E000DF0739F50E944F22282FF80182814091B3
:1012F000040150910501882379F02A7A91E009F4DC
:1013000090E090934202911102C069E201C065E34E
:10131000CA010E9474230AC080914202811102C056
:1013200069E201C065E3CA010E947F230E941C227A
:101330008AC1C03CDC4509F0B1CFF8018281882325
:1013400009F481C10E9444127EC1882309F47BC143
:101350000E94FF1078C1882309F475C10E94C8104B
:1013600072C1882309F46FC10E94E0106CC1C73CB0
:101370009CE5D90731F4882309F465C10E94231143
:1013800062C1C83CDC4530F4882309F45CC10E948A
:10139000111159C1882309F456C10E943E1153C14D
:1013A000C13DFCE5DF0749F4F8018281882309F497
:1013B0004AC188E10E94A81146C1C23D8CE5D80708
:1013C00008F087C0F8018281CD3CFCE5DF07A1F47D
:1013D000882309F438C10E948B0F6630710581059E
:1013E000910540F00E948B0F6830710581059105D1
:1013F00008F4EECE86E0DECFCE3C9CE5D90730F592
:10140000CB3CECE5DE0729F4882309F41CC181E01C
:10141000D1CFCC3CDC4530F4882309F414C10E94C0
:10142000AE0F11C1882309F40EC10E948B0F6230E8
:1014300071058105910540F00E948B0F65307105A3
:101440008105910508F4C4CE82E0B4CFCF3C9CE581
:10145000D907A1F4882309F4F6C00E948B0F6F30DE
:1014600071058105910540F00E948B0F6431710573
:101470008105910508F4ACCE8FE09CCFC03DDC45E2
:10148000A0F4882309F4DFC00E948B0F6930710536
:101490008105910540F00E948B0F6E30710581052A
:1014A000910508F495CE89E085CF882309F4CBC057
:1014B0000E948B0F653171058105910540F00E94F6
:1014C0008B0F673171058105910508F481CE85E1A7
:1014D00071CFC53DFCE5DF0781F5F80182818823E6
:1014E00061F0109248020E94122490934602809369
:1014F000450280E20E944119A6C00E944F2281FF4E
:1015000005C081E0809347028093480280914802A1
:1015100081110FC080914502909146020E941E24C5
:10152000883C910530F487E20E94D31787E20E943D
:10153000E21880E20E94481986C0C63D8CE5D807B3
:1015400008F04CC0F8018281C33DFCE5DF0729F4B7
:10155000882309F478C083E22DCFC43DDC45A0F494
:10156000882309F470C00E948B0F693171058105D1
:10157000910540F00E948B0F623271058105910543
:1015800008F426CE89E116CF882351F01092470245
:101590000E941224909344028093430282E0AACFD7
:1015A0000E944F2285FF05C081E08093470280930F
:1015B00048028091470281110FC0809143029091AF
:1015C00044020E941E24883C910530F486E20E9469
:1015D000D31786E20E94E21882E0ACCFC93DECE569
:1015E000DE0731F4F8018281882369F180E009C0C7
:1015F000CA3DFCE5DF0741F4F8018281882319F137
:1016000082E00E946A2B1FC0C63DDC4509F046CE31
:10161000F8018281811165CF80914802811189CFC3
:1016200080914502909146020E941E24883C9105BB
:1016300008F07FCF80E20E94481988E20E94D31709
:1016400088E20E94E21880E0DF91CF911F910F9114
:10165000FF900895089596E0799FF001112494E594
:10166000899FE00DF11D1124E60FF11DEE0FFF1F04
:10167000E455FD4F859194910895880F991FFC01C1
:10168000E855FD4F859194910895CF93DF930E9483
:101690002B0B0E94F40CEC01811520E59207F0F56C
:1016A000811530E4930708F021C1883E910500F5CB
:1016B000803E910508F094C1883A910570F4853A0E
:1016C000910508F0A3C08130910509F489C108F49F
:1016D00040C1049708F084C13CC18D3B910508F4DA
:1016E000A0C0803C910508F434C1805C9109F0C031
:1016F0008115904258F4C11581E0D80708F070C1F7
:10170000C03FD10508F425C1D0656AC1C11590E379
:10171000D90708F0E1C0CE019F70DAC0811525E538
:10172000920708F043C0811534E5930708F0F5C02F
:10173000811542E5940708F5C11581E5D80708F041
:10174000D8C02C2F237081E090E002C0880F991F31
:101750002A95E2F79C689E0174E0369527957A9564
:10176000E1F72370922BCF70C695C69540E2C49FD7
:10177000E0011124C82BD92B33C1869586959E0193
:1017800023703327C115D34508F0B8C040E2849FC9
:10179000C0011124C1E0D0E002C0CC0FDD1F2A95AA
:1017A000E2F78C2B9D2BEC01DC681AC181152AE530
:1017B000920798F4811539E5930708F0B9C08115AF
:1017C000964508F4AFC0C11588E5D80708F4C1C034
:1017D000DC2FCC27C06FD06A03C1C1159BE5D907A8
:1017E00008F4B7C0C1152CE5D20708F4AFC0CE018C
:1017F00090568115904208F0ACC08D2F8F710E94D9
:10180000710DDD27D0628F71D82BEAC0853A910522
:1018100009F4A2C0863A910509F0A1C0C2E8D0E45B
:10182000DFC0883A910509F49DC0893A910509F411
:101830009CC08A3A910509F49BC08B3A910509F442
:101840009AC08C3A910509F499C08B3B910509F433
:1018500098C08C3B910509F497C08D3A910509F425
:1018600096C0803B910509F495C08E3A910509F424
:1018700094C08F3A910509F493C0813B910509F416
:1018800092C0823B910509F491C0833B910509F414
:1018900090C0843B910509F48FC0853B910509F404
:1018A0008EC0863B910509F48DC0873B910509F4F4
:1018B0008CC0883B910509F48BC0893B910509F4E4
:1018C0008AC08A3B910509F489C0C0E0D4E488C08D
:1018D0000E943D0BEC0184C0CE019927D3FF03C0C9
:1018E000EC01D86C7DC0EC01D06C7AC0DF70D06A9E
:1018F00077C0DC2FCC27C16FD06A72C040E2849FD2
:10190000C0011124C1E0D0E002C0CC0FDD1F2A9538
:10191000E2F7C82BD92BDA6863C0D82FCC27C46F65
:10192000D06A5EC0CF71DD27DC2FCC27D06258C0D3
:101930008F70806E90E0906A24E0D695C7952A95C6
:10194000E1F7CF709C013C2BE9014AC0DD27D0664E
:1019500047C0C0E0D0E044C0C1E8D0E441C0C3E823
:10196000D0E43EC0C2EED4E43BC0C9EED4E438C0FB
:10197000CAEED4E435C0C5EBD4E432C0C6EBD4E43F
:101980002FC0C3EBD4E42CC0C4EBD4E429C0C7EB14
:10199000D4E426C0CCECD4E423C0CDECD4E420C005
:1019A000C3E8D5E41DC0CAE8D5E41AC0C2E9D5E44D
:1019B00017C0C4E9D5E414C0C1E2D6E411C0C3E243
:1019C000D6E40EC0C4E2D6E40BC0C5E2D6E408C03B
:1019D000C6E2D6E405C0C7E2D6E402C0CAE2D6E455
:1019E000CE01DF91CF9108958238910549F1B0F48D
:1019F0008133910509F458C048F48932910509F4FE
:101A00004EC08A32910509F454C00895853391057A
:101A100009F440C08933910599F00895833E9105FA
:101A200029F138F4803E910591F0823E9105A1F0B4
:101A30000895863E9105F9F0873E910531F10895AC
:101A40002091B20320FD3AC021FD38C00895809155
:101A5000B20380FD35C032C08091B20382FF32C034
:101A60008091B20384FD30C083EE39C08091B2030F
:101A700082FD28C0F5CF8091B20383FF27C08091FB
:101A8000B20384FD21C087EE2AC08091B20383FD9A
:101A90001DC0F5CF8091B20385FD1AC01BC0809197
:101AA000B20385FD17C014C08091B20386FD14C037
:101AB00015C08091B20386FD11C00EC080EE0FC02C
:101AC00089E30DC082EE0BC080E009C086EE07C03E
:101AD00089E205C085E303C08AE201C081E390E0AA
:101AE00008959091B20392FF0DC0282F28712830DD
:101AF00019F4877F846006C0282F2471243011F4E4
:101B00008B7F886093FF0DC0282F2871283119F42E
:101B1000877E846106C0282F2471243111F48B7EC6
:101B2000886194FD877E089508950F931F93CF9346
:101B3000FB012281211102C0C1E041C08C01C09192
:101B40005602C11125C086319C45B1F70E94940D03
:101B500081E0809356020E94122490935502809354
:101B600054021092490210924B0210924A021092B3
:101B70004D0210924C0210924F0210924E0210929F
:101B8000510210925002109253021092520217C04A
:101B900080915402909155020E941E248C329140F3
:101BA00058F690914902E92FF0E0EE0FFF1FE65B37
:101BB000FD4F118300839F5F90934902C0E08C2FFB
:101BC000CF911F910F910895CF93DF93813020E83B
:101BD0009207D0F0FB0122812223B1F0EC01809129
:101BE0005702811109C08CE090E00E946F330E947F
:101BF000080E81E0809357020E940F0ECE019F775E
:101C00000E94D70E0E948B0E81E0DF91CF91089544
:101C100080935802682F8CE090E00C948333E0911D
:101C20000401F0910501808180936A0381FF03C064
:101C300081EE0E94E21880916A0385FF03C085EE61
:101C40000E94E21880916A0380FF03C080EE0E9428
:101C5000E21880916A0384FF03C084EE0E94E218B8
:101C600080916A0382FF03C082EE0E94E218809195
:101C70006A0386FF03C086EE0E94E21880916A0321
:101C800083FF03C083EE0E94E21880916A0387FFFE
:101C900003C087EE0E94E21880915802823001F161
:101CA000A8F48823C9F0813079F580EE0E94D3171B
:101CB00081EE0E94D31788E10E94D31788E10E9429
:101CC000E21881EE0E94E21880EE1CC0843081F0A0
:101CD0008530D1F486EE01C082EE0E94D31714C085
:101CE00082EE0E94D31787E50E94D31787E50AC0CA
:101CF00086EE0E94D31786EE0E94E21888E10E94C9
:101D0000D31788E10E94E2188FE39CE90197F1F76D
:101D100000C00000089580915802813049F030F0F1
:101D2000823021F0853051F486EE06C082EE04C088
:101D30008CE20E94D3178CE20E94E21880916A0321
:101D400081FF03C081EE0E94D31780916A0385FF53
:101D500003C085EE0E94D31780916A0380FF03C001
:101D600080EE0E94D31780916A0384FF03C084EE43
:101D70000E94D31780916A0382FF03C082EE0E9403
:101D8000D31780916A0386FF03C086EE0E94D317A3
:101D900080916A0383FF03C083EE0E94D317809172
:101DA0006A0387FF03C087EE0C94D3170895EF9260
:101DB000FF921F93CF93DF937C01CCE0D0E097019B
:101DC0000C2E02C0369527950A94E2F7122F1F7049
:101DD000812F0E944E080E94D317812F0E944E0827
:101DE0000E94E2182497CC3F8FEFD80741F7DF918C
:101DF000CF911F91FF90EF900895EF92FF920F9374
:101E00001F93CF93DF93E901662309F44BC0242F7E
:101E100030E0EFEFF0E0E61BF109B901E69F900139
:101E2000E79F300DF69F300D1124232F8B01031BEC
:101E300011095CE3E52EF12CB7010E944133FB014F
:101E4000BC01069FC001079F900D169F900D1124A5
:101E5000B7010E944133E230F105B1F040F4309710
:101E600079F0319711F5832F242F461B21C0E430E0
:101E7000F105A1F068F03597C1F4842F861B18C0D6
:101E8000832F262F230F14C0862F830FE42F03C028
:101E9000E42FE61B842F432F2E2F0AC0842F462FBA
:101EA000430F06C0842F242F03C080E020E040E0D1
:101EB000E42FF0E0E859FA4F4491E22FF0E0E859BE
:101EC000FA4F9491E82FF0E0E859FA4FE4914983F2
:101ED0009883EA83DF91CF911F910F91FF90EF904C
:101EE000089588E090E00C947733AB01BC0188E062
:101EF00090E00C949533EBE6F3E083E0808310925E
:101F00006C038FEF8283838314826081718182816D
:101F100093810C94750F60916B0360FF06C066950A
:101F20006F7370E080E090E0089560E070E0CB01B6
:101F3000089580916F0390E001968430910514F02C
:101F400083E090E080936F0360916B0370916C036A
:101F500080916D0390916E030C94750F80916F03C7
:101F600090E0019797FF02C080E090E084309105F7
:101F700014F083E090E080936F0360916B037091A5
:101F80006C0380916D0390916E030C94750F80919A
:101F90006B0380FF06C06FE070E080E793E00C9475
:101FA000F81580E090E0FC01E059FC4F11821082AE
:101FB000128204968C339105B1F7EDCF90916B03AB
:101FC00090FF0FC020E030E0F901E059FC4F818321
:101FD000608342832C5F3F4F2C333105A9F70C946B
:101FE000C70F0895CF93DF9300D000D0CDB7DEB7F1
:101FF00020916B0320FF0AC09E012F5F3F4F0E947C
:10200000FD0E4B8169818A810E94DE0F0F900F9037
:102010000F900F90DF91CF9108955F926F927F9212
:102020008F929F92AF92BF92CF92DF92EF92FF92E8
:102030000F931F93CF93DF9300D000D0CDB7DEB7BF
:102040008C01E62EF42E522E80916B0380FF89C006
:10205000982F9E77923061F49E012F5F3F4FC80109
:102060000E94FD0E4B8169818A810E94DE0F59C05A
:10207000E82FE695EF739EE39E0F9F73943018F45C
:10208000F0906E034EC09AE39E0F9F73993068F4F0
:10209000881F8827881F90916C03292F220F022FF9
:1020A000082B97FB112710F93CC087E28E0F8F7326
:1020B0008A30B8F5F0E07997E0FD02C021E001C078
:1020C0002FEFEE7FE25BFA4F859194916FE070E025
:1020D0000E94413326034001279F900C1124580190
:1020E00088E9A81A8EEFB80A80E7C82E83E0D82EB8
:1020F00098E6692E77247394C501B3010E94413399
:1021000096014F2D6E2D0E94FD0EA80CB91C84E087
:10211000C80ED11C8CEAC81683E0D80669F70E9465
:10212000C70F80916B0300FB87F980936B03902F9F
:10213000969580916C038078892B10FB87F98093AA
:102140006C03E0926D03F0926E03552051F06091A4
:102150006B0370916C0380916D0390916E030E94EC
:10216000750F0F900F900F900F90DF91CF911F91EF
:102170000F91FF90EF90DF90CF90BF90AF909F9026
:102180008F907F906F905F90089521E00C940D10D8
:10219000EBE6F3E02081221F2227221F30916C03FF
:1021A000432F440F842F822B37FB992790F90C96ED
:1021B00068E671E00E945533438162810C94C5103A
:1021C00020916B03221F2227221F30916C03432F83
:1021D000440F842F822B37FB992790F98C3091057F
:1021E0001CF4845A9E4F01C00C9768E671E00E946F
:1021F000553340916E0360916D030C94C510EBE66E
:10220000F3E08081881F8827881F90916C03292F15
:10221000220F97FB992790F943816FEF822B0C9443
:10222000C510EBE6F3E08081881F8827881F909116
:102230006C03292F220F97FB992790F9438160E0C7
:10224000822B0C94C51040916E03842F90E0843F44
:10225000910514F4445F01C04FEF80916B03881F18
:102260008827881F90916C03292F220F97FB9927AD
:1022700090F960916D03822B0C94C51040916E0310
:10228000842F90E00C9714F04C5001C040E08091F6
:102290006B03881F8827881F90916C03292F220FBA
:1022A00097FB992790F960916D03822B0C94C510D0
:1022B00020E00C940D1090916B0390FF48C0917832
:1022C000811102C0926007C0853210F0986403C08B
:1022D0008F73880F982B90936B03662351F0609156
:1022E0006B0370916C0380916D0390916E030E945B
:1022F000750F80916B03282F2E77223019F41092DE
:10230000760214C0982F96959F733EE3390F3F7362
:10231000373120F0263411F0283421F491E09093E5
:10232000760204C0995D9F739A3048F3881F88270E
:10233000881F90916C03292F220F97FB992790F902
:1023400040916E0360916D03822B0C945811089597
:1023500061E00C945B1180916B0386958F738F5FA6
:10236000853208F081E00C94A81180916B0386956A
:102370008F73815009F484E20C94A811EBE6F3E02A
:1023800080818160808386958F730C94A81160E0B2
:102390000C945B11809139038160809339030E9412
:1023A000FC22811104C00E94DB220E947B0F0E944C
:1023B000710F60936B0370936C0380936D03909324
:1023C0006E036E7761F40E947B0F0E94710F609321
:1023D0006B0370936C0380936D0390936E0381E0A5
:1023E0008093760280916B0380FF04C086958F7383
:1023F0000C94C711089590916B0390FF0DC02F307E
:1024000058F494E0299FF0011124E059FC4F818396
:10241000608342830C94C70F08951F93CF93DF937B
:1024200000D000D0CDB7DEB730916B0330FF0CC0C9
:10243000122F9E012F5F3F4F0E94FD0E212F4B81D7
:1024400069818A810E94FB110F900F900F900F906D
:10245000DF91CF911F910895EBE6F3E080818E7FAD
:10246000808360817181828193810E94750F1092B7
:1024700076022FEF80E792E0215080409040E1F714
:1024800000C000000C94C70F80916B0380FD0C947A
:102490002C120C94BE11CF93C82F8091740290918E
:1024A00075020E941E24EC2FF0E0EC59FA4FE491E3
:1024B000F0E08E179F0708F443C00E941224909307
:1024C0007502809374026091730270E080E090E086
:1024D0000E945F3120E030E04FE753E40E949830E3
:1024E0002BED3FE049E450E40E9480320E94E33249
:1024F0000E9405312BE43AE34EE25FE30E94333061
:1025000020EF3BEF48ED52E40E9480320E943131CF
:10251000462F80916B03881F8827881F90916C033A
:10252000292F220F97FB992790F960916D03822B39
:102530000E94F20F8091730290E0019680937302E3
:10254000CF910895CF93C82F80917102909172021C
:102550000E941E24EC2FF0E0EF59FA4FE491F0E0D6
:102560008E179F07E8F00E941224909372028093C6
:10257000710240916E0360916D0380916F029091A2
:1025800070020E94F20F80916F029091700201968A
:1025900068E671E00E9441339093700280936F026D
:1025A000CF910895CF92DF92FF920F931F93CF9315
:1025B000DF93F82E80916D0290916E020E941E248E
:1025C000EF2DE695F0E0E25AFA4FE491F0E08E1735
:1025D0009F07E8F10E94122490936E0280936D028F
:1025E00000E713E0C0E0D0E088E6C82EDD24D394F5
:1025F00080916B0290916C028C0F9D1FB6010E941E
:102600004133980140916E0360916D030E94FD0E6D
:1026100068960C5F1F4FC83681E0D80749F70E94C3
:10262000C70F20916B0230916C02F0FE0AC0C90105
:102630000196BE010E94413390936C0280936B021D
:1026400006C02150310930936C0220936B02DF9158
:10265000CF911F910F91FF90DF90CF900895AF928F
:10266000BF92CF92DF92EF92FF920F931F93CF937F
:10267000DF93C82F80FF02C01FEF01C011E08091DF
:10268000690290916A020E941E24C695EC2FF0E028
:10269000E55AFA4FE491F0E08E179F0708F466C000
:1026A0000E94122490936A028093690220E7C22E4E
:1026B00023E0D22E32E7E32E33E0F32EC0E0D0E069
:1026C000F70131971082F6011082F701108294E031
:1026D000A92EB12C00E080916802800F87FD815FF8
:1026E000992787FD9095C817D907E9F480916E0363
:1026F0008A9DA0018B9D500D1124559547955595A8
:10270000479580916B03881F8827881F90916C03E1
:10271000592F550F97FB992790F9960160916D03FA
:10272000852B0E94FD0E010FF1E0AF1AB10899F65A
:10273000219684E0C80ED11CE4E0EE0EF11CCF30EF
:10274000D10509F0BDCF0E94C70F809168021130FA
:1027500031F4811102C08EE007C0815005C090E0C5
:102760000196BE010E94553380936802DF91CF919C
:102770001F910F91FF90EF90DF90CF90BF90AF909F
:1027800008950F931F93CF93DF93C82F8091660214
:10279000909167020E941E24EC2FF0E0E85AFA4F55
:1027A000E491F0E08E179F0708F464C00E941224A1
:1027B000909367028093660280E090E0FC01E0590C
:1027C000FC4F11821082128204968C339105B1F76E
:1027D000C0E0D0E00FE010E0CE01B8010E94553318
:1027E000FC0180916502992787FD9095EE0FFF1FF0
:1027F000EE0FFF1FC817D907FCF08091030199273E
:1028000087FD90958C179D07BCF09F0120593C4F88
:1028100080916B03881F8827881F90916C03592F24
:10282000550F97FB992790F940916E0360916D03C6
:10283000852B0E94FD0E05C0E059FC4F11821082CD
:1028400012822196CF30D10539F60E94C70F8091B0
:10285000020190916502980F909365022091030107
:10286000280F20930301121614F49E301CF081955A
:1028700080930201DF91CF911F910F910895EF9204
:10288000FF920F931F93CF93DF93809163029091F8
:1028900064020E941E24883E9340D0F10E941224BC
:1028A0009093640280936302C0916102D0916202AE
:1028B0002196C170DD27D0936202C093610280E748
:1028C000E82E83E0F82E10E008E7812F8695FE01C0
:1028D000E80FF11DCF0181709927970140916E0398
:1028E00060916D03FC010E9FC0010F9F900D11249C
:1028F0000E94FD0E1F5FF4E0EF0EF11C1F3029F760
:10290000DF91CF911F910F91FF90EF900C94C70F23
:10291000DF91CF911F910F91FF90EF900895CF938A
:10292000DF9300D000D0CDB7DEB780915F029091E9
:1029300060020E941E24ECE4F5E025913491821798
:102940009307C0F180915E0281110CC09E012F5F40
:102950003F4F4FEF6FEF80E090E00E94FD0E8A81C5
:1029600080935E020E9412249093600280935F0223
:1029700080915D02813051F028F0823061F4409105
:102980005E020AC080915E0240E007C060915E0274
:1029900040E080E003C040E080E060E00E94DE0FA5
:1029A00080915D0290E0019663E070E00E945533F3
:1029B00080935D020F900F900F900F90DF91CF9159
:1029C0000895CF93DF9380915B0290915C020E9407
:1029D0001E24843F914008F444C00E941224909326
:1029E0005C0280935B02C0E0D0E0209159023091FC
:1029F0005A0280916B0390916C03C730D1051CF48F
:102A0000232B79F002C0232B61F4881F8827881FAD
:102A1000392F330F97FB992790F92C2F40916E0394
:102A20000AC0881F8827881F392F330F97FB9927E3
:102A300090F92C2F40E060916D03832B0E940D12C2
:102A40002196CF30D10589F60E94C70F8091590297
:102A500090915A0201968170992790935A0280931F
:102A60005902DF91CF910895809176028823D9F1A0
:102A700090916B03892F86958F732EE3280F2F7308
:102A8000243018F482500C944B122AE3280F2F7331
:102A9000233018F486500C94A21227E3280F2F73CA
:102AA000263018F489500C94D21221E3280F2F738A
:102AB000263018F48F500C942F132BE2280F2F730D
:102AC000233018F485510C94C113892F8E778033ED
:102AD00011F40C943F14863411F40C948F14883440
:102AE00011F40C94E1140895882319F05198599A1F
:102AF00002C0519A59985098589A95E09A95F1F7D2
:102B00000000509A589895E09A95F1F700008823B4
:102B100011F0519A599885E08A95F1F700000895CF
:102B20008BB18C7F8BB95098589A5198599A85E0FF
:102B30008A95F1F7000008958AB18C7F8AB985E003
:102B40008A95F1F70000519A599885E08A95F1F736
:102B50000000509A589885E08A95F1F70000089592
:102B60005098589A85E08A95F1F700005198599A43
:102B700085E08A95F1F700000895CF93DF93D82F71
:102B8000C8E08D2F80780E947415DD0FC150C9F701
:102B900080E00E94741585E08A95F1F7000085E0D9
:102BA0008A95F1F7000080E0DF91CF9108952BB175
:102BB000342F309523233BB1432B3FB7F894FC01CE
:102BC000680F791FE617F70789F0819198E04BB9F4
:102BD000000000C087FF2BB9880F000000C000C0B4
:102BE00000C02BB900C09A9591F7ECCF3FBF089574
:102BF000AF92BF92CF92DF92EF92FF920F931F930B
:102C0000CF93DF938C01EB01CFB6D090BC00F8944A
:102C10008091BC008B7F8093BC000E9490150E9425
:102C20009C1584E80E94BD15CC0FDD1FCC0FDD1F65
:102C300078015801AC0EBD1EEA14FB0431F0F70117
:102C400081917F010E94BD15F7CF0E94B015CFBEC4
:102C5000D092BC00579A40E8BE01C801DF91CF91E5
:102C60001F910F91FF90EF90DF90CF90BF90AF90AA
:102C70000C94D71590937C0280937B020895E09189
:102C80007B02F0917C02309721F00190F081E02DE1
:102C9000099480E00895E0917B02F0917C023097E6
:102CA00021F00280F381E02D09940895E0917B02E8
:102CB000F0917C02309721F00480F581E02D099499
:102CC00008952091790230917A028217930771F06A
:102CD00090937A0280937902E0917B02F0917C02DA
:102CE000309721F00680F781E02D09940895209116
:102CF0007702309178028217930771F090937802EF
:102D000080937702E0917B02F0917C02309721F072
:102D10000084F185E02D0994089508950C948D1692
:102D200081E008950E94092485B7806885BF85B732
:102D3000806885BF0E94EC040E94A0240C94CA11F4
:102D4000CF92DF92EF92FF920F931F93CF93DF9377
:102D5000CDB7DEB72B970FB6F894DEBF0FBECDBF51
:102D60000E945E050E949016811111C08FEF898329
:102D70008A831B820E9412248160782F9D838C831A
:102D800049815A816B818D810E94841756C08EE7DC
:102D9000C82E82E0D82E00E010E0E02E802F0E94A6
:102DA000CC05F60141916F01F42EF82631F40F5F46
:102DB0001F4F0E30110589F7D9CF9091390391FF3C
:102DC00004C08B870E94D2058B8520E030E04F2D18
:102DD00050E0922FBA01022E02C0759567950A94B1
:102DE000E2F760FF24C02E83EF8221E030E069012A
:102DF00002C0CC0CDD1C9A95E2F790E08C219D215D
:102E0000892B09F420E028870E9412248160782F02
:102E10009A8789874E815F8168858A850E94841799
:102E2000F801E258FD4F8081C826C08206C02F5F9E
:102E30003F4F2630310569F6BACF0E9433261091F4
:102E40007D020E943F161817A1F00E943F16809342
:102E50007D022B960FB6F894DEBF0FBECDBFDF917B
:102E6000CF911F910F91FF90EF90DF90CF900C9436
:102E70005F082B960FB6F894DEBF0FBECDBFDF9173
:102E8000CF911F910F91FF90EF90DF90CF90089519
:102E9000DC0111962C9111978C91682F70E041E024
:102EA00050E001C0440F8A95EAF712968C91129770
:102EB00030E0882329F080919C028823E9F006C045
:102EC000F901E457FD4F90819423B1F086E0829F91
:102ED000F001839FF00D1124E60FF71FEE0FFF1F87
:102EE000EA5EFE4F808191818D939C93F901E457B6
:102EF000FD4F8081482B06C0F901E457FD4F4095F6
:102F00008081482340830895CF93DF93CDB7DEB708
:102F10002B970FB6F894DEBF0FBECDBF942F4F8313
:102F2000252F588769877A878B874A855B85452B4C
:102F300021F02F3F09F59F3FF9F4DE01119686E05D
:102F4000FD0111928A95E9F785E0FE01379601901F
:102F50000D928A95E1F749815A816B817C818D813F
:102F60009E810E94F31E2B960FB6F894DEBF0FBE13
:102F7000CDBFDF91CF910895CE0107960E944817EB
:102F8000DCCFFC01808191810E94BD2192959F70D0
:102F9000963041F480919C0291E0892780939C02B5
:102FA00090939B020895CF93DF931F92CDB7DEB726
:102FB000882309F403C1682F8238C1F40E943F16A8
:102FC00081FDFCC069E380910401909105010E949C
:102FD00074230E941C222FEF81EE94E02150804048
:102FE0009040E1F700C0000069E319C0833811F593
:102FF0000E943F1680FDE2C063E58091040190913C
:1030000005010E9474230E941C222FEF81EE94E0A0
:10301000215080409040E1F700C0000063E58091BE
:103020000401909105010E947F230F90DF91CF91C1
:103030000C941C228438C1F40E943F1682FDBEC04D
:1030400067E480910401909105010E9474230E941D
:103050001C222FEF81EE94E0215080409040E1F758
:1030600000C0000067E4DBCF8CEF860F813A70F47C
:10307000862F69830E946928698181119FC0809190
:103080000401909105010E947423CFCF80E2860F46
:10309000883048F4677081E001C0880F6A95EAF7CC
:1030A0000E945222C2CF8BE5860F833088F4653AA6
:1030B00029F0663A31F083E890E005C081E890E0BD
:1030C00002C082E890E00F90DF91CF910C946116DE
:1030D00088E5860F853108F071C0683A61F1693A78
:1030E00069F16A3A71F16B3A79F16C3A81F16B3BB3
:1030F00089F16C3B91F16D3A99F1603BA1F16E3A27
:10310000A9F16F3AB1F1613BB9F1623BC1F1633BA7
:10311000C9F1643BD1F1653BD9F1663BE1F1673B15
:10312000E9F1683BF1F1693BF9F16A3B09F43FC011
:1031300080E090E03EC082EE90E03BC089EE90E0FF
:1031400038C08AEE90E035C085EB90E032C086EB67
:1031500090E02FC083EB90E02CC084EB90E029C07E
:1031600087EB90E026C08CEC90E023C08DEC90E0E3
:1031700020C083E891E01DC08AE891E01AC082E98E
:1031800091E017C084E991E014C081E292E011C09F
:1031900083E292E00EC084E292E00BC085E292E00E
:1031A00008C086E292E005C087E292E002C08AE2AF
:1031B00092E00F90DF91CF910C9477160F90DF91F2
:1031C000CF910895882309F45BC0682F823879F481
:1031D0000E943F1681FF54C069E3809104019091E1
:1031E00005010E9474230E941C2269E310C08338E9
:1031F000B1F40E943F1680FF43C063E58091040153
:10320000909105010E9474230E941C2263E5809125
:103210000401909105010E947F230C941C228438A4
:1032200079F40E943F1682FF2BC067E4809104016D
:10323000909105010E9474230E941C2267E4E7CF4D
:103240008CEF860F813A18F380E2860F883048F4BD
:10325000677081E001C0880F6A95EAF70E945822E2
:10326000DCCF8BE5860F833020F480E090E00C9477
:103270006116685A653120F480E090E00C9477166E
:103280000895882321F00E9452220C941C22089554
:10329000882321F00E9458220C941C2208958F92BA
:1032A0009F92AF92BF92DF92EF92FF920F931F9384
:1032B000CF93DF937C01D62FC72FFC0105810295A8
:1032C0000F70128111110E946F220E941522882313
:1032D00079F0112369F080E28D0F883048F082E0A8
:1032E0000E94FE210E94152291E0D82ED92601C00D
:1032F000D12CAC2EA2948FE0A822B12CF501EB5773
:10330000FF4F0C9469338C2F807FCF70882311F08E
:10331000C295C07F112399F0CC2309F4C8C180E283
:103320008D0F883010F0D11104C08C2F0E945222D2
:1033300003C08C2F0E9462220E941C22B8C18D2FD4
:103340000E94E218CC2309F42EC280E28D0F88304F
:1033500010F0D11104C08C2F0E94582203C08C2F72
:103360000E9468220E941C221EC28C2F807FCF7078
:10337000803211F0C295C07FDD2319F0D130C9F041
:1033800021C0112371F0002341F0013031F40E947B
:1033900088228C2B0E94822206C20E9488228C2BBB
:1033A0003FC1002319F0013009F4FDC10E948522BC
:1033B00011C0112321F0023008F0F5C107C001113E
:1033C000F2C108C0112321F0011171C18C2F28C155
:1033D00001117EC18C2F2AC18C2F86958695837012
:1033E00090E0009719F0019761F0DDC1112321F001
:1033F0008D2F9C2F937002C080E090E00E94611698
:10340000E2C1112321F08D2F9C2F937002C080E028
:1034100090E00E947716D7C11123F9F0D53F51F003
:10342000D63F71F0D43FA9F48091AC039091AD03E5
:1034300081600BC08091AC039091AD03826005C0A8
:103440008091AC039091AD0384609093AD03809321
:10345000AC038D2F0E943B251EC0D53F51F0D63FB7
:1034600071F0D43FA9F48091AC039091AD038E7FAD
:103470000BC08091AC039091AD038D7F05C080910E
:10348000AC039091AD038B7F9093AD038093AC031D
:103490008D2F0E94A3250E94282695C18C2F837012
:1034A00009F050C011118BC18D2F829586958770C0
:1034B000880F880F9D2F9F70892E912CA12CB12CE5
:1034C000082E04C0880C991CAA1CBB1C0A94D2F7B5
:1034D000D4FF14C00FE010E020E030E0B901A801F3
:1034E00004C0440F551F661F771F8A95D2F7CB0182
:1034F000BA01609570958095909503C060E070E08A
:10350000CB01C695C695C370D0E0C230D10561F03D
:10351000C330D10581F0682979298A299B2921970F
:1035200071F00E9436204BC1682979298A299B298C
:103530000E94482044C10E943620C501B4010E9467
:1035400024203DC1112319F08C2F817001C0869574
:10355000882309F434C18D2F829586958770880F52
:10356000880F9D2F9F70892E912CA12CB12C082E95
:1035700004C0880C991CAA1CBB1C0A94D2F7D4FF67
:1035800014C00FE010E020E030E0B901A80104C051
:10359000440F551F661F771F8A95D2F7CB01BA01DA
:1035A000609570958095909503C060E070E0CB01C8
:1035B000C695C695C3704C2F50E04230510569F056
:1035C0004330510589F0682979298A299B2941309E
:1035D000510571F00E94FC20F2C0682979298A29DE
:1035E0009B290E940E21EBC00E94FC20C501B40162
:1035F0000E94EA20E4C08D2F90E0FC01E05EF1091A
:10360000E531F10508F04FC0EB56FF4F0C946933DC
:10361000DF708C2F8F71112331F00E9483208D2F4A
:103620000E944119C0C00E94A4208D2F0E944819F9
:10363000BAC0112339F00111B6C08C2F8F710E94CE
:10364000C920B1C0023008F0AEC0F7CF112339F065
:103650008C2F8F710E948320A6C01123C9F38C2F59
:103660008F710E94A4209FC0112329F08C2F8F718D
:103670000E946E2098C00E94692095C0112349F0D5
:10368000CF718C2F0E94832063E08C2F0E94F52144
:103690008AC081E00E94FE21023008F484C082E0EA
:1036A0000E94FE2180C0112331F0002389F28D2F6A
:1036B0000E94D31778C0002391F2D93349F45FEF09
:1036C00067EE73E0515060407040E1F700C00000C9
:1036D0008D2F0E94E21867C04C2F4F706D2FC701CD
:1036E0000E9492070E94971F6EC0D23FB1F028F44B
:1036F000D03F49F0D13FF9F028C0D43FB9F058F09D
:10370000D53F71F022C0112309F447C090919C026B
:1037100081E0892708C081E0182710939C023DC0F2
:1037200011113BC081E080939C0237C0111135C05C
:1037300010929C0232C0112329F080919B028823B1
:1037400029F329C0002311F328C080919B02002394
:10375000C1F0882341F090919C0281E089278093F9
:103760009C0210929B028D2F112319F00E94D317F7
:1037700014C00E94E21886E0F70111928A95E9F7D9
:103780000CC0882351F0111108C090919C0281E077
:10379000892780939C0210929B024C2F4F706D2FB3
:1037A000C7010E942A0BF8E0AF16B10441F05CF0AB
:1037B0004AE0A41AB10852E0A516B10420F40E9410
:1037C0003F160E945F08DD20E1F00E94F12180FD9C
:1037D00018C0F70112820E94EB210E948320C701CA
:1037E0000E940D1C0E94EB21DF91CF911F910F9140
:1037F000FF90EF90DF90BF90AF909F908F900C94D0
:10380000A420DF91CF911F910F91FF90EF90DF9057
:10381000BF90AF909F908F9008950F931F93CF9379
:10382000DF93EC01888199812B813C81232BB9F0B6
:103830009F3F11F48F3F99F0CE010E9471088823B9
:1038400071F0688179818A810E94C8218C010E946F
:1038500020210E942120B801CE010E944F19DF9142
:10386000CF911F910F9108950E946F220E947F2295
:1038700080910401909105010E948A230E941C22DC
:103880000E94CE260E94282680E090E00E946116C9
:1038900080E090E00C9477160E945F220C94341C18
:1038A0000E94BD21E92FE295EF70F0E03297EE30F3
:1038B000F105B0F4E655FF4F0C946933803F91F069
:1038C00018F4803E68F40EC0843F51F40BC0803E73
:1038D00048F0813F29F406C093FB882780F90895BA
:1038E00080E0089581E00895CF93DF9300D000D069
:1038F0001F92CDB7DEB70F900F900F900F900F90E3
:10390000DF91CF910895CF93DF9300D000D000D006
:10391000CDB7DEB726960FB6F894DEBF0FBECDBF8B
:10392000DF91CF9108951F93CF93DF93C0919D02B4
:1039300016E080919E02C81799F0D0E01C9FF0011C
:103940001D9FF00D1124E156FD4F40815181628190
:103950007381848195810E94831C2196C770E9CF71
:10396000DF91CF911F9108954091CF025091D002E5
:103970006091D1027091D2028091D3029091D402D1
:103980000C94831C8091D40282958F7009F054C0EE
:103990008091D102882309F44FC080919D02A091AB
:1039A0009E026091CF027091D0024091D20250915C
:1039B000D302B6E08A1709F43FC090E041155105E3
:1039C000C1F17F3F11F46F3FA1F1B89FF001B99FA2
:1039D000F00D1124E156FD4F218172132AC0208180
:1039E000621327C02281211124C02381348124172E
:1039F000350710F421503109241B350B283C3105C3
:103A0000C0F42091D4022F7020612093D40226E0CC
:103A1000289FF001299FF00D1124EC55FD4F808166
:103A20008F70806180838FEC92E00E940D1C0C945B
:103A3000931C01968770BECF0895CF92DF92EF92CC
:103A4000FF920F931F93CF93DF93CDB7DEB76297AB
:103A50000FB6F894DEBF0FBECDBF8C0185E0F80134
:103A6000DE011D9601900D928A95E1F7D8014C91E7
:103A700011965C91119712966C9112971396CD90B6
:103A8000DC9014973091CF027091D0028091D202D5
:103A90009091D302009709F46BC17F3F19F43F3F27
:103AA00009F466C1E090D102EE2009F4C0C0209173
:103AB000D402C816D90628F0F601E81BF90BCF018D
:103AC00004C0809590958C0D9D1DFF24F394883C37
:103AD000910578F0F12C207F09F0C6C07C2DD98AA1
:103AE000C88A89890E94741C8FEC92E00E940D1C88
:103AF000B1C0822F807F09F046C0751314C0341303
:103B000012C0611110C02F7020612093D4020E9456
:103B1000B41C8FEC92E00E940D1C8091D402D8015D
:103B200015968C932EC0CD2819F15F3F11F44F3FAD
:103B3000F9F0F62E61111CC080919D0220919E0229
:103B400036E0821709F45AC090E0389FF001399F9F
:103B5000F00D1124E156FD4F7181571306C070819D
:103B6000471303C07281711103C001968770E9CFBA
:103B7000F62E662309F427C18091D40281608093D8
:103B8000D402F12C20C1751308C0341306C0611192
:103B900004C08091D402D801C3C04D875E878D8553
:103BA0009E856A8B0E94501C6A898823E1F16623F6
:103BB000D1F12091D402822F82958F7090E00297EC
:103BC00074F08091CF029091D00298878F831986EC
:103BD000DB86CA862C87CE0107960E940D1C86E0E4
:103BE000F801AFECB2E001900D928A95E1F70E94E6
:103BF000C21C0E94B41CFF24F394E5C04D875E876D
:103C00008D859E850E94BD21292F22952F7030E041
:103C1000223031050CF0CBC09F7009F0C5C0805E2A
:103C2000883008F4D0C0C8010E940D1CE4CFC8162B
:103C3000D90608F453C0F601E81BF90BCF01883C04
:103C4000910508F450C0F12C7C2DD98AC88A898945
:103C50000E94741CEFECF2E086E0DF011D928A9571
:103C6000E9F70E94B41CAFC0751314C0341312C01E
:103C7000611110C08091D402F8018583C8010E94AF
:103C80000D1C86E0EFECF2E0DF011D928A95E9F76A
:103C9000FE2C99C04D875E878D859E856A8B0E941C
:103CA000501C6A89882309F4BECF662309F4BBCF70
:103CB0002091D402822F82958F7090E002970CF4AD
:103CC0008ECF8091CF029091D0029A8389831B82FC
:103CD000DD82CC822E83CE0101967FCF8095909598
:103CE0008C0D9D1DACCFF62E662309F49CCF751369
:103CF0002EC034132CC02091D40220FD1FC0822F6F
:103D000082958F70D9F0D80115962C9315978F3026
:103D100049F08F5F982F9295907F822F8F70892B1B
:103D200015968C93C8010E940D1C86E0F801AFEC3B
:103D3000B2E001900D928A95E1F793CF86E0F80109
:103D4000AFECB2E001900D928A95E1F73CC04D874F
:103D50005E878D859E850E94501C811140CF809189
:103D6000D40281608093D402C8010E940D1C2BC034
:103D7000662309F458CF4D875E878D859E850E9406
:103D8000501CF82E882309F44ECF86E0F801AFECE2
:103D9000B2E001900D928A95E1F78FEC92E00E94DB
:103DA000C1170E94C21C5DCF811139CF0CC02430D5
:103DB00031050CF038CF9F7009F431CFF8019581AF
:103DC000907F09F02CCF8F2D62960FB6F894DEBF4E
:103DD0000FBECDBFDF91CF911F910F91FF90EF905C
:103DE000DF90CF9008951F93CF93DF93CDB7DEB7C9
:103DF0002C970FB6F894DEBF0FBECDBF4F83588708
:103E000069877A878B879C87CE0107960E941D1D44
:103E1000882369F08F8198852A853B85232BF1F1D2
:103E20009F3F09F063C08F3F09F060C037C086E054
:103E3000FE013796DE01119601900D928A95E1F709
:103E40006F817885EA85FB85309741F17F3F11F4DA
:103E50006F3F21F120919E0230E0C90101968770E9
:103E6000992740919D0250E08417950709F447C0B7
:103E700069837A83FD83EC8396E0929FD001939FC0
:103E8000B00D1124A156BD4FFE01319601900D9247
:103E90009A95E1F780939E020E94931C16E0809110
:103EA0009D0290919E028917C1F1189FC0011124B3
:103EB00081569D4F0E941D1D882379F1E0919D023E
:103EC0001E9FF0011124E156FD4F40815181628116
:103ED0007381848195810E94831C80919D0290E072
:103EE00001968770992780939D02D9CF4F8158857D
:103EF00069857A858B859C850E94831CCFCF0E9423
:103F00004C1C10929E0210929D02EFECF2E086E0B3
:103F1000DF011D928A95E9F7C1CF2C960FB6F89470
:103F2000DEBF0FBECDBFDF91CF911F910895EF92FD
:103F3000FF920F931F93CF93DF938C01892B09F48A
:103F40006CC0F12CEE24E394E8012196F8018491F1
:103F5000843740F4843008F051C0813081F08230E1
:103F600019F15BC0853709F444C0A8F19CE7980FAC
:103F7000903708F052C08F770E94E21841C00E5F60
:103F80001F4FFE01C49180E28C0F883048F4C77047
:103F90008E2D01C0880FCA95EAF70E94722214C0C4
:103FA0008C2F0E94D3172DC00E5F1F4FFE01C491AE
:103FB00080E28C0F883058F4C7708E2D01C0880FB6
:103FC000CA95EAF70E9478220E941C221AC08C2F00
:103FD0000E94E21816C00E5F1F4FFE01C491CC2351
:103FE00081F08FE99FE00197F1F700C00000C15018
:103FF000F6CF0E5F1F4FFE01F49003C00E94D3174F
:104000008E018F2D882309F49FCFEFE9FFE03197D0
:10401000F1F700C000008150F5CFDF91CF911F91E3
:104020000F91FF90EF90089508950E9414206093DF
:1040300010037093110380931203909313030C9455
:10404000341C08950C9415200F931F9300911003B6
:10405000109111032091120330911303602B712BE7
:10406000822B932B1F910F910C9415200F931F936C
:10407000009110031091110320911203309113034A
:1040800060237123822393231F910F910C94152099
:104090000F931F93009110031091110320911203AD
:1040A0003091130360277127822793271F910F9167
:1040B0000C94152008950C945A200E945B20609364
:1040C0000C0370930D0380930E0390930F030C94D5
:1040D000341C60E070E0CB010C945D200F931F93C3
:1040E00041E050E060E070E08A019B0104C0000FF5
:1040F000111F221F331F8A95D2F7C901B8011F91E2
:104100000F910C945D200F931F9341E050E060E00D
:1041100070E004C0440F551F661F771F8A95D2F7C1
:1041200080910C0390910D03A0910E03B0910F03A9
:104130008A019B01082B192B2A2B3B2BC901B801A3
:104140001F910F910C945D200F931F9341E050E05D
:1041500060E070E004C0440F551F661F771F8A950A
:10416000D2F7409550956095709580910C03909191
:104170000D03A0910E03B0910F038A019B01082348
:1041800019232A233B23C901B8011F910F910C94D5
:104190005D200F931F9341E050E060E070E004C0A9
:1041A000440F551F661F771F8A95D2F780910C0325
:1041B00090910D03A0910E03B0910F038A019B0112
:1041C000082719272A273B27C901B8011F910F91FA
:1041D0000C945D200F931F9300910C0310910D031D
:1041E00020910E0330910F03602B712B822B932BA8
:1041F0001F910F910C945D200F931F9300910C035E
:1042000010910D0320910E0330910F036023712351
:10421000822393231F910F910C945D200F931F9382
:1042200000910C0310910D0320910E0330910F03A8
:1042300060277127822793271F910F910C945D208F
:104240000895292F220F920F990F890FA82FA69555
:10425000A695A695877051E001C0550F8A95EAF79B
:1042600085E0A89FD001112420E030E070E0F90142
:10427000EA0FFB1FEB52FD4F4081CB01022E02C023
:10428000969587950A94E2F78170992781958427FE
:104290008523842780832F5F3F4F2530310539F7F1
:1042A0000895292F220F920F990F890F682F669575
:1042B00066956695982F977085E0689FB0011124E8
:1042C00040E050E080E0FA01E60FF71FEB52FD4FAF
:1042D000208130E0092E02C0369527950A94E2F736
:1042E00021703327042E01C0220F0A94EAF7822B93
:1042F0004F5F5F4F4530510531F70895CF92DF9200
:10430000EF92FF920F931F93CF93DF938C01C09096
:104310001003D0901103E0901203F09013038091EA
:104320000C0390910D03A0910E03B0910F03C82AC6
:10433000D92AEA2AFB2ACFE1D0E0D701C6010C2E08
:1043400004C0B695A795979587950A94D2F780FFF4
:1043500006C0B8018C2F0E94450B019721F42197CC
:1043600060F780E001C08C2FDF91CF911F910F91FA
:10437000FF90EF90DF90CF900895CF93DF93EC0103
:104380000E947E21BE010E94450BDF91CF910895CE
:104390001F93CF93DF93EB0190919A02992321F021
:1043A000CB010E94BD2113C0882349F0CB010E949C
:1043B0007E21182F682FCE010E94212104C0CB013D
:1043C0000E945121182FBE01812F0E94450BDF91C1
:1043D000CF911F91089580911403859585958595BA
:1043E0000895809114038770089598E0899F900143
:1043F0001124262B209314030C9483202091140362
:104400008095822380931403982F977069F430E08D
:10441000482F552747FD50952417350729F08595D6
:10442000859585950C94A420089590911403977018
:1044300081E009F480E00895E0910401F091050124
:10444000809138038083E0910401F091050190810F
:1044500080913703892B8083E0910401F09105015D
:10446000908180913603892B808380911503882366
:1044700081F0E0910401F09105019081892B808306
:1044800080910401909105010E94182381111092DE
:10449000150380910401909105010C944B168091B5
:1044A0003803089590913803892B80933803089539
:1044B0008095909138038923809338030895109252
:1044C0003803089590913703892B8093370308951B
:1044D0008095909137038923809337030895109234
:1044E0003703089590913603892B809336030895FE
:1044F0008095909136038923809336030895109216
:1045000036030895809315030895109215030895B6
:10451000809115030895CF92DF92EF92FF926C0184
:10452000EE24FF24C114D104E104F10421F0C701F9
:10453000B60120E101C020E0C72ED82EE92EFF24CD
:10454000C114D104E104F10419F0285FC701B601D8
:104550006B017C0154E0F694E794D794C7945A9584
:10456000D1F7C114D104E104F10419F02C5FC701A3
:10457000B6016B017C0142E0F694E794D794C794AE
:104580004A95D1F7C114D104E104F10419F02E5F6A
:10459000C701B601DC01CB01B695A7959795879524
:1045A000892B8A2B8B2B09F02F5F822FFF90EF90A6
:1045B000DF90CF9008956DEE7EEF80E090E00E9456
:1045C000A13360E082E090E00E94833360E083E00A
:1045D00090E00E94833360E084E090E00E948333A7
:1045E00060E085E090E00E94833340E050E0BA0153
:1045F00088E090E00C94953380E090E00E947D3359
:1046000021E08D3E9E4F09F020E0822F089582E048
:1046100090E00C946F3383E090E00C946F3384E06F
:1046200090E00C946F33682F84E090E00C94833317
:10463000FC0131969C01205E3F4F80E091919111E9
:104640008F5FE217F307D1F708959C01FC013296C2
:104650009FEF80E04191461789F09F3F19F4411187
:1046600001C0982F8F5F8E31A9F79F3F39F0F90174
:10467000E90FF11D97FDFA95628308950895FC01F5
:10468000329680962081261301C010823196E81759
:10469000F907C1F70895262F2695269526952F31DF
:1046A00068F4FC01E20FF11D677021E030E001C009
:1046B000220F6A95EAF78181282B21830895262FFE
:1046C0002695269526952F3170F4FC01E20FF11DF9
:1046D000677021E030E001C0220F6A95EAF720956B
:1046E000818128232183089520911501222329F017
:1046F0002091B20327FD0C944B230C942523209189
:104700001501222329F02091B20327FD0C945F2389
:104710000C943F23FC01319680961192E817F9071B
:10472000E1F7089508950C9492238091B8038430A2
:1047300031F110923A0320E488E190E00FB6F8944A
:10474000A895809360000FBE2093600080E00E94D7
:104750005F080E94932383B7817F846083BF83B700
:10476000816083BF7894889583B78E7F83BF88E10B
:104770000FB6F89480936000109260000FBE089509
:104780000895CF930E940E050E945E050E94C023EB
:10479000C0E08C2F0E94CC05811104C0CF5FCE30C9
:1047A000C1F701C081E0CF91089508950C94D523FD
:1047B0000E944C1C0E943F160E945F080C94D62356
:1047C0001F920F920FB60F9211248F939F93AF9366
:1047D000BF9380913A03811113C08091AE039091F1
:1047E000AF03A091B003B091B1034196A11DB11DDB
:1047F0008093AE039093AF03A093B003B093B10343
:10480000BF91AF919F918F910F900FBE0F901F900E
:10481000189582E084BD93E095BD9AEF97BD809393
:104820006E0008952FB7F8948091AE039091AF0376
:10483000A091B003B091B1032FBF0895CF92DF9242
:10484000EF92FF920F931F932FB7F8944091AE030E
:104850005091AF036091B0037091B1032FBF6A0113
:104860007B01EE24FF248C0120E030E0C016D1064D
:10487000E206F30610F4415051099A01281B390B46
:10488000C9011F910F91FF90EF90DF90CF90089595
:1048900078941F920F920FB60F9211248F939F93CB
:1048A000AF93BF938091AE039091AF03A091B003FB
:1048B000B091B1030196A11DB11D8093AE039093F9
:1048C000AF03A093B003B093B103BF91AF919F9199
:1048D0008F910F900FBE0F901F901895F89481E064
:1048E0008093E00080E28093D800E9ECF0E0108251
:1048F0008FE19EE40197F1F700C000001DBA10920D
:1049000068001CBC10BE1FBA10927A0010926E0094
:1049100010926F0010927100109272001082ECEBF6
:10492000F0E0108214B817B81AB81DB810BA108287
:1049300015B818B81BB81EB811BA0C94003F0895EA
:104940000E94FC22811102C00E94DB220E940723E8
:10495000809339030E940F2390E09093B3038093D8
:10496000B2030E940B23682F70E080E090E00C946B
:10497000222080913E0380FF0BC06091090185E0F9
:10498000689FB001112475956795759567952BC043
:1049900081FF09C06091090185E0689FB001112481
:1049A0007595679520C082FF07C06091090185E079
:1049B000689FB001112417C090913F039923D1F053
:1049C00060910801961788F72091090185E0289FDA
:1049D00090011124929FA001939F500D112470E02B
:1049E000CA010E9455336038710540F461157105A4
:1049F00039F002C065E070E0862F08958FE70895D2
:104A000081E0089580913E0380FF08C06091070116
:104A100070E0759567957595679521C081FF06C013
:104A20006091070170E07595679519C082FF04C019
:104A30006091070170E010C090913F039923C1F08D
:104A4000609106019617A0F780910701899FC00128
:104A5000112470E00E9455336038710528F4611507
:104A6000710521F0862F08958FE7089581E008955C
:104A700061E070E0F4CF803F21F40E94B924819579
:104A800004C0813F29F40E94B92480934203089511
:104A9000823F21F40E94B924819504C0833F29F408
:104AA0000E94B924809341030895893F19F40E941C
:104AB000022505C08A3F31F40E940225819580932A
:104AC000430308958B3F21F40E940225819504C081
:104AD0008C3F29F40E940225809344030895843F6B
:104AE00021F480914003816017C0853F21F48091BB
:104AF0004003826011C0863F21F4809140038460AE
:104B00000BC0873F21F480914003886005C0883F37
:104B100031F48091400380618093400308958D3F7C
:104B200021F480913E0381600BC08E3F21F480917F
:104B30003E03826005C08F3F29F480913E0384606C
:104B400080933E030895803F39F48091420387FFAC
:104B50006CC01092420369C0813F29F480914203E6
:104B60001816BCF362C090914103823F29F497FF6D
:104B70005CC01092410359C0833F19F41916CCF35D
:104B800054C0893F41F48091430318160CF04DC086
:104B9000109243034AC08A3F29F48091430387FF60
:104BA00044C0F6CF8B3F39F48091440387FF3DC06A
:104BB000109244033AC08C3F29F4809144031816A4
:104BC000BCF333C0843F21F4809140038E7F17C033
:104BD000853F21F4809140038D7F11C0863F21F4F1
:104BE000809140038B7F0BC0873F21F4809140036D
:104BF000877F05C0883F31F4809140038F7E80938A
:104C0000400313C08D3F21F480913E038E7F0BC083
:104C10008E3F21F480913E038D7F05C08F3F29F4A4
:104C200080913E038B7F80933E03809141038111ED
:104C30000EC08091420381110AC08091430381110B
:104C400006C080914403811102C010923F03089571
:104C500080E493E00E9456160E94122490933C0335
:104C600080933B0308951F93CF93DF9380913B0381
:104C700090913C030E941E24AC0190913F03992324
:104C800021F020910A0130E006C020913D038AE026
:104C9000289F900111244217530708F47BC080918C
:104CA0004103C0914203D091430310914403811109
:104CB00007C0C1116BC0D11169C0111167C06AC0B2
:104CC0009F3F19F09F5F90933F03181624F40E94B2
:104CD000B924809341038091410387FF05C00E945E
:104CE000B9248195809341031C1624F40E94B924B1
:104CF000809342038091420387FF05C00E94B9243C
:104D0000819580934203309141033323E1F0209158
:104D100042032223C1F045EB3403C0011124892F43
:104D2000990F990B009709F481E08093410335EBCB
:104D30002303C0011124892F990F990B009709F4BF
:104D400081E0809342031D1624F40E940225809383
:104D500043038091430387FF05C00E94022581958C
:104D600080934303111624F40E9402258093440388
:104D70008091440387FF05C00E940225819580939E
:104D80004403DF91CF911F910C9428269F3F09F097
:104D900099CFA1CFDF91CF911F910895E0E4F3E087
:104DA00085E0DF011D928A95E9F710923F0310928A
:104DB0003E030895833081F128F4813059F0823028
:104DC000D1F00895853009F449C0B8F1863009F46E
:104DD00056C0089580913D03262F30E0280F311DE5
:104DE0002F3F310524F4680F60933D0308958FEF42
:104DF00080933D03089580910A01262F30E0280F0B
:104E0000311D2F3F310524F4680F60930A01089586
:104E10008FEF80930A01089580910901262F30E0D9
:104E2000280F311D2F3F310524F4680F60930901CD
:104E300008958FEF80930901089580910801262F2E
:104E400030E0280F311D2F3F310524F4680F6093A7
:104E5000080108958FEF809308010895809107015C
:104E6000262F30E0280F311D2F3F310524F4680F25
:104E70006093070108958FEF809307010895809153
:104E80000601262F30E0280F311D2F3F310524F475
:104E9000680F6093060108958FEF809306010895CF
:104EA000833011F128F4813049F0823091F0089577
:104EB000853081F120F18630C1F1089580913D0364
:104EC000681720F4861B80933D03089510923D03DC
:104ED000089580910A01681720F4861B80930A01C7
:104EE000089510920A01089580910901681720F42D
:104EF000861B8093090108951092090108958091FD
:104F00000801681720F4861B809308010895109209
:104F10000801089580910701681720F4861B80938B
:104F200007010895109207010895809106016817FE
:104F300020F4861B809306010895109206010895BF
:104F40000F931F93873208F04DC08E3108F093C045
:104F5000803109F47DC008F5873009F46BC068F42E
:104F6000863009F0A3C080913903817F8E7F8093C2
:104F7000390381E0809346039AC08B3009F48FC0D7
:104F80008E3009F093C08091390382FB222720F9EB
:104F900091E0922790FB82F964C0863109F47FC0CA
:104FA00088F4813109F082C00E944C1C8091B203C8
:104FB00087FB222720F991E0922790FB87F98093C5
:104FC000B2036DC0893109F46AC08B3109F06EC03B
:104FD0008091390381FB222720F991E0922790FBF1
:104FE00081F93FC0883309F45AC050F4893209F47A
:104FF00058C0853309F455C0873209F452C056C0F1
:10500000833409F44EC028F48A3308F44FC089531E
:1050100033C0883409F04AC00E944C1C0FEF13EDD6
:1050200020E3015010402040E1F700C000000E9442
:105030006E2435C080913903982F9095917090FB24
:1050400080F98093390391112AC0897F877F10C02E
:105050008091390383FB222720F991E0922790FB6E
:1050600083F9809339039923D1F0809139038160CA
:105070008093390314C08D5141E050E060E070E04E
:105080008A019B0104C0000F111F221F331F8A9544
:10509000D2F7C901B8010E9422200E944C1C81E075
:1050A00006C061E070E080E090E0F5CF80E01F9105
:1050B0000F91089580E0089580E008958E518A3020
:1050C00030F4E82FF0E0E254FE4F8081089580E054
:1050D0000895CF93C82F80914603813079F018F05E
:1050E0008230E9F185C0E0910401F09105018081F1
:1050F000813169F0823209F07DC009C0E09104017C
:10510000F09105018081813111F0823261F48C2FA0
:105110000E945A28811104C08C2F0E94A0271DC014
:1051200081E090E01AC08C2F0E945C28811114C08D
:10513000C43179F048F4CB3079F0C03109F05EC069
:1051400082E08093460308C0C93219F0C83321F0C9
:1051500055C01092460352C081E0817051C0C932DF
:1051600079F108F5C43161F1A0F4C73009F044C009
:1051700010923D0384E180930A01C09309018CE3FE
:105180008093080188E08093070188E280930601FC
:1051900033C082EE8C0F863078F58C2F0E945E280B
:1051A0008093450329C0CE34E9F020F4CB3421F5B7
:1051B0006AE013C0C13579F0C235F1F461E00DC089
:1051C00080914503882319F01092450315C081E0B2
:1051D0008093460315C061E006C0809145030E949C
:1051E000DA260AC06AE0809145030E94502704C075
:1051F0001092460380E004C081E002C080E0ADCFA1
:10520000CF9108958091670308950F931F93CF93D3
:10521000DF9300D01F92CDB7DEB78C010E947A2BAE
:10522000823011F0843019F593E099831B830A834F
:105230009093E9008FEF9091E800815095FD06C0B2
:1052400095ED9A95F1F700008111F5CF8091E80076
:1052500085FF0DC040E050E063E070E0CE010196B4
:105260000E94972B8091E8008E778093E8000F9042
:105270000F900F90DF91CF911F910F910895CF93D1
:10528000DF9300D01F92CDB7DEB72091B803243052
:1052900031F522E02983805891099B838A8383E03A
:1052A0008093E9008FEF9091E800815095FD06C052
:1052B00095ED9A95F1F700008111F5CF8091E80006
:1052C00085FF0DC040E050E063E070E0CE01019644
:1052D0000E94972B8091E8008E778093E8000F90D2
:1052E0000F900F90DF91CF910895CF93DF93EC0152
:1052F0000E947A2B823011F08430F9F482E080939E
:10530000E9009FEF8091E800915085FD06C085ED92
:105310008A95F1F700009111F5CF8091E80085FFA3
:105320000CC040E050E065E070E0CE010E94972B99
:105330008091E8008E778093E800DF91CF91089507
:10534000CF93DF93EC010E947A2B823019F08430E6
:1053500009F047C0809115018823E1F08091B203E4
:1053600087FF18C084E08093E9008FEF9091E800F8
:10537000815095FD06C095E19A95F1F700008111E5
:10538000F5CF8091E80085FF2CC040E050E060E25E
:1053900070E017C081E08093E9008FEF9091E80002
:1053A000815095FD06C095ED9A95F1F700008111A9
:1053B000F5CF8091E80085FF14C040E050E068E040
:1053C00070E0CE010E94972B8091E8008E77809349
:1053D000E80080E2FE01A7E4B3E001900D928A9517
:1053E000E1F7DF91CF9108958091B703811109C052
:1053F0000E942C2D0E94892D8091E2008460809370
:10540000E20008951092B7030895089508950C944A
:10541000D82342E061EC81E00E94A62C42E061ECDE
:1054200082E00E94A62C42E061EC83E00E94A62C60
:1054300042E261EC84E00C94A62C8091BA038330A4
:1054400009F455C030F4813071F0823009F48EC017
:1054500008958A3009F47AC08B3009F460C089302D
:1054600009F09CC020C08091B903813A09F096C030
:105470008091E800877F8093E8008091BD03909140
:10548000BE03892B21F460E287E493E003C060E06F
:1054900080E090E070E00E94E22B8091E8008B7742
:1054A0008093E80008958091B903813209F076C0B5
:1054B0008091BD039091BE03009719F0039709F006
:1054C0006DC08091E800877F8093E8008091E800BC
:1054D00082FD05C08091B8038111F8CF5FC0809133
:1054E000F100809367038091E8008B7753C080912F
:1054F000B903813A09F052C08091BD039091BE0377
:10550000892B09F04BC08091E800877F8093E800E9
:105510008091E80080FFFCCF8091150136C080911A
:10552000B9038132D9F58091BD039091BE03892BD7
:10553000A9F58091E800877F8093E8000E94DB2C2A
:105540008091BB03809315010C944C1C8091B9038E
:10555000813221F58091E800877F8093E8000E94E6
:10556000DB2C8091BC038093680308958091B9037C
:10557000813AA1F48091E800877F8093E8008091D0
:10558000E80080FFFCCF809168038093F100809158
:10559000E8008E778093E8000C94DB2C089584B7A4
:1055A000877F84BF88E10FB6F894809360001092E3
:1055B00060000FBE80E880936100109261000E943D
:1055C0008E160E942C2D0E94892D8091E20084600D
:1055D0008093E20078940E9418300E9492168BE02B
:1055E00091E00E943A168091B803853069F40E94D8
:1055F00095238091B6038823B1F30E94C1238823A9
:1056000091F30E94812BEFCF0E94A0160E943415C7
:10561000EACF0C940B2B292F332723303105C9F007
:1056200064F42130310581F02230310509F049C0A0
:105630008DE690E022EA36E048C02132310521F1C2
:105640002232310571F13DC082E190E02FE037E078
:105650003CC099278130910571F02CF4892B89F594
:10566000EEE9F6E00DC08230910541F0039749F56F
:10567000E8E6F6E005C0E6E8F6E002C0EEE6F6E0B1
:10568000849190E09F0121C064307105D0F4660FD1
:10569000771FFB01EC52FE4F2081318189E090E0C1
:1056A00014C06430710568F4FB01EE0FFF1FE45372
:1056B000FE4F20813181FB01E853FE4F808190E055
:1056C00004C080E090E020E030E0FA0131832083E4
:1056D00008950895CF93C82F0E94692BC093690342
:1056E000CF9108958091B803843011F081E008953E
:1056F00082E0089580916903811102C00C94722B9D
:10570000089580E189BD82E189BD09B400FEFDCF25
:105710008091D8008F7D8093D8008091E0008260D6
:105720008093E0008091E00081FDFCCF0895CF924E
:10573000DF92EF92FF920F931F93CF93DF93EC01D1
:105740008B016A010E94FA2C811133C0C114D1046B
:1057500039F0F60180819181081B190BC80FD91F00
:10576000E12CF12C0115110519F18091E80085FD5E
:1057700016C08091E8008E778093E800C114D104B0
:1057800049F0F60180819181E80EF91EF182E082F4
:1057900085E00FC00E94FA2C882321F30AC089916A
:1057A0008093F10001501109FFEFEF1AFF0ADACFE1
:1057B00080E0DF91CF911F910F91FF90EF90DF90EC
:1057C000CF9008952091BF033091C003261737076B
:1057D00048F06115710539F42091E8002E77209387
:1057E000E80001C0B90140E061157105A9F12091FF
:1057F000B803222309F443C0253009F442C02091A4
:10580000E80023FD40C02091E80022FD32C0209135
:10581000E80020FFE9CF4091F3002091F20030E052
:10582000342BFC01CF016115710559F02830310589
:1058300040F481918093F100615071092F5F3F4FD7
:10584000F1CF41E02830310509F040E02091E80037
:105850002E772093E800C8CF4111C9CF0AC08091AC
:10586000B803882361F0853061F08091E80083FD02
:105870000AC08091E80082FFF2CF80E0089582E0C4
:10588000089583E0089581E008952091BF03309149
:10589000C0032617370748F06115710539F42091C8
:1058A000E8002E772093E80001C0B901FC0120E058
:1058B0006115710591F18091B803882309F440C006
:1058C000853009F43FC08091E80083FD3DC08091A0
:1058D000E80082FD2FC08091E80080FFE9CF209191
:1058E000F3008091F20090E0922B6115710559F060
:1058F0008830910540F424912093F1003196615055
:1059000071090196F2CF21E0089709F020E080911B
:10591000E8008E778093E800CBCF2111CCCF0AC06E
:105920008091B803882361F0853061F08091E800B0
:1059300083FD0AC08091E80082FFF2CF80E00895E5
:1059400082E0089583E0089581E00895982F9730CC
:1059500058F59093E900981739F07091EC00209178
:10596000ED005091F00003C0242F762F50E021FF6E
:1059700019C03091EB003E7F3093EB003091ED0089
:105980003D7F3093ED003091EB0031603093EB00C0
:105990007093EC002093ED005093F0002091EE0006
:1059A00027FF07C09F5FD3CF8F708093E90081E00E
:1059B000089580E008958091B90387FF11C0809118
:1059C000E80082FD05C08091B8038111F8CF11C0B5
:1059D0008091E8008B770BC08091B803882349F051
:1059E0008091E80080FFF8CF8091E8008E77809367
:1059F000E80008952091E4003091E50095E640919B
:105A0000EC00842F817040FF22C08091E80080FD6F
:105A10001CC08091B803882391F0853091F080916B
:105A2000EB0085FD10C04091E4005091E500421765
:105A3000530729F39A01915011F784E0089582E009
:105A4000089583E0089581E0089580E008954091ED
:105A5000E80042FFDECF08950E949A2D0E94A22DF9
:105A6000E0EEF0E0808181608083E8EDF0E080810D
:105A70008F77808319BCA7EDB0E08C918E7F8C93DB
:105A800080818F7E80831092B70308950F931F93B8
:105A9000CF93DF930E949A2D0E94A22DC8EDD0E0F3
:105AA00088818F77888388818068888388818F7DCB
:105AB000888319BC1092B8031092B4031092B603F5
:105AC0001092B50300EE10E0F80180818B7F808397
:105AD00088818160888342E060E080E00E94A62C9B
